{
  "contractName": "DelFiPriceWithOnchainData",
  "abi": [
    {
      "constant": true,
      "inputs": [],
      "name": "data",
      "outputs": [
        {
          "name": "",
          "type": "address"
        }
      ],
      "payable": false,
      "stateMutability": "view",
      "type": "function"
    },
    {
      "constant": true,
      "inputs": [
        {
          "name": "",
          "type": "uint256"
        }
      ],
      "name": "sources",
      "outputs": [
        {
          "name": "",
          "type": "address"
        }
      ],
      "payable": false,
      "stateMutability": "view",
      "type": "function"
    },
    {
      "constant": true,
      "inputs": [
        {
          "name": "",
          "type": "string"
        }
      ],
      "name": "prices",
      "outputs": [
        {
          "name": "",
          "type": "uint64"
        }
      ],
      "payable": false,
      "stateMutability": "view",
      "type": "function"
    },
    {
      "inputs": [
        {
          "name": "data_",
          "type": "address"
        },
        {
          "name": "sources_",
          "type": "address[]"
        },
        {
          "name": "onChainSources_",
          "type": "address[]"
        }
      ],
      "payable": false,
      "stateMutability": "nonpayable",
      "type": "constructor"
    },
    {
      "anonymous": false,
      "inputs": [
        {
          "indexed": false,
          "name": "symbol",
          "type": "string"
        },
        {
          "indexed": false,
          "name": "price",
          "type": "uint64"
        }
      ],
      "name": "Price",
      "type": "event"
    },
    {
      "constant": false,
      "inputs": [
        {
          "name": "messages",
          "type": "bytes[]"
        },
        {
          "name": "signatures",
          "type": "bytes[]"
        },
        {
          "name": "symbols",
          "type": "string[]"
        }
      ],
      "name": "postPrices",
      "outputs": [],
      "payable": false,
      "stateMutability": "nonpayable",
      "type": "function"
    },
    {
      "constant": false,
      "inputs": [
        {
          "name": "symbol",
          "type": "string"
        },
        {
          "name": "sources_",
          "type": "address[]"
        }
      ],
      "name": "medianPrice",
      "outputs": [
        {
          "name": "median",
          "type": "uint64"
        }
      ],
      "payable": false,
      "stateMutability": "nonpayable",
      "type": "function"
    }
  ],
  "bytecode": "0x60806040523480156200001157600080fd5b506040516200184338038062001843833981018060405262000037919081019062000246565b8282816000806101000a81548173ffffffffffffffffffffffffffffffffffffffff021916908373ffffffffffffffffffffffffffffffffffffffff160217905550806001908051906020019062000091929190620000b6565b5050508060029080519060200190620000ac929190620000b6565b50505050620003a1565b82805482825590600052602060002090810192821562000132579160200282015b82811115620001315782518260006101000a81548173ffffffffffffffffffffffffffffffffffffffff021916908373ffffffffffffffffffffffffffffffffffffffff16021790555091602001919060010190620000d7565b5b50905062000141919062000145565b5090565b6200018891905b808211156200018457600081816101000a81549073ffffffffffffffffffffffffffffffffffffffff0219169055506001016200014c565b5090565b90565b6000815190506200019c816200036d565b92915050565b600082601f830112620001b457600080fd5b8151620001cb620001c582620002fc565b620002ce565b91508181835260208401935060208101905083856020840282011115620001f157600080fd5b60005b838110156200022557816200020a88826200018b565b845260208401935060208301925050600181019050620001f4565b5050505092915050565b600081519050620002408162000387565b92915050565b6000806000606084860312156200025c57600080fd5b60006200026c868287016200022f565b935050602084015167ffffffffffffffff8111156200028a57600080fd5b6200029886828701620001a2565b925050604084015167ffffffffffffffff811115620002b657600080fd5b620002c486828701620001a2565b9150509250925092565b6000604051905081810181811067ffffffffffffffff82111715620002f257600080fd5b8060405250919050565b600067ffffffffffffffff8211156200031457600080fd5b602082029050602081019050919050565b600062000332826200034d565b9050919050565b6000620003468262000325565b9050919050565b600073ffffffffffffffffffffffffffffffffffffffff82169050919050565b620003788162000325565b81146200038457600080fd5b50565b620003928162000339565b81146200039e57600080fd5b50565b61149280620003b16000396000f3fe608060405234801561001057600080fd5b50600436106100575760003560e01c806369a650b01461005c57806373d4a13a1461008c578063a3663d37146100aa578063c3825f4b146100da578063ecc1e9841461010a575b600080fd5b61007660048036036100719190810190610eb7565b610126565b6040516100839190611229565b60405180910390f35b610094610552565b6040516100a1919061117c565b60405180910390f35b6100c460048036036100bf9190810190610f23565b610577565b6040516100d191906110f6565b60405180910390f35b6100f460048036036100ef9190810190610e35565b6105b3565b6040516101019190611229565b60405180910390f35b610124600480360361011f9190810190610d42565b6105f0565b005b60008082511161016b576040517f08c379a000000000000000000000000000000000000000000000000000000000815260040161016290611209565b60405180910390fd5b6000825190506060816040519080825280602002602001820160405280156101a25781602001602082028038833980820191505090505b50905060008090505b828110156102ad576000809054906101000a900473ffffffffffffffffffffffffffffffffffffffff1673ffffffffffffffffffffffffffffffffffffffff166376977a3a8683815181106101fc57fe5b6020026020010151886040518363ffffffff1660e01b8152600401610222929190611111565b60206040518083038186803b15801561023a57600080fd5b505afa15801561024e573d6000803e3d6000fd5b505050506040513d601f19601f820116820180604052506102729190810190610f4c565b82828151811061027e57fe5b602002602001019067ffffffffffffffff16908167ffffffffffffffff168152505080806001019150506101ab565b50600080600060606002805490506040519080825280602002602001820160405280156102e95781602001602082028038833980820191505090505b509050600080905060008090505b60028054905081101561042d576002818154811061031157fe5b9060005260206000200160009054906101000a900473ffffffffffffffffffffffffffffffffffffffff1673ffffffffffffffffffffffffffffffffffffffff1663544491268c6040518263ffffffff1660e01b81526004016103749190611197565b606060405180830381600087803b15801561038e57600080fd5b505af11580156103a2573d6000803e3d6000fd5b505050506040513d601f19601f820116820180604052506103c69190810190610de6565b8096508197508298505050508580156103e3575062015180420384115b1561042057848383815181106103f557fe5b602002602001019067ffffffffffffffff16908167ffffffffffffffff168152505081806001019250505b80806001019150506102f7565b5060608188016040519080825280602002602001820160405280156104615781602001602082028038833980820191505090505b50905060008090505b82890181101561051557888110156104c35787818151811061048857fe5b602002602001015182828151811061049c57fe5b602002602001019067ffffffffffffffff16908167ffffffffffffffff1681525050610508565b83898203815181106104d157fe5b60200260200101518282815181106104e557fe5b602002602001019067ffffffffffffffff16908167ffffffffffffffff16815250505b808060010191505061046a565b506060610521826109ad565b90508160028a8161052e57fe5b048151811061053957fe5b6020026020010151995050505050505050505092915050565b6000809054906101000a900473ffffffffffffffffffffffffffffffffffffffff1681565b6001818154811061058457fe5b906000526020600020016000915054906101000a900473ffffffffffffffffffffffffffffffffffffffff1681565b6003818051602081018201805184825260208301602085012081835280955050505050506000915054906101000a900467ffffffffffffffff1681565b838390508686905014610638576040517f08c379a000000000000000000000000000000000000000000000000000000000815260040161062f906111e9565b60405180910390fd5b60008090505b868690508110156107ca576000809054906101000a900473ffffffffffffffffffffffffffffffffffffffff1673ffffffffffffffffffffffffffffffffffffffff166338636e9a88888481811061069257fe5b90506020028101803560016020038336030381126106af57600080fd5b8083019250508135905060208201915067ffffffffffffffff8111156106d457600080fd5b6001810236038213156106e657600080fd5b8888868181106106f257fe5b905060200281018035600160200383360303811261070f57600080fd5b8083019250508135905060208201915067ffffffffffffffff81111561073457600080fd5b60018102360382131561074657600080fd5b6040518563ffffffff1660e01b81526004016107659493929190611141565b600060405180830381600087803b15801561077f57600080fd5b505af1158015610793573d6000803e3d6000fd5b505050506040513d6000823e3d601f19601f820116820180604052506107bc9190810190610e76565b50808060010191505061063e565b5060008090505b828290508110156109a45760608383838181106107ea57fe5b905060200281018035600160200383360303811261080757600080fd5b8083019250508135905060208201915067ffffffffffffffff81111561082c57600080fd5b60018102360382131561083e57600080fd5b8080601f016020809104026020016040519081016040528093929190818152602001838380828437600081840152601f19601f820116905080830192505050505050509050600061091582600180548060200260200160405190810160405280929190818152602001828054801561090b57602002820191906000526020600020905b8160009054906101000a900473ffffffffffffffffffffffffffffffffffffffff1673ffffffffffffffffffffffffffffffffffffffff16815260200190600101908083116108c1575b5050505050610126565b90508060038360405161092891906110df565b908152602001604051809103902060006101000a81548167ffffffffffffffff021916908367ffffffffffffffff1602179055507fb2e815941d7128f92d462d01c0437043997866e1862dd7832f48bcd401861037828260405161098d9291906111b9565b60405180910390a1505080806001019150506107d1565b50505050505050565b606060008251905060008090505b81811015610abc5760006001820190505b82811015610aae578481815181106109e057fe5b602002602001015167ffffffffffffffff168583815181106109fe57fe5b602002602001015167ffffffffffffffff161115610aa1576000858381518110610a2457fe5b60200260200101519050858281518110610a3a57fe5b6020026020010151868481518110610a4e57fe5b602002602001019067ffffffffffffffff16908167ffffffffffffffff168152505080868381518110610a7d57fe5b602002602001019067ffffffffffffffff16908167ffffffffffffffff1681525050505b80806001019150506109cc565b5080806001019150506109bb565b5082915050919050565b600081359050610ad5816113fc565b92915050565b600082601f830112610aec57600080fd5b8135610aff610afa82611271565b611244565b91508181835260208401935060208101905083856020840282011115610b2457600080fd5b60005b83811015610b545781610b3a8882610ac6565b845260208401935060208301925050600181019050610b27565b5050505092915050565b60008083601f840112610b7057600080fd5b8235905067ffffffffffffffff811115610b8957600080fd5b602083019150836020820283011115610ba157600080fd5b9250929050565b60008083601f840112610bba57600080fd5b8235905067ffffffffffffffff811115610bd357600080fd5b602083019150836020820283011115610beb57600080fd5b9250929050565b600081519050610c0181611413565b92915050565b600082601f830112610c1857600080fd5b8135610c2b610c2682611299565b611244565b91508082526020830160208301858383011115610c4757600080fd5b610c528382846113a9565b50505092915050565b600082601f830112610c6c57600080fd5b8135610c7f610c7a826112c5565b611244565b91508082526020830160208301858383011115610c9b57600080fd5b610ca68382846113a9565b50505092915050565b600082601f830112610cc057600080fd5b8151610cd3610cce826112c5565b611244565b91508082526020830160208301858383011115610cef57600080fd5b610cfa8382846113b8565b50505092915050565b600081359050610d128161142a565b92915050565b600081519050610d278161142a565b92915050565b600081519050610d3c81611441565b92915050565b60008060008060008060608789031215610d5b57600080fd5b600087013567ffffffffffffffff811115610d7557600080fd5b610d8189828a01610b5e565b9650965050602087013567ffffffffffffffff811115610da057600080fd5b610dac89828a01610b5e565b9450945050604087013567ffffffffffffffff811115610dcb57600080fd5b610dd789828a01610ba8565b92509250509295509295509295565b600080600060608486031215610dfb57600080fd5b6000610e0986828701610bf2565b9350506020610e1a86828701610d18565b9250506040610e2b86828701610d18565b9150509250925092565b600060208284031215610e4757600080fd5b600082013567ffffffffffffffff811115610e6157600080fd5b610e6d84828501610c07565b91505092915050565b600060208284031215610e8857600080fd5b600082015167ffffffffffffffff811115610ea257600080fd5b610eae84828501610caf565b91505092915050565b60008060408385031215610eca57600080fd5b600083013567ffffffffffffffff811115610ee457600080fd5b610ef085828601610c5b565b925050602083013567ffffffffffffffff811115610f0d57600080fd5b610f1985828601610adb565b9150509250929050565b600060208284031215610f3557600080fd5b6000610f4384828501610d03565b91505092915050565b600060208284031215610f5e57600080fd5b6000610f6c84828501610d2d565b91505092915050565b610f7e81611329565b82525050565b6000610f9083856112fc565b9350610f9d8385846113a9565b610fa6836113eb565b840190509392505050565b610fba81611385565b82525050565b6000610fcb826112f1565b610fd5818561130d565b9350610fe58185602086016113b8565b610fee816113eb565b840191505092915050565b6000611004826112f1565b61100e818561131e565b935061101e8185602086016113b8565b80840191505092915050565b600061103760238361130d565b91507f6d6573736167657320616e64207369676e617475726573206d7573742062652060008301527f313a3100000000000000000000000000000000000000000000000000000000006020830152604082019050919050565b600061109d601e8361130d565b91507f736f7572636573206c697374206d757374206e6f7420626520656d70747900006000830152602082019050919050565b6110d981611371565b82525050565b60006110eb8284610ff9565b915081905092915050565b600060208201905061110b6000830184610f75565b92915050565b60006040820190506111266000830185610f75565b81810360208301526111388184610fc0565b90509392505050565b6000604082019050818103600083015261115c818688610f84565b90508181036020830152611171818486610f84565b905095945050505050565b60006020820190506111916000830184610fb1565b92915050565b600060208201905081810360008301526111b18184610fc0565b905092915050565b600060408201905081810360008301526111d38185610fc0565b90506111e260208301846110d0565b9392505050565b600060208201905081810360008301526112028161102a565b9050919050565b6000602082019050818103600083015261122281611090565b9050919050565b600060208201905061123e60008301846110d0565b92915050565b6000604051905081810181811067ffffffffffffffff8211171561126757600080fd5b8060405250919050565b600067ffffffffffffffff82111561128857600080fd5b602082029050602081019050919050565b600067ffffffffffffffff8211156112b057600080fd5b601f19601f8301169050602081019050919050565b600067ffffffffffffffff8211156112dc57600080fd5b601f19601f8301169050602081019050919050565b600081519050919050565b600082825260208201905092915050565b600082825260208201905092915050565b600081905092915050565b600061133482611347565b9050919050565b60008115159050919050565b600073ffffffffffffffffffffffffffffffffffffffff82169050919050565b6000819050919050565b600067ffffffffffffffff82169050919050565b600061139082611397565b9050919050565b60006113a282611347565b9050919050565b82818337600083830152505050565b60005b838110156113d65780820151818401526020810190506113bb565b838111156113e5576000848401525b50505050565b6000601f19601f8301169050919050565b61140581611329565b811461141057600080fd5b50565b61141c8161133b565b811461142757600080fd5b50565b61143381611367565b811461143e57600080fd5b50565b61144a81611371565b811461145557600080fd5b5056fea265627a7a7230582072a63d46905fec90328419888c7c7640a0f9a82d55f846698e8549887da00f1a6c6578706572696d656e74616cf50037",
  "source": "pragma solidity ^0.5.0;\r\npragma experimental ABIEncoderV2;\r\n\r\nimport \"./OpenOraclePriceData.sol\";\r\nimport \"./OpenOracleView.sol\";\r\nimport \"./OpenOracleOnChainInterface.sol\";\r\n\r\n/**\r\n * @notice The DelFi Price Feed View\r\n * @author Compound Labs, Inc.\r\n */\r\ncontract DelFiPriceWithOnchainData is OpenOracleView {\r\n    /**\r\n     * @notice The event emitted when a price is written to storage\r\n     */\r\n    event Price(string symbol, uint64 price);\r\n    address[] onChainSources;\r\n    /**\r\n     * @notice The mapping of medianized prices per symbol\r\n     */\r\n    mapping(string => uint64) public prices;\r\n\r\n    constructor(OpenOraclePriceData data_, address[] memory sources_,address[] memory onChainSources_) public OpenOracleView(data_, sources_) {\r\n        onChainSources = onChainSources_;\r\n    }\r\n\r\n    /**\r\n     * @notice Primary entry point to post and recalculate prices\r\n     * @dev We let anyone pay to post anything, but only sources count for prices.\r\n     * @param messages The messages to post to the oracle\r\n     * @param signatures The signatures for the corresponding messages\r\n     */\r\n    function postPrices(bytes[] calldata messages, bytes[] calldata signatures, string[] calldata symbols) external {\r\n        require(messages.length == signatures.length, \"messages and signatures must be 1:1\");\r\n\r\n        // Post the messages, whatever they are\r\n        for (uint i = 0; i < messages.length; i++) {\r\n            OpenOraclePriceData(address(data)).put(messages[i], signatures[i]);\r\n        }\r\n\r\n        // Recalculate the asset prices for the symbols to update\r\n        for (uint i = 0; i < symbols.length; i++) {\r\n            string memory symbol = symbols[i];\r\n\r\n            // Calculate the median price, write to storage, and emit an event\r\n            uint64 price = medianPrice(symbol, sources);\r\n            prices[symbol] = price;\r\n            emit Price(symbol, price);\r\n        }\r\n    }\r\n\r\n    /**\r\n     * @notice Calculates the median price over any set of sources\r\n     * @param symbol The symbol to calculate the median price of\r\n     * @param sources_ The sources to use when calculating the median price\r\n     * @return median The median price over the set of sources\r\n     */\r\n    function medianPrice(string memory symbol, address[] memory sources_) public returns (uint64 median) {\r\n        require(sources_.length > 0, \"sources list must not be empty\");\r\n        uint N = sources_.length;\r\n        uint64[] memory postedPrices = new uint64[](N);\r\n        for (uint i = 0; i < N; i++) {\r\n            postedPrices[i] = OpenOraclePriceData(address(data)).getPrice(sources_[i], symbol);\r\n            //should you add check that timestamp is within a certain period?\r\n        }\r\n\r\n        bool _didGet;\r\n        uint _retrievedValue;\r\n        uint _timestampRetrieved;\r\n        uint64[] memory result = new uint64[](onChainSources.length);\r\n        uint tookCount = 0;\r\n        for(uint i=0; i< onChainSources.length; i++){\r\n            (_didGet,_retrievedValue,_timestampRetrieved) = OpenOracleOnChainInterface(address(onChainSources[i])).getCurrentValue(symbol);    \r\n            if(_didGet && _timestampRetrieved > now - 1 days){//or a different threshold (or none like Compound)\r\n                result[tookCount] = uint64(_retrievedValue);\r\n                tookCount++;\r\n            }         \r\n        }\r\n        uint64[] memory allPrices = new uint64[](N + tookCount);\r\n        for (uint i=0; i < (N + tookCount); i++) {\r\n            if(i<N){\r\n                allPrices[i] = postedPrices[i];\r\n            }\r\n            else{\r\n                allPrices[i] = result[i-N];\r\n            }\r\n        }\r\n        uint64[] memory sortedPrices = sort(allPrices);\r\n        return allPrices[N / 2];\r\n    }\r\n\r\n    /**\r\n     * @notice Helper to sort an array of uints\r\n     * @param array Array of integers to sort\r\n     * @return The sorted array of integers\r\n     */\r\n    function sort(uint64[] memory array) private pure returns (uint64[] memory) {\r\n        uint N = array.length;\r\n        for (uint i = 0; i < N; i++) {\r\n            for (uint j = i + 1; j < N; j++) {\r\n                if (array[i] > array[j]) {\r\n                    uint64 tmp = array[i];\r\n                    array[i] = array[j];\r\n                    array[j] = tmp;\r\n                }\r\n            }\r\n        }\r\n        return array;\r\n    }\r\n}",
  "sourcePath": "C:/company/code/open-oracle/contracts/DelFiPriceWithOnchainData.sol",
  "compiler": {
    "name": "solc",
    "version": "0.5.8+commit.23d335f2.Emscripten.clang"
  },
  "schemaVersion": "3.0.16",
  "updatedAt": "2019-09-23T17:26:54.703Z",
  "devdoc": {
    "author": "Compound Labs, Inc.\r",
    "methods": {
      "medianPrice(string,address[])": {
        "params": {
          "sources_": "The sources to use when calculating the median price\r",
          "symbol": "The symbol to calculate the median price of\r"
        },
        "return": "median The median price over the set of sources\r"
      },
      "postPrices(bytes[],bytes[],string[])": {
        "details": "We let anyone pay to post anything, but only sources count for prices.\r",
        "params": {
          "messages": "The messages to post to the oracle\r",
          "signatures": "The signatures for the corresponding messages\r"
        }
      }
    }
  },
  "userdoc": {
    "methods": {
      "medianPrice(string,address[])": {
        "notice": "Calculates the median price over any set of sources\r"
      },
      "postPrices(bytes[],bytes[],string[])": {
        "notice": "Primary entry point to post and recalculate prices\r"
      }
    },
    "notice": "The DelFi Price Feed View\r"
  }
}