{
  "contractName": "DelFiPriceWithOnchainData",
  "abi": [
    {
      "constant": true,
      "inputs": [],
      "name": "data",
      "outputs": [
        {
          "name": "",
          "type": "address"
        }
      ],
      "payable": false,
      "stateMutability": "view",
      "type": "function"
    },
    {
      "constant": true,
      "inputs": [
        {
          "name": "",
          "type": "uint256"
        }
      ],
      "name": "sources",
      "outputs": [
        {
          "name": "",
          "type": "address"
        }
      ],
      "payable": false,
      "stateMutability": "view",
      "type": "function"
    },
    {
      "constant": true,
      "inputs": [
        {
          "name": "",
          "type": "string"
        }
      ],
      "name": "prices",
      "outputs": [
        {
          "name": "",
          "type": "uint64"
        }
      ],
      "payable": false,
      "stateMutability": "view",
      "type": "function"
    },
    {
      "inputs": [
        {
          "name": "data_",
          "type": "address"
        },
        {
          "name": "sources_",
          "type": "address[]"
        },
        {
          "name": "onChainSources_",
          "type": "address[]"
        }
      ],
      "payable": false,
      "stateMutability": "nonpayable",
      "type": "constructor"
    },
    {
      "anonymous": false,
      "inputs": [
        {
          "indexed": false,
          "name": "symbol",
          "type": "string"
        },
        {
          "indexed": false,
          "name": "price",
          "type": "uint64"
        }
      ],
      "name": "Price",
      "type": "event"
    },
    {
      "constant": false,
      "inputs": [
        {
          "name": "_symbol",
          "type": "string"
        }
      ],
      "name": "getPrice",
      "outputs": [
        {
          "name": "",
          "type": "uint64"
        }
      ],
      "payable": false,
      "stateMutability": "nonpayable",
      "type": "function"
    },
    {
      "constant": false,
      "inputs": [
        {
          "name": "messages",
          "type": "bytes[]"
        },
        {
          "name": "signatures",
          "type": "bytes[]"
        },
        {
          "name": "symbols",
          "type": "string[]"
        }
      ],
      "name": "postPrices",
      "outputs": [],
      "payable": false,
      "stateMutability": "nonpayable",
      "type": "function"
    },
    {
      "constant": false,
      "inputs": [
        {
          "name": "symbol",
          "type": "string"
        },
        {
          "name": "sources_",
          "type": "address[]"
        }
      ],
      "name": "medianPrice",
      "outputs": [
        {
          "name": "median",
          "type": "uint64"
        }
      ],
      "payable": false,
      "stateMutability": "nonpayable",
      "type": "function"
    }
  ],
  "bytecode": "0x60806040523480156200001157600080fd5b50604051620018fb380380620018fb833981018060405262000037919081019062000246565b8282816000806101000a81548173ffffffffffffffffffffffffffffffffffffffff021916908373ffffffffffffffffffffffffffffffffffffffff160217905550806001908051906020019062000091929190620000b6565b5050508060029080519060200190620000ac929190620000b6565b50505050620003a1565b82805482825590600052602060002090810192821562000132579160200282015b82811115620001315782518260006101000a81548173ffffffffffffffffffffffffffffffffffffffff021916908373ffffffffffffffffffffffffffffffffffffffff16021790555091602001919060010190620000d7565b5b50905062000141919062000145565b5090565b6200018891905b808211156200018457600081816101000a81549073ffffffffffffffffffffffffffffffffffffffff0219169055506001016200014c565b5090565b90565b6000815190506200019c816200036d565b92915050565b600082601f830112620001b457600080fd5b8151620001cb620001c582620002fc565b620002ce565b91508181835260208401935060208101905083856020840282011115620001f157600080fd5b60005b838110156200022557816200020a88826200018b565b845260208401935060208301925050600181019050620001f4565b5050505092915050565b600081519050620002408162000387565b92915050565b6000806000606084860312156200025c57600080fd5b60006200026c868287016200022f565b935050602084015167ffffffffffffffff8111156200028a57600080fd5b6200029886828701620001a2565b925050604084015167ffffffffffffffff811115620002b657600080fd5b620002c486828701620001a2565b9150509250925092565b6000604051905081810181811067ffffffffffffffff82111715620002f257600080fd5b8060405250919050565b600067ffffffffffffffff8211156200031457600080fd5b602082029050602081019050919050565b600062000332826200034d565b9050919050565b6000620003468262000325565b9050919050565b600073ffffffffffffffffffffffffffffffffffffffff82169050919050565b620003788162000325565b81146200038457600080fd5b50565b620003928162000339565b81146200039e57600080fd5b50565b61154a80620003b16000396000f3fe608060405234801561001057600080fd5b50600436106100625760003560e01c8063524f38891461006757806369a650b01461009757806373d4a13a146100c7578063a3663d37146100e5578063c3825f4b14610115578063ecc1e98414610145575b600080fd5b610081600480360361007c9190810190610eed565b610161565b60405161008e91906112e1565b60405180910390f35b6100b160048036036100ac9190810190610f6f565b61019d565b6040516100be91906112e1565b60405180910390f35b6100cf6105c9565b6040516100dc9190611234565b60405180910390f35b6100ff60048036036100fa9190810190610fdb565b6105ee565b60405161010c91906111ae565b60405180910390f35b61012f600480360361012a9190810190610eac565b61062a565b60405161013c91906112e1565b60405180910390f35b61015f600480360361015a9190810190610db9565b610667565b005b60006003826040516101739190611197565b908152602001604051809103902060009054906101000a900467ffffffffffffffff169050919050565b6000808251116101e2576040517f08c379a00000000000000000000000000000000000000000000000000000000081526004016101d9906112c1565b60405180910390fd5b6000825190506060816040519080825280602002602001820160405280156102195781602001602082028038833980820191505090505b50905060008090505b82811015610324576000809054906101000a900473ffffffffffffffffffffffffffffffffffffffff1673ffffffffffffffffffffffffffffffffffffffff166376977a3a86838151811061027357fe5b6020026020010151886040518363ffffffff1660e01b81526004016102999291906111c9565b60206040518083038186803b1580156102b157600080fd5b505afa1580156102c5573d6000803e3d6000fd5b505050506040513d601f19601f820116820180604052506102e99190810190611004565b8282815181106102f557fe5b602002602001019067ffffffffffffffff16908167ffffffffffffffff16815250508080600101915050610222565b50600080600060606002805490506040519080825280602002602001820160405280156103605781602001602082028038833980820191505090505b509050600080905060008090505b6002805490508110156104a4576002818154811061038857fe5b9060005260206000200160009054906101000a900473ffffffffffffffffffffffffffffffffffffffff1673ffffffffffffffffffffffffffffffffffffffff1663544491268c6040518263ffffffff1660e01b81526004016103eb919061124f565b606060405180830381600087803b15801561040557600080fd5b505af1158015610419573d6000803e3d6000fd5b505050506040513d601f19601f8201168201806040525061043d9190810190610e5d565b80965081975082985050505085801561045a575062015180420384115b15610497578483838151811061046c57fe5b602002602001019067ffffffffffffffff16908167ffffffffffffffff168152505081806001019250505b808060010191505061036e565b5060608188016040519080825280602002602001820160405280156104d85781602001602082028038833980820191505090505b50905060008090505b82890181101561058c578881101561053a578781815181106104ff57fe5b602002602001015182828151811061051357fe5b602002602001019067ffffffffffffffff16908167ffffffffffffffff168152505061057f565b838982038151811061054857fe5b602002602001015182828151811061055c57fe5b602002602001019067ffffffffffffffff16908167ffffffffffffffff16815250505b80806001019150506104e1565b50606061059882610a24565b90508160028a816105a557fe5b04815181106105b057fe5b6020026020010151995050505050505050505092915050565b6000809054906101000a900473ffffffffffffffffffffffffffffffffffffffff1681565b600181815481106105fb57fe5b906000526020600020016000915054906101000a900473ffffffffffffffffffffffffffffffffffffffff1681565b6003818051602081018201805184825260208301602085012081835280955050505050506000915054906101000a900467ffffffffffffffff1681565b8383905086869050146106af576040517f08c379a00000000000000000000000000000000000000000000000000000000081526004016106a6906112a1565b60405180910390fd5b60008090505b86869050811015610841576000809054906101000a900473ffffffffffffffffffffffffffffffffffffffff1673ffffffffffffffffffffffffffffffffffffffff166338636e9a88888481811061070957fe5b905060200281018035600160200383360303811261072657600080fd5b8083019250508135905060208201915067ffffffffffffffff81111561074b57600080fd5b60018102360382131561075d57600080fd5b88888681811061076957fe5b905060200281018035600160200383360303811261078657600080fd5b8083019250508135905060208201915067ffffffffffffffff8111156107ab57600080fd5b6001810236038213156107bd57600080fd5b6040518563ffffffff1660e01b81526004016107dc94939291906111f9565b600060405180830381600087803b1580156107f657600080fd5b505af115801561080a573d6000803e3d6000fd5b505050506040513d6000823e3d601f19601f820116820180604052506108339190810190610f2e565b5080806001019150506106b5565b5060008090505b82829050811015610a1b57606083838381811061086157fe5b905060200281018035600160200383360303811261087e57600080fd5b8083019250508135905060208201915067ffffffffffffffff8111156108a357600080fd5b6001810236038213156108b557600080fd5b8080601f016020809104026020016040519081016040528093929190818152602001838380828437600081840152601f19601f820116905080830192505050505050509050600061098c82600180548060200260200160405190810160405280929190818152602001828054801561098257602002820191906000526020600020905b8160009054906101000a900473ffffffffffffffffffffffffffffffffffffffff1673ffffffffffffffffffffffffffffffffffffffff1681526020019060010190808311610938575b505050505061019d565b90508060038360405161099f9190611197565b908152602001604051809103902060006101000a81548167ffffffffffffffff021916908367ffffffffffffffff1602179055507fb2e815941d7128f92d462d01c0437043997866e1862dd7832f48bcd4018610378282604051610a04929190611271565b60405180910390a150508080600101915050610848565b50505050505050565b606060008251905060008090505b81811015610b335760006001820190505b82811015610b2557848181518110610a5757fe5b602002602001015167ffffffffffffffff16858381518110610a7557fe5b602002602001015167ffffffffffffffff161115610b18576000858381518110610a9b57fe5b60200260200101519050858281518110610ab157fe5b6020026020010151868481518110610ac557fe5b602002602001019067ffffffffffffffff16908167ffffffffffffffff168152505080868381518110610af457fe5b602002602001019067ffffffffffffffff16908167ffffffffffffffff1681525050505b8080600101915050610a43565b508080600101915050610a32565b5082915050919050565b600081359050610b4c816114b4565b92915050565b600082601f830112610b6357600080fd5b8135610b76610b7182611329565b6112fc565b91508181835260208401935060208101905083856020840282011115610b9b57600080fd5b60005b83811015610bcb5781610bb18882610b3d565b845260208401935060208301925050600181019050610b9e565b5050505092915050565b60008083601f840112610be757600080fd5b8235905067ffffffffffffffff811115610c0057600080fd5b602083019150836020820283011115610c1857600080fd5b9250929050565b60008083601f840112610c3157600080fd5b8235905067ffffffffffffffff811115610c4a57600080fd5b602083019150836020820283011115610c6257600080fd5b9250929050565b600081519050610c78816114cb565b92915050565b600082601f830112610c8f57600080fd5b8135610ca2610c9d82611351565b6112fc565b91508082526020830160208301858383011115610cbe57600080fd5b610cc9838284611461565b50505092915050565b600082601f830112610ce357600080fd5b8135610cf6610cf18261137d565b6112fc565b91508082526020830160208301858383011115610d1257600080fd5b610d1d838284611461565b50505092915050565b600082601f830112610d3757600080fd5b8151610d4a610d458261137d565b6112fc565b91508082526020830160208301858383011115610d6657600080fd5b610d71838284611470565b50505092915050565b600081359050610d89816114e2565b92915050565b600081519050610d9e816114e2565b92915050565b600081519050610db3816114f9565b92915050565b60008060008060008060608789031215610dd257600080fd5b600087013567ffffffffffffffff811115610dec57600080fd5b610df889828a01610bd5565b9650965050602087013567ffffffffffffffff811115610e1757600080fd5b610e2389828a01610bd5565b9450945050604087013567ffffffffffffffff811115610e4257600080fd5b610e4e89828a01610c1f565b92509250509295509295509295565b600080600060608486031215610e7257600080fd5b6000610e8086828701610c69565b9350506020610e9186828701610d8f565b9250506040610ea286828701610d8f565b9150509250925092565b600060208284031215610ebe57600080fd5b600082013567ffffffffffffffff811115610ed857600080fd5b610ee484828501610c7e565b91505092915050565b600060208284031215610eff57600080fd5b600082013567ffffffffffffffff811115610f1957600080fd5b610f2584828501610cd2565b91505092915050565b600060208284031215610f4057600080fd5b600082015167ffffffffffffffff811115610f5a57600080fd5b610f6684828501610d26565b91505092915050565b60008060408385031215610f8257600080fd5b600083013567ffffffffffffffff811115610f9c57600080fd5b610fa885828601610cd2565b925050602083013567ffffffffffffffff811115610fc557600080fd5b610fd185828601610b52565b9150509250929050565b600060208284031215610fed57600080fd5b6000610ffb84828501610d7a565b91505092915050565b60006020828403121561101657600080fd5b600061102484828501610da4565b91505092915050565b611036816113e1565b82525050565b600061104883856113b4565b9350611055838584611461565b61105e836114a3565b840190509392505050565b6110728161143d565b82525050565b6000611083826113a9565b61108d81856113c5565b935061109d818560208601611470565b6110a6816114a3565b840191505092915050565b60006110bc826113a9565b6110c681856113d6565b93506110d6818560208601611470565b80840191505092915050565b60006110ef6023836113c5565b91507f6d6573736167657320616e64207369676e617475726573206d7573742062652060008301527f313a3100000000000000000000000000000000000000000000000000000000006020830152604082019050919050565b6000611155601e836113c5565b91507f736f7572636573206c697374206d757374206e6f7420626520656d70747900006000830152602082019050919050565b61119181611429565b82525050565b60006111a382846110b1565b915081905092915050565b60006020820190506111c3600083018461102d565b92915050565b60006040820190506111de600083018561102d565b81810360208301526111f08184611078565b90509392505050565b6000604082019050818103600083015261121481868861103c565b9050818103602083015261122981848661103c565b905095945050505050565b60006020820190506112496000830184611069565b92915050565b600060208201905081810360008301526112698184611078565b905092915050565b6000604082019050818103600083015261128b8185611078565b905061129a6020830184611188565b9392505050565b600060208201905081810360008301526112ba816110e2565b9050919050565b600060208201905081810360008301526112da81611148565b9050919050565b60006020820190506112f66000830184611188565b92915050565b6000604051905081810181811067ffffffffffffffff8211171561131f57600080fd5b8060405250919050565b600067ffffffffffffffff82111561134057600080fd5b602082029050602081019050919050565b600067ffffffffffffffff82111561136857600080fd5b601f19601f8301169050602081019050919050565b600067ffffffffffffffff82111561139457600080fd5b601f19601f8301169050602081019050919050565b600081519050919050565b600082825260208201905092915050565b600082825260208201905092915050565b600081905092915050565b60006113ec826113ff565b9050919050565b60008115159050919050565b600073ffffffffffffffffffffffffffffffffffffffff82169050919050565b6000819050919050565b600067ffffffffffffffff82169050919050565b60006114488261144f565b9050919050565b600061145a826113ff565b9050919050565b82818337600083830152505050565b60005b8381101561148e578082015181840152602081019050611473565b8381111561149d576000848401525b50505050565b6000601f19601f8301169050919050565b6114bd816113e1565b81146114c857600080fd5b50565b6114d4816113f3565b81146114df57600080fd5b50565b6114eb8161141f565b81146114f657600080fd5b50565b61150281611429565b811461150d57600080fd5b5056fea265627a7a72305820437e311ad980f6d16dca889b6c8fac388e003b27120d4bfcd1fa647bac30a50b6c6578706572696d656e74616cf50037",
  "source": "pragma solidity ^0.5.0;\r\npragma experimental ABIEncoderV2;\r\n\r\nimport \"./OpenOraclePriceData.sol\";\r\nimport \"./OpenOracleView.sol\";\r\nimport \"./OpenOracleOnChainInterface.sol\";\r\n\r\n/**\r\n * @notice The DelFi Price Feed View\r\n * @author Compound Labs, Inc.\r\n */\r\ncontract DelFiPriceWithOnchainData is OpenOracleView {\r\n    /**\r\n     * @notice The event emitted when a price is written to storage\r\n     */\r\n    event Price(string symbol, uint64 price);\r\n    address[] onChainSources;\r\n    /**\r\n     * @notice The mapping of medianized prices per symbol\r\n     */\r\n    mapping(string => uint64) public prices;\r\n\r\n    constructor(OpenOraclePriceData data_, address[] memory sources_,address[] memory onChainSources_) public OpenOracleView(data_, sources_) {\r\n        onChainSources = onChainSources_;\r\n    }\r\n\r\n    function getPrice(string memory _symbol) public returns(uint64){\r\n        return prices[_symbol];\r\n    }\r\n\r\n    /**\r\n     * @notice Primary entry point to post and recalculate prices\r\n     * @dev We let anyone pay to post anything, but only sources count for prices.\r\n     * @param messages The messages to post to the oracle\r\n     * @param signatures The signatures for the corresponding messages\r\n     */\r\n    function postPrices(bytes[] calldata messages, bytes[] calldata signatures, string[] calldata symbols) external {\r\n        require(messages.length == signatures.length, \"messages and signatures must be 1:1\");\r\n\r\n        // Post the messages, whatever they are\r\n        for (uint i = 0; i < messages.length; i++) {\r\n            OpenOraclePriceData(address(data)).put(messages[i], signatures[i]);\r\n        }\r\n\r\n        // Recalculate the asset prices for the symbols to update\r\n        for (uint i = 0; i < symbols.length; i++) {\r\n            string memory symbol = symbols[i];\r\n\r\n            // Calculate the median price, write to storage, and emit an event\r\n            uint64 price = medianPrice(symbol, sources);\r\n            prices[symbol] = price;\r\n            emit Price(symbol, price);\r\n        }\r\n    }\r\n\r\n    /**\r\n     * @notice Calculates the median price over any set of sources\r\n     * @param symbol The symbol to calculate the median price of\r\n     * @param sources_ The sources to use when calculating the median price\r\n     * @return median The median price over the set of sources\r\n     */\r\n    function medianPrice(string memory symbol, address[] memory sources_) public returns (uint64 median) {\r\n        require(sources_.length > 0, \"sources list must not be empty\");\r\n        uint N = sources_.length;\r\n        uint64[] memory postedPrices = new uint64[](N);\r\n        for (uint i = 0; i < N; i++) {\r\n            postedPrices[i] = OpenOraclePriceData(address(data)).getPrice(sources_[i], symbol);\r\n            //should you add check that timestamp is within a certain period?\r\n        }\r\n\r\n        bool _didGet;\r\n        uint _retrievedValue;\r\n        uint _timestampRetrieved;\r\n        uint64[] memory result = new uint64[](onChainSources.length);\r\n        uint tookCount = 0;\r\n        for(uint i=0; i< onChainSources.length; i++){\r\n            (_didGet,_retrievedValue,_timestampRetrieved) = OpenOracleOnChainInterface(address(onChainSources[i])).getCurrentValue(symbol);    \r\n            if(_didGet && _timestampRetrieved > now - 1 days){//or a different threshold (or none like Compound)\r\n                result[tookCount] = uint64(_retrievedValue);\r\n                tookCount++;\r\n            }         \r\n        }\r\n        uint64[] memory allPrices = new uint64[](N + tookCount);\r\n        for (uint i=0; i < (N + tookCount); i++) {\r\n            if(i<N){\r\n                allPrices[i] = postedPrices[i];\r\n            }\r\n            else{\r\n                allPrices[i] = result[i-N];\r\n            }\r\n        }\r\n        uint64[] memory sortedPrices = sort(allPrices);\r\n        return allPrices[N / 2];\r\n    }\r\n\r\n    /**\r\n     * @notice Helper to sort an array of uints\r\n     * @param array Array of integers to sort\r\n     * @return The sorted array of integers\r\n     */\r\n    function sort(uint64[] memory array) private pure returns (uint64[] memory) {\r\n        uint N = array.length;\r\n        for (uint i = 0; i < N; i++) {\r\n            for (uint j = i + 1; j < N; j++) {\r\n                if (array[i] > array[j]) {\r\n                    uint64 tmp = array[i];\r\n                    array[i] = array[j];\r\n                    array[j] = tmp;\r\n                }\r\n            }\r\n        }\r\n        return array;\r\n    }\r\n}",
  "sourcePath": "C:\\company\\code\\open-oracle\\contracts\\DelFiPriceWithOnchainData.sol",
  "compiler": {
    "name": "solc",
    "version": "0.5.8+commit.23d335f2.Emscripten.clang"
  },
  "schemaVersion": "3.0.16",
  "updatedAt": "2019-10-03T20:10:33.042Z",
  "devdoc": {
    "author": "Compound Labs, Inc.\r",
    "methods": {
      "medianPrice(string,address[])": {
        "params": {
          "sources_": "The sources to use when calculating the median price\r",
          "symbol": "The symbol to calculate the median price of\r"
        },
        "return": "median The median price over the set of sources\r"
      },
      "postPrices(bytes[],bytes[],string[])": {
        "details": "We let anyone pay to post anything, but only sources count for prices.\r",
        "params": {
          "messages": "The messages to post to the oracle\r",
          "signatures": "The signatures for the corresponding messages\r"
        }
      }
    }
  },
  "userdoc": {
    "methods": {
      "medianPrice(string,address[])": {
        "notice": "Calculates the median price over any set of sources\r"
      },
      "postPrices(bytes[],bytes[],string[])": {
        "notice": "Primary entry point to post and recalculate prices\r"
      }
    },
    "notice": "The DelFi Price Feed View\r"
  }
}