{
  "contractName": "DelFiPrice",
  "abi": [
    {
      "constant": true,
      "inputs": [],
      "name": "data",
      "outputs": [
        {
          "name": "",
          "type": "address"
        }
      ],
      "payable": false,
      "stateMutability": "view",
      "type": "function"
    },
    {
      "constant": true,
      "inputs": [
        {
          "name": "",
          "type": "uint256"
        }
      ],
      "name": "sources",
      "outputs": [
        {
          "name": "",
          "type": "address"
        }
      ],
      "payable": false,
      "stateMutability": "view",
      "type": "function"
    },
    {
      "constant": true,
      "inputs": [
        {
          "name": "",
          "type": "string"
        }
      ],
      "name": "prices",
      "outputs": [
        {
          "name": "",
          "type": "uint64"
        }
      ],
      "payable": false,
      "stateMutability": "view",
      "type": "function"
    },
    {
      "inputs": [
        {
          "name": "data_",
          "type": "address"
        },
        {
          "name": "sources_",
          "type": "address[]"
        }
      ],
      "payable": false,
      "stateMutability": "nonpayable",
      "type": "constructor"
    },
    {
      "anonymous": false,
      "inputs": [
        {
          "indexed": false,
          "name": "symbol",
          "type": "string"
        },
        {
          "indexed": false,
          "name": "price",
          "type": "uint64"
        }
      ],
      "name": "Price",
      "type": "event"
    },
    {
      "constant": false,
      "inputs": [
        {
          "name": "messages",
          "type": "bytes[]"
        },
        {
          "name": "signatures",
          "type": "bytes[]"
        },
        {
          "name": "symbols",
          "type": "string[]"
        }
      ],
      "name": "postPrices",
      "outputs": [],
      "payable": false,
      "stateMutability": "nonpayable",
      "type": "function"
    },
    {
      "constant": true,
      "inputs": [
        {
          "name": "symbol",
          "type": "string"
        },
        {
          "name": "sources_",
          "type": "address[]"
        }
      ],
      "name": "medianPrice",
      "outputs": [
        {
          "name": "median",
          "type": "uint64"
        }
      ],
      "payable": false,
      "stateMutability": "view",
      "type": "function"
    }
  ],
  "bytecode": "0x60806040523480156200001157600080fd5b50604051620014cf380380620014cf83398101806040526200003791908101906200022c565b8181816000806101000a81548173ffffffffffffffffffffffffffffffffffffffff021916908373ffffffffffffffffffffffffffffffffffffffff1602179055508060019080519060200190620000919291906200009c565b505050505062000359565b82805482825590600052602060002090810192821562000118579160200282015b82811115620001175782518260006101000a81548173ffffffffffffffffffffffffffffffffffffffff021916908373ffffffffffffffffffffffffffffffffffffffff16021790555091602001919060010190620000bd565b5b5090506200012791906200012b565b5090565b6200016e91905b808211156200016a57600081816101000a81549073ffffffffffffffffffffffffffffffffffffffff02191690555060010162000132565b5090565b90565b600081519050620001828162000325565b92915050565b600082601f8301126200019a57600080fd5b8151620001b1620001ab82620002b4565b62000286565b91508181835260208401935060208101905083856020840282011115620001d757600080fd5b60005b838110156200020b5781620001f0888262000171565b845260208401935060208301925050600181019050620001da565b5050505092915050565b60008151905062000226816200033f565b92915050565b600080604083850312156200024057600080fd5b6000620002508582860162000215565b925050602083015167ffffffffffffffff8111156200026e57600080fd5b6200027c8582860162000188565b9150509250929050565b6000604051905081810181811067ffffffffffffffff82111715620002aa57600080fd5b8060405250919050565b600067ffffffffffffffff821115620002cc57600080fd5b602082029050602081019050919050565b6000620002ea8262000305565b9050919050565b6000620002fe82620002dd565b9050919050565b600073ffffffffffffffffffffffffffffffffffffffff82169050919050565b6200033081620002dd565b81146200033c57600080fd5b50565b6200034a81620002f1565b81146200035657600080fd5b50565b61116680620003696000396000f3fe608060405234801561001057600080fd5b50600436106100575760003560e01c806369a650b01461005c57806373d4a13a1461008c578063a3663d37146100aa578063c3825f4b146100da578063ecc1e9841461010a575b600080fd5b61007660048036036100719190810190610bd0565b610126565b6040516100839190610f20565b60405180910390f35b6100946102e4565b6040516100a19190610e95565b60405180910390f35b6100c460048036036100bf9190810190610c3c565b610309565b6040516100d19190610e0f565b60405180910390f35b6100f460048036036100ef9190810190610b4e565b610345565b6040516101019190610f20565b60405180910390f35b610124600480360361011f9190810190610aaa565b610382565b005b60008082511161016b576040517f08c379a000000000000000000000000000000000000000000000000000000000815260040161016290610f00565b60405180910390fd5b6000825190506060816040519080825280602002602001820160405280156101a25781602001602082028038833980820191505090505b50905060008090505b828110156102ad576000809054906101000a900473ffffffffffffffffffffffffffffffffffffffff1673ffffffffffffffffffffffffffffffffffffffff166376977a3a8683815181106101fc57fe5b6020026020010151886040518363ffffffff1660e01b8152600401610222929190610e2a565b60206040518083038186803b15801561023a57600080fd5b505afa15801561024e573d6000803e3d6000fd5b505050506040513d601f19601f820116820180604052506102729190810190610c65565b82828151811061027e57fe5b602002602001019067ffffffffffffffff16908167ffffffffffffffff168152505080806001019150506101ab565b5060606102b98261073f565b905080600284816102c657fe5b04815181106102d157fe5b6020026020010151935050505092915050565b6000809054906101000a900473ffffffffffffffffffffffffffffffffffffffff1681565b6001818154811061031657fe5b906000526020600020016000915054906101000a900473ffffffffffffffffffffffffffffffffffffffff1681565b6002818051602081018201805184825260208301602085012081835280955050505050506000915054906101000a900467ffffffffffffffff1681565b8383905086869050146103ca576040517f08c379a00000000000000000000000000000000000000000000000000000000081526004016103c190610ee0565b60405180910390fd5b60008090505b8686905081101561055c576000809054906101000a900473ffffffffffffffffffffffffffffffffffffffff1673ffffffffffffffffffffffffffffffffffffffff166338636e9a88888481811061042457fe5b905060200281018035600160200383360303811261044157600080fd5b8083019250508135905060208201915067ffffffffffffffff81111561046657600080fd5b60018102360382131561047857600080fd5b88888681811061048457fe5b90506020028101803560016020038336030381126104a157600080fd5b8083019250508135905060208201915067ffffffffffffffff8111156104c657600080fd5b6001810236038213156104d857600080fd5b6040518563ffffffff1660e01b81526004016104f79493929190610e5a565b600060405180830381600087803b15801561051157600080fd5b505af1158015610525573d6000803e3d6000fd5b505050506040513d6000823e3d601f19601f8201168201806040525061054e9190810190610b8f565b5080806001019150506103d0565b5060008090505b8282905081101561073657606083838381811061057c57fe5b905060200281018035600160200383360303811261059957600080fd5b8083019250508135905060208201915067ffffffffffffffff8111156105be57600080fd5b6001810236038213156105d057600080fd5b8080601f016020809104026020016040519081016040528093929190818152602001838380828437600081840152601f19601f82011690508083019250505050505050905060006106a782600180548060200260200160405190810160405280929190818152602001828054801561069d57602002820191906000526020600020905b8160009054906101000a900473ffffffffffffffffffffffffffffffffffffffff1673ffffffffffffffffffffffffffffffffffffffff1681526020019060010190808311610653575b5050505050610126565b9050806002836040516106ba9190610df8565b908152602001604051809103902060006101000a81548167ffffffffffffffff021916908367ffffffffffffffff1602179055507fb2e815941d7128f92d462d01c0437043997866e1862dd7832f48bcd401861037828260405161071f929190610eb0565b60405180910390a150508080600101915050610563565b50505050505050565b606060008251905060008090505b8181101561084e5760006001820190505b828110156108405784818151811061077257fe5b602002602001015167ffffffffffffffff1685838151811061079057fe5b602002602001015167ffffffffffffffff1611156108335760008583815181106107b657fe5b602002602001015190508582815181106107cc57fe5b60200260200101518684815181106107e057fe5b602002602001019067ffffffffffffffff16908167ffffffffffffffff16815250508086838151811061080f57fe5b602002602001019067ffffffffffffffff16908167ffffffffffffffff1681525050505b808060010191505061075e565b50808060010191505061074d565b5082915050919050565b600081359050610867816110e7565b92915050565b600082601f83011261087e57600080fd5b813561089161088c82610f68565b610f3b565b915081818352602084019350602081019050838560208402820111156108b657600080fd5b60005b838110156108e657816108cc8882610858565b8452602084019350602083019250506001810190506108b9565b5050505092915050565b60008083601f84011261090257600080fd5b8235905067ffffffffffffffff81111561091b57600080fd5b60208301915083602082028301111561093357600080fd5b9250929050565b60008083601f84011261094c57600080fd5b8235905067ffffffffffffffff81111561096557600080fd5b60208301915083602082028301111561097d57600080fd5b9250929050565b600082601f83011261099557600080fd5b81356109a86109a382610f90565b610f3b565b915080825260208301602083018583830111156109c457600080fd5b6109cf838284611094565b50505092915050565b600082601f8301126109e957600080fd5b81356109fc6109f782610fbc565b610f3b565b91508082526020830160208301858383011115610a1857600080fd5b610a23838284611094565b50505092915050565b600082601f830112610a3d57600080fd5b8151610a50610a4b82610fbc565b610f3b565b91508082526020830160208301858383011115610a6c57600080fd5b610a778382846110a3565b50505092915050565b600081359050610a8f816110fe565b92915050565b600081519050610aa481611115565b92915050565b60008060008060008060608789031215610ac357600080fd5b600087013567ffffffffffffffff811115610add57600080fd5b610ae989828a016108f0565b9650965050602087013567ffffffffffffffff811115610b0857600080fd5b610b1489828a016108f0565b9450945050604087013567ffffffffffffffff811115610b3357600080fd5b610b3f89828a0161093a565b92509250509295509295509295565b600060208284031215610b6057600080fd5b600082013567ffffffffffffffff811115610b7a57600080fd5b610b8684828501610984565b91505092915050565b600060208284031215610ba157600080fd5b600082015167ffffffffffffffff811115610bbb57600080fd5b610bc784828501610a2c565b91505092915050565b60008060408385031215610be357600080fd5b600083013567ffffffffffffffff811115610bfd57600080fd5b610c09858286016109d8565b925050602083013567ffffffffffffffff811115610c2657600080fd5b610c328582860161086d565b9150509250929050565b600060208284031215610c4e57600080fd5b6000610c5c84828501610a80565b91505092915050565b600060208284031215610c7757600080fd5b6000610c8584828501610a95565b91505092915050565b610c9781611020565b82525050565b6000610ca98385610ff3565b9350610cb6838584611094565b610cbf836110d6565b840190509392505050565b610cd381611070565b82525050565b6000610ce482610fe8565b610cee8185611004565b9350610cfe8185602086016110a3565b610d07816110d6565b840191505092915050565b6000610d1d82610fe8565b610d278185611015565b9350610d378185602086016110a3565b80840191505092915050565b6000610d50602383611004565b91507f6d6573736167657320616e64207369676e617475726573206d7573742062652060008301527f313a3100000000000000000000000000000000000000000000000000000000006020830152604082019050919050565b6000610db6601e83611004565b91507f736f7572636573206c697374206d757374206e6f7420626520656d70747900006000830152602082019050919050565b610df28161105c565b82525050565b6000610e048284610d12565b915081905092915050565b6000602082019050610e246000830184610c8e565b92915050565b6000604082019050610e3f6000830185610c8e565b8181036020830152610e518184610cd9565b90509392505050565b60006040820190508181036000830152610e75818688610c9d565b90508181036020830152610e8a818486610c9d565b905095945050505050565b6000602082019050610eaa6000830184610cca565b92915050565b60006040820190508181036000830152610eca8185610cd9565b9050610ed96020830184610de9565b9392505050565b60006020820190508181036000830152610ef981610d43565b9050919050565b60006020820190508181036000830152610f1981610da9565b9050919050565b6000602082019050610f356000830184610de9565b92915050565b6000604051905081810181811067ffffffffffffffff82111715610f5e57600080fd5b8060405250919050565b600067ffffffffffffffff821115610f7f57600080fd5b602082029050602081019050919050565b600067ffffffffffffffff821115610fa757600080fd5b601f19601f8301169050602081019050919050565b600067ffffffffffffffff821115610fd357600080fd5b601f19601f8301169050602081019050919050565b600081519050919050565b600082825260208201905092915050565b600082825260208201905092915050565b600081905092915050565b600061102b82611032565b9050919050565b600073ffffffffffffffffffffffffffffffffffffffff82169050919050565b6000819050919050565b600067ffffffffffffffff82169050919050565b600061107b82611082565b9050919050565b600061108d82611032565b9050919050565b82818337600083830152505050565b60005b838110156110c15780820151818401526020810190506110a6565b838111156110d0576000848401525b50505050565b6000601f19601f8301169050919050565b6110f081611020565b81146110fb57600080fd5b50565b61110781611052565b811461111257600080fd5b50565b61111e8161105c565b811461112957600080fd5b5056fea265627a7a72305820285642674737fd7c75ebdd049010e033d113077affe0d45a12452f09cc9c3dfb6c6578706572696d656e74616cf50037",
  "source": "pragma solidity ^0.5.0;\r\npragma experimental ABIEncoderV2;\r\n\r\nimport \"./OpenOraclePriceData.sol\";\r\nimport \"./OpenOracleView.sol\";\r\n\r\n/**\r\n * @notice The DelFi Price Feed View\r\n * @author Compound Labs, Inc.\r\n */\r\ncontract DelFiPrice is OpenOracleView {\r\n    /**\r\n     * @notice The event emitted when a price is written to storage\r\n     */\r\n    event Price(string symbol, uint64 price);\r\n\r\n    /**\r\n     * @notice The mapping of medianized prices per symbol\r\n     */\r\n    mapping(string => uint64) public prices;\r\n\r\n    constructor(OpenOraclePriceData data_, address[] memory sources_) public OpenOracleView(data_, sources_) {}\r\n\r\n    /**\r\n     * @notice Primary entry point to post and recalculate prices\r\n     * @dev We let anyone pay to post anything, but only sources count for prices.\r\n     * @param messages The messages to post to the oracle\r\n     * @param signatures The signatures for the corresponding messages\r\n     */\r\n    function postPrices(bytes[] calldata messages, bytes[] calldata signatures, string[] calldata symbols) external {\r\n        require(messages.length == signatures.length, \"messages and signatures must be 1:1\");\r\n\r\n        // Post the messages, whatever they are\r\n        for (uint i = 0; i < messages.length; i++) {\r\n            OpenOraclePriceData(address(data)).put(messages[i], signatures[i]);\r\n        }\r\n\r\n        // Recalculate the asset prices for the symbols to update\r\n        for (uint i = 0; i < symbols.length; i++) {\r\n            string memory symbol = symbols[i];\r\n\r\n            // Calculate the median price, write to storage, and emit an event\r\n            uint64 price = medianPrice(symbol, sources);\r\n            prices[symbol] = price;\r\n            emit Price(symbol, price);\r\n        }\r\n    }\r\n\r\n    /**\r\n     * @notice Calculates the median price over any set of sources\r\n     * @param symbol The symbol to calculate the median price of\r\n     * @param sources_ The sources to use when calculating the median price\r\n     * @return median The median price over the set of sources\r\n     */\r\n    function medianPrice(string memory symbol, address[] memory sources_) public view returns (uint64 median) {\r\n        require(sources_.length > 0, \"sources list must not be empty\");\r\n\r\n        uint N = sources_.length;\r\n        uint64[] memory postedPrices = new uint64[](N);\r\n        for (uint i = 0; i < N; i++) {\r\n            postedPrices[i] = OpenOraclePriceData(address(data)).getPrice(sources_[i], symbol);\r\n        }\r\n\r\n        uint64[] memory sortedPrices = sort(postedPrices);\r\n        return sortedPrices[N / 2];\r\n    }\r\n\r\n    /**\r\n     * @notice Helper to sort an array of uints\r\n     * @param array Array of integers to sort\r\n     * @return The sorted array of integers\r\n     */\r\n    function sort(uint64[] memory array) private pure returns (uint64[] memory) {\r\n        uint N = array.length;\r\n        for (uint i = 0; i < N; i++) {\r\n            for (uint j = i + 1; j < N; j++) {\r\n                if (array[i] > array[j]) {\r\n                    uint64 tmp = array[i];\r\n                    array[i] = array[j];\r\n                    array[j] = tmp;\r\n                }\r\n            }\r\n        }\r\n        return array;\r\n    }\r\n}",
  "sourcePath": "C:/company/code/open-oracle/contracts/DelFiPrice.sol",
  "compiler": {
    "name": "solc",
    "version": "0.5.8+commit.23d335f2.Emscripten.clang"
  },
  "schemaVersion": "3.0.16",
  "updatedAt": "2019-10-03T17:39:31.610Z",
  "devdoc": {
    "author": "Compound Labs, Inc.\r",
    "methods": {
      "medianPrice(string,address[])": {
        "params": {
          "sources_": "The sources to use when calculating the median price\r",
          "symbol": "The symbol to calculate the median price of\r"
        },
        "return": "median The median price over the set of sources\r"
      },
      "postPrices(bytes[],bytes[],string[])": {
        "details": "We let anyone pay to post anything, but only sources count for prices.\r",
        "params": {
          "messages": "The messages to post to the oracle\r",
          "signatures": "The signatures for the corresponding messages\r"
        }
      }
    }
  },
  "userdoc": {
    "methods": {
      "medianPrice(string,address[])": {
        "notice": "Calculates the median price over any set of sources\r"
      },
      "postPrices(bytes[],bytes[],string[])": {
        "notice": "Primary entry point to post and recalculate prices\r"
      }
    },
    "notice": "The DelFi Price Feed View\r"
  }
}