{
  "contractName": "OpenOracleOnChainImplementation",
  "abi": [
    {
      "constant": true,
      "inputs": [
        {
          "name": "",
          "type": "string"
        },
        {
          "name": "",
          "type": "uint64"
        }
      ],
      "name": "priceData",
      "outputs": [
        {
          "name": "timestamp",
          "type": "uint64"
        },
        {
          "name": "value",
          "type": "uint64"
        }
      ],
      "payable": false,
      "stateMutability": "view",
      "type": "function"
    },
    {
      "constant": true,
      "inputs": [
        {
          "name": "",
          "type": "string"
        }
      ],
      "name": "currentTime",
      "outputs": [
        {
          "name": "",
          "type": "uint64"
        }
      ],
      "payable": false,
      "stateMutability": "view",
      "type": "function"
    },
    {
      "constant": false,
      "inputs": [
        {
          "name": "_symbol",
          "type": "string"
        }
      ],
      "name": "getCurrentValue",
      "outputs": [
        {
          "name": "_didGet",
          "type": "bool"
        },
        {
          "name": "_value",
          "type": "uint64"
        },
        {
          "name": "_time",
          "type": "uint64"
        }
      ],
      "payable": false,
      "stateMutability": "nonpayable",
      "type": "function"
    },
    {
      "constant": false,
      "inputs": [
        {
          "name": "_symbol",
          "type": "string"
        },
        {
          "name": "_time",
          "type": "uint64"
        },
        {
          "name": "_value",
          "type": "uint64"
        }
      ],
      "name": "setValue",
      "outputs": [],
      "payable": false,
      "stateMutability": "nonpayable",
      "type": "function"
    },
    {
      "constant": true,
      "inputs": [
        {
          "name": "_symbol",
          "type": "string"
        },
        {
          "name": "_timestamp",
          "type": "uint64"
        }
      ],
      "name": "getValue",
      "outputs": [
        {
          "name": "",
          "type": "uint64"
        },
        {
          "name": "",
          "type": "uint64"
        }
      ],
      "payable": false,
      "stateMutability": "view",
      "type": "function"
    }
  ],
  "bytecode": "0x608060405234801561001057600080fd5b506108ed806100206000396000f3fe608060405234801561001057600080fd5b50600436106100575760003560e01c806307bee1981461005c5780630bf69c2e146100fd5780631e16d19d1461020f57806354449126146102f2578063b3f56444146103fb575b600080fd5b6100fb6004803603606081101561007257600080fd5b810190808035906020019064010000000081111561008f57600080fd5b8201836020820111156100a157600080fd5b803590602001918460018302840111640100000000831117156100c357600080fd5b9091929391929390803567ffffffffffffffff169060200190929190803567ffffffffffffffff16906020019092919050505061050d565b005b6101ca6004803603604081101561011357600080fd5b810190808035906020019064010000000081111561013057600080fd5b82018360208201111561014257600080fd5b8035906020019184600183028401116401000000008311171561016457600080fd5b91908080601f016020809104026020016040519081016040528093929190818152602001838380828437600081840152601f19601f820116905080830192505050505050509192919290803567ffffffffffffffff16906020019092919050505061068f565b604051808367ffffffffffffffff1667ffffffffffffffff1681526020018267ffffffffffffffff1667ffffffffffffffff1681526020019250505060405180910390f35b6102c86004803603602081101561022557600080fd5b810190808035906020019064010000000081111561024257600080fd5b82018360208201111561025457600080fd5b8035906020019184600183028401116401000000008311171561027657600080fd5b91908080601f016020809104026020016040519081016040528093929190818152602001838380828437600081840152601f19601f8201169050808301925050505050505091929192905050506106fe565b604051808267ffffffffffffffff1667ffffffffffffffff16815260200191505060405180910390f35b6103ab6004803603602081101561030857600080fd5b810190808035906020019064010000000081111561032557600080fd5b82018360208201111561033757600080fd5b8035906020019184600183028401116401000000008311171561035957600080fd5b91908080601f016020809104026020016040519081016040528093929190818152602001838380828437600081840152601f19601f82011690508083019250505050505050919291929050505061073b565b60405180841515151581526020018367ffffffffffffffff1667ffffffffffffffff1681526020018267ffffffffffffffff1667ffffffffffffffff168152602001935050505060405180910390f35b6104c86004803603604081101561041157600080fd5b810190808035906020019064010000000081111561042e57600080fd5b82018360208201111561044057600080fd5b8035906020019184600183028401116401000000008311171561046257600080fd5b91908080601f016020809104026020016040519081016040528093929190818152602001838380828437600081840152601f19601f820116905080830192505050505050509192919290803567ffffffffffffffff1690602001909291905050506107ee565b604051808367ffffffffffffffff1667ffffffffffffffff1681526020018267ffffffffffffffff1667ffffffffffffffff1681526020019250505060405180910390f35b60405180604001604052808367ffffffffffffffff1681526020018267ffffffffffffffff1681525060018585604051808383808284378083019250505092505050908152602001604051809103902060008467ffffffffffffffff1667ffffffffffffffff16815260200190815260200160002060008201518160000160006101000a81548167ffffffffffffffff021916908367ffffffffffffffff16021790555060208201518160000160086101000a81548167ffffffffffffffff021916908367ffffffffffffffff16021790555090505060008484604051808383808284378083019250505092505050908152602001604051809103902060009054906101000a900467ffffffffffffffff1667ffffffffffffffff168267ffffffffffffffff161115610689578160008585604051808383808284378083019250505092505050908152602001604051809103902060006101000a81548167ffffffffffffffff021916908367ffffffffffffffff1602179055505b50505050565b600182805160208101820180518482526020830160208501208183528095505050505050602052806000526040600020600091509150508060000160009054906101000a900467ffffffffffffffff16908060000160089054906101000a900467ffffffffffffffff16905082565b6000818051602081018201805184825260208301602085012081835280955050505050506000915054906101000a900467ffffffffffffffff1681565b60008060006107c7846000866040518082805190602001908083835b6020831061077a5780518252602082019150602081019050602083039250610757565b6001836020036101000a038019825116818451168082178552505050505050905001915050908152602001604051809103902060009054906101000a900467ffffffffffffffff166107ee565b809250819350505060008167ffffffffffffffff1611156107e757600192505b9193909250565b60008060006001856040518082805190602001908083835b602083106108295780518252602082019150602081019050602083039250610806565b6001836020036101000a038019825116818451168082178552505050505050905001915050908152602001604051809103902060008567ffffffffffffffff1667ffffffffffffffff16815260200190815260200160002090508060000160089054906101000a900467ffffffffffffffff168160000160009054906101000a900467ffffffffffffffff169250925050925092905056fea165627a7a72305820d175794d447212acfa71a2d1d9ce1e3a0e58364a0db820f1cf9697e36f1b53ef0029",
  "source": "pragma solidity ^0.5.0;\r\n\r\ncontract OpenOracleOnChainImplementation{\r\n\r\n    struct Datum {\r\n        uint64 timestamp;\r\n        uint64 value;\r\n    }\r\n\r\n    mapping(string => uint64) public currentTime;\r\n    mapping(string => mapping(uint64 => Datum)) public priceData;\r\n\r\n\t //_didGet,_value,_timestampRetrieved\r\n\tfunction getCurrentValue(string memory _symbol) public returns(bool _didGet,uint64 _value,uint64 _time){\r\n\t\t(_value,_time) = getValue(_symbol,currentTime[_symbol]);\r\n\t\tif(_time > 0){\r\n\t\t\t_didGet = true;\r\n\t\t}\r\n\t} //_didGet,_value,_timestampRetrieved\r\n\r\n\tfunction setValue(string calldata _symbol, uint64 _time, uint64 _value) external{\r\n\t\t\tpriceData[_symbol][_time] = Datum({\r\n\t\t\t\tvalue: _value,\r\n\t\t\t\ttimestamp: _time\r\n            });\r\n            if(_time > currentTime[_symbol]){\r\n            \tcurrentTime[_symbol] = _time;\r\n            }\r\n\t}\r\n\r\n\tfunction getValue(string memory _symbol, uint64 _timestamp)public view returns(uint64,uint64){\r\n\t\tDatum storage thisVal = priceData[_symbol][_timestamp];\r\n\t\treturn (thisVal.value,thisVal.timestamp);\r\n\t}\r\n}",
  "sourcePath": "C:/company/code/open-oracle/contracts/OpenOracleOnChainImplementation.sol",
  "compiler": {
    "name": "solc",
    "version": "0.5.8+commit.23d335f2.Emscripten.clang"
  },
  "schemaVersion": "3.0.16",
  "updatedAt": "2019-10-03T20:10:33.198Z",
  "devdoc": {
    "methods": {}
  },
  "userdoc": {
    "methods": {}
  }
}