{
  "contractName": "OpenOraclePriceData",
  "abi": [
    {
      "constant": true,
      "inputs": [
        {
          "name": "message",
          "type": "bytes"
        },
        {
          "name": "signature",
          "type": "bytes"
        }
      ],
      "name": "source",
      "outputs": [
        {
          "name": "",
          "type": "address"
        }
      ],
      "payable": false,
      "stateMutability": "pure",
      "type": "function"
    },
    {
      "anonymous": false,
      "inputs": [
        {
          "indexed": true,
          "name": "source",
          "type": "address"
        },
        {
          "indexed": false,
          "name": "key",
          "type": "string"
        },
        {
          "indexed": false,
          "name": "timestamp",
          "type": "uint64"
        },
        {
          "indexed": false,
          "name": "value",
          "type": "uint64"
        }
      ],
      "name": "Write",
      "type": "event"
    },
    {
      "constant": false,
      "inputs": [
        {
          "name": "message",
          "type": "bytes"
        },
        {
          "name": "signature",
          "type": "bytes"
        }
      ],
      "name": "put",
      "outputs": [
        {
          "name": "",
          "type": "string"
        }
      ],
      "payable": false,
      "stateMutability": "nonpayable",
      "type": "function"
    },
    {
      "constant": true,
      "inputs": [
        {
          "name": "source",
          "type": "address"
        },
        {
          "name": "key",
          "type": "string"
        }
      ],
      "name": "get",
      "outputs": [
        {
          "name": "",
          "type": "uint64"
        },
        {
          "name": "",
          "type": "uint64"
        }
      ],
      "payable": false,
      "stateMutability": "view",
      "type": "function"
    },
    {
      "constant": true,
      "inputs": [
        {
          "name": "source",
          "type": "address"
        },
        {
          "name": "key",
          "type": "string"
        }
      ],
      "name": "getPrice",
      "outputs": [
        {
          "name": "",
          "type": "uint64"
        }
      ],
      "payable": false,
      "stateMutability": "view",
      "type": "function"
    }
  ],
  "bytecode": "0x608060405234801561001057600080fd5b50610ed5806100206000396000f3fe608060405234801561001057600080fd5b506004361061004c5760003560e01c806338636e9a14610051578063482a61931461008157806376977a3a146100b1578063fc2525ab146100e1575b600080fd5b61006b60048036036100669190810190610834565b610112565b6040516100789190610c15565b60405180910390f35b61009b600480360361009691908101906108a9565b61042f565b6040516100a89190610bb5565b60405180910390f35b6100cb60048036036100c6919081019061078d565b6104dc565b6040516100d89190610c95565b60405180910390f35b6100fb60048036036100f6919081019061078d565b61055b565b604051610109929190610cb0565b60405180910390f35b606060006101a886868080601f016020809104026020016040519081016040528093929190818152602001838380828437600081840152601f19601f8201169050808301925050505050505085858080601f016020809104026020016040519081016040528093929190818152602001838380828437600081840152601f19601f8201169050808301925050505050505061042f565b9050606060006060600089896101c19190810190610915565b93509350935093506040516020016101d890610ba0565b60405160208183030381529060405280519060200120846040516020016101ff9190610b63565b6040516020818303038152906040528051906020012014610255576040517f08c379a000000000000000000000000000000000000000000000000000000000815260040161024c90610c75565b60405180910390fd5b60008060008773ffffffffffffffffffffffffffffffffffffffff1673ffffffffffffffffffffffffffffffffffffffff168152602001908152602001600020836040516102a39190610b63565b908152602001604051809103902090508367ffffffffffffffff168160000160009054906101000a900467ffffffffffffffff1667ffffffffffffffff16101561041e5760405180604001604052808567ffffffffffffffff1681526020018367ffffffffffffffff168152506000808873ffffffffffffffffffffffffffffffffffffffff1673ffffffffffffffffffffffffffffffffffffffff1681526020019081526020016000208460405161035c9190610b63565b908152602001604051809103902060008201518160000160006101000a81548167ffffffffffffffff021916908367ffffffffffffffff16021790555060208201518160000160086101000a81548167ffffffffffffffff021916908367ffffffffffffffff1602179055509050508573ffffffffffffffffffffffffffffffffffffffff167f4d3f5aa96531b83f5389343ecd20cd8ac1fba33b64634c1b547a4d85d31540d384868560405161041593929190610c37565b60405180910390a25b829650505050505050949350505050565b6000806000808480602001905161044991908101906107e5565b925092509250600086805190602001206040516020016104699190610b7a565b604051602081830303815290604052805190602001209050600181838686604051600081526020016040526040516104a49493929190610bd0565b6020604051602081039080840390855afa1580156104c6573d6000803e3d6000fd5b5050506020604051035194505050505092915050565b60008060008573ffffffffffffffffffffffffffffffffffffffff1673ffffffffffffffffffffffffffffffffffffffff168152602001908152602001600020838360405161052c929190610b4a565b908152602001604051809103902060000160089054906101000a900467ffffffffffffffff1690509392505050565b60008060008060008773ffffffffffffffffffffffffffffffffffffffff1673ffffffffffffffffffffffffffffffffffffffff16815260200190815260200160002085856040516105ae929190610b4a565b908152602001604051809103902090508060000160009054906101000a900467ffffffffffffffff168160000160089054906101000a900467ffffffffffffffff169250925050935093915050565b60008135905061060c81610e3f565b92915050565b60008151905061062181610e56565b92915050565b60008083601f84011261063957600080fd5b8235905067ffffffffffffffff81111561065257600080fd5b60208301915083600182028301111561066a57600080fd5b9250929050565b600082601f83011261068257600080fd5b813561069561069082610d06565b610cd9565b915080825260208301602083018583830111156106b157600080fd5b6106bc838284610de2565b50505092915050565b60008083601f8401126106d757600080fd5b8235905067ffffffffffffffff8111156106f057600080fd5b60208301915083600182028301111561070857600080fd5b9250929050565b600082601f83011261072057600080fd5b813561073361072e82610d32565b610cd9565b9150808252602083016020830185838301111561074f57600080fd5b61075a838284610de2565b50505092915050565b60008135905061077281610e6d565b92915050565b60008151905061078781610e84565b92915050565b6000806000604084860312156107a257600080fd5b60006107b0868287016105fd565b935050602084013567ffffffffffffffff8111156107cd57600080fd5b6107d9868287016106c5565b92509250509250925092565b6000806000606084860312156107fa57600080fd5b600061080886828701610612565b935050602061081986828701610612565b925050604061082a86828701610778565b9150509250925092565b6000806000806040858703121561084a57600080fd5b600085013567ffffffffffffffff81111561086457600080fd5b61087087828801610627565b9450945050602085013567ffffffffffffffff81111561088f57600080fd5b61089b87828801610627565b925092505092959194509250565b600080604083850312156108bc57600080fd5b600083013567ffffffffffffffff8111156108d657600080fd5b6108e285828601610671565b925050602083013567ffffffffffffffff8111156108ff57600080fd5b61090b85828601610671565b9150509250929050565b6000806000806080858703121561092b57600080fd5b600085013567ffffffffffffffff81111561094557600080fd5b6109518782880161070f565b945050602061096287828801610763565b935050604085013567ffffffffffffffff81111561097f57600080fd5b61098b8782880161070f565b925050606061099c87828801610763565b91505092959194509250565b6109b181610d85565b82525050565b6109c081610d97565b82525050565b6109d76109d282610d97565b610e24565b82525050565b60006109e98385610d7a565b93506109f6838584610de2565b82840190509392505050565b6000610a0d82610d5e565b610a178185610d69565b9350610a27818560208601610df1565b610a3081610e2e565b840191505092915050565b6000610a4682610d5e565b610a508185610d7a565b9350610a60818560208601610df1565b80840191505092915050565b6000610a79601c83610d7a565b91507f19457468657265756d205369676e6564204d6573736167653a0a3332000000006000830152601c82019050919050565b6000610ab9601d83610d69565b91507f4b696e64206f662064617461206d7573742062652027707269636573270000006000830152602082019050919050565b6000610af9600683610d7a565b91507f70726963657300000000000000000000000000000000000000000000000000006000830152600682019050919050565b610b3581610dc1565b82525050565b610b4481610dd5565b82525050565b6000610b578284866109dd565b91508190509392505050565b6000610b6f8284610a3b565b915081905092915050565b6000610b8582610a6c565b9150610b9182846109c6565b60208201915081905092915050565b6000610bab82610aec565b9150819050919050565b6000602082019050610bca60008301846109a8565b92915050565b6000608082019050610be560008301876109b7565b610bf26020830186610b3b565b610bff60408301856109b7565b610c0c60608301846109b7565b95945050505050565b60006020820190508181036000830152610c2f8184610a02565b905092915050565b60006060820190508181036000830152610c518186610a02565b9050610c606020830185610b2c565b610c6d6040830184610b2c565b949350505050565b60006020820190508181036000830152610c8e81610aac565b9050919050565b6000602082019050610caa6000830184610b2c565b92915050565b6000604082019050610cc56000830185610b2c565b610cd26020830184610b2c565b9392505050565b6000604051905081810181811067ffffffffffffffff82111715610cfc57600080fd5b8060405250919050565b600067ffffffffffffffff821115610d1d57600080fd5b601f19601f8301169050602081019050919050565b600067ffffffffffffffff821115610d4957600080fd5b601f19601f8301169050602081019050919050565b600081519050919050565b600082825260208201905092915050565b600081905092915050565b6000610d9082610da1565b9050919050565b6000819050919050565b600073ffffffffffffffffffffffffffffffffffffffff82169050919050565b600067ffffffffffffffff82169050919050565b600060ff82169050919050565b82818337600083830152505050565b60005b83811015610e0f578082015181840152602081019050610df4565b83811115610e1e576000848401525b50505050565b6000819050919050565b6000601f19601f8301169050919050565b610e4881610d85565b8114610e5357600080fd5b50565b610e5f81610d97565b8114610e6a57600080fd5b50565b610e7681610dc1565b8114610e8157600080fd5b50565b610e8d81610dd5565b8114610e9857600080fd5b5056fea265627a7a72305820723350c72da646505c4cf9bb19e064db2c7ecf8b5d34ffcf15f27ae6673763646c6578706572696d656e74616cf50037",
  "source": "pragma solidity ^0.5.0;\r\npragma experimental ABIEncoderV2;\r\n\r\nimport \"./OpenOracleData.sol\";\r\n\r\n/**\r\n * @title The Open Oracle Price Data Contract\r\n * @notice Values stored in this contract should represent a USD price with 6 decimals precision\r\n * @author Compound Labs, Inc.\r\n */\r\ncontract OpenOraclePriceData is OpenOracleData {\r\n    /**\r\n     * @notice The event emitted when a source writes to its storage\r\n     */\r\n    event Write(address indexed source, string key, uint64 timestamp, uint64 value);\r\n\r\n    /**\r\n     * @notice The fundamental unit of storage for a reporter source\r\n     */\r\n    struct Datum {\r\n        uint64 timestamp;\r\n        uint64 value;\r\n    }\r\n\r\n    /**\r\n     * @notice The most recent authenticated data from all sources\r\n     * @dev This is private because dynamic mapping keys preclude auto-generated getters.\r\n     */\r\n    mapping(address => mapping(string => Datum)) private data;\r\n\r\n    /**\r\n     * @notice Write a bunch of signed datum to the authenticated storage mapping\r\n     * @param message The payload containing the timestamp, and (key, value) pairs\r\n     * @param signature The cryptographic signature of the message payload, authorizing the source to write\r\n     * @return The keys that were written\r\n     */\r\n    function put(bytes calldata message, bytes calldata signature) external returns (string memory) {\r\n        // Recover the source address\r\n        address source = source(message, signature);\r\n\r\n        // Decode the message and check the kind\r\n        (string memory kind, uint64 timestamp, string memory key, uint64 value) = abi.decode(message, (string, uint64, string, uint64));\r\n        require(keccak256(abi.encodePacked(kind)) == keccak256(abi.encodePacked(\"prices\")), \"Kind of data must be 'prices'\");\r\n\r\n        // Only update if newer than stored, according to source\r\n        Datum storage prior = data[source][key];\r\n        if (prior.timestamp < timestamp) {\r\n            data[source][key] = Datum(timestamp, value);\r\n            emit Write(source, key, timestamp, value);\r\n        }\r\n        return key;\r\n    }\r\n\r\n    /**\r\n     * @notice Read a single key from an authenticated source\r\n     * @param source The verifiable author of the data\r\n     * @param key The selector for the value to return\r\n     * @return The claimed Unix timestamp for the data and the price value (defaults to (0, 0))\r\n     */\r\n    function get(address source, string calldata key) external view returns (uint64, uint64) {\r\n        Datum storage datum = data[source][key];\r\n        return (datum.timestamp, datum.value);\r\n    }\r\n\r\n    /**\r\n     * @notice Read only the value for a single key from an authenticated source\r\n     * @param source The verifiable author of the data\r\n     * @param key The selector for the value to return\r\n     * @return The price value (defaults to 0)\r\n     */\r\n    function getPrice(address source, string calldata key) external view returns (uint64) {\r\n        return data[source][key].value;\r\n    }\r\n}\r\n",
  "sourcePath": "C:\\company\\code\\open-oracle\\contracts\\OpenOraclePriceData.sol",
  "compiler": {
    "name": "solc",
    "version": "0.5.8+commit.23d335f2.Emscripten.clang"
  },
  "schemaVersion": "3.0.16",
  "updatedAt": "2019-10-03T17:39:31.626Z",
  "devdoc": {
    "author": "Compound Labs, Inc.\r",
    "methods": {
      "get(address,string)": {
        "params": {
          "key": "The selector for the value to return\r",
          "source": "The verifiable author of the data\r"
        },
        "return": "The claimed Unix timestamp for the data and the price value (defaults to (0, 0))\r"
      },
      "getPrice(address,string)": {
        "params": {
          "key": "The selector for the value to return\r",
          "source": "The verifiable author of the data\r"
        },
        "return": "The price value (defaults to 0)\r"
      },
      "put(bytes,bytes)": {
        "params": {
          "message": "The payload containing the timestamp, and (key, value) pairs\r",
          "signature": "The cryptographic signature of the message payload, authorizing the source to write\r"
        },
        "return": "The keys that were written\r"
      },
      "source(bytes,bytes)": {
        "details": "Comparing to a claimed address would add nothing,\r as the caller could simply perform the recover and claim that address.\r",
        "params": {
          "message": "The data that was presumably signed\r",
          "signature": "The fingerprint of the data + private key\r"
        },
        "return": "The source address which signed the message, presumably\r"
      }
    },
    "title": "The Open Oracle Price Data Contract\r"
  },
  "userdoc": {
    "methods": {
      "get(address,string)": {
        "notice": "Read a single key from an authenticated source\r"
      },
      "getPrice(address,string)": {
        "notice": "Read only the value for a single key from an authenticated source\r"
      },
      "put(bytes,bytes)": {
        "notice": "Write a bunch of signed datum to the authenticated storage mapping\r"
      },
      "source(bytes,bytes)": {
        "notice": "Recovers the source address which signed a message\r"
      }
    },
    "notice": "Values stored in this contract should represent a USD price with 6 decimals precision\r"
  }
}