{
  "contractName": "OpenOracleData",
  "abi": [
    {
      "constant": true,
      "inputs": [
        {
          "name": "message",
          "type": "bytes"
        },
        {
          "name": "signature",
          "type": "bytes"
        }
      ],
      "name": "source",
      "outputs": [
        {
          "name": "",
          "type": "address"
        }
      ],
      "payable": false,
      "stateMutability": "pure",
      "type": "function"
    }
  ],
  "bytecode": "0x608060405234801561001057600080fd5b5061047e806100206000396000f3fe608060405234801561001057600080fd5b506004361061002b5760003560e01c8063482a619314610030575b600080fd5b61004a600480360361004591908101906101da565b610060565b60405161005791906102f0565b60405180910390f35b6000806000808480602001905161007a919081019061018b565b9250925092506000868051906020012060405160200161009a91906102ca565b604051602081830303815290604052805190602001209050600181838686604051600081526020016040526040516100d5949392919061030b565b6020604051602081039080840390855afa1580156100f7573d6000803e3d6000fd5b5050506020604051035194505050505092915050565b60008151905061011c81610416565b92915050565b600082601f83011261013357600080fd5b81356101466101418261037d565b610350565b9150808252602083016020830185838301111561016257600080fd5b61016d8382846103fd565b50505092915050565b6000815190506101858161042d565b92915050565b6000806000606084860312156101a057600080fd5b60006101ae8682870161010d565b93505060206101bf8682870161010d565b92505060406101d086828701610176565b9150509250925092565b600080604083850312156101ed57600080fd5b600083013567ffffffffffffffff81111561020757600080fd5b61021385828601610122565b925050602083013567ffffffffffffffff81111561023057600080fd5b61023c85828601610122565b9150509250929050565b61024f816103b4565b82525050565b61025e816103c6565b82525050565b610275610270826103c6565b61040c565b82525050565b6000610288601c836103a9565b91507f19457468657265756d205369676e6564204d6573736167653a0a3332000000006000830152601c82019050919050565b6102c4816103f0565b82525050565b60006102d58261027b565b91506102e18284610264565b60208201915081905092915050565b60006020820190506103056000830184610246565b92915050565b60006080820190506103206000830187610255565b61032d60208301866102bb565b61033a6040830185610255565b6103476060830184610255565b95945050505050565b6000604051905081810181811067ffffffffffffffff8211171561037357600080fd5b8060405250919050565b600067ffffffffffffffff82111561039457600080fd5b601f19601f8301169050602081019050919050565b600081905092915050565b60006103bf826103d0565b9050919050565b6000819050919050565b600073ffffffffffffffffffffffffffffffffffffffff82169050919050565b600060ff82169050919050565b82818337600083830152505050565b6000819050919050565b61041f816103c6565b811461042a57600080fd5b50565b610436816103f0565b811461044157600080fd5b5056fea265627a7a72305820ea78a9ef99d46bebde50b78f7cd43e49ad85aba1fdc5a9f53497adeaefd0c18a6c6578706572696d656e74616cf50037",
  "source": "pragma solidity ^0.5.0;\r\npragma experimental ABIEncoderV2;\r\n\r\n/**\r\n * @title The Open Oracle Data Base Contract\r\n * @author Compound Labs, Inc.\r\n */\r\ncontract OpenOracleData {\r\n    /**\r\n     * @notice The event emitted when a source writes to its storage\r\n     */\r\n    //event Write(address indexed source, <Key> indexed key, string kind, uint64 timestamp, <Value> value);\r\n\r\n    /**\r\n     * @notice Write a bunch of signed datum to the authenticated storage mapping\r\n     * @param message The payload containing the timestamp, and (key, value) pairs\r\n     * @param signature The cryptographic signature of the message payload, authorizing the source to write\r\n     * @return The keys that were written\r\n     */\r\n    //function put(bytes calldata message, bytes calldata signature) external returns (<Key> memory);\r\n\r\n    /**\r\n     * @notice Read a single key with a pre-defined type signature from an authenticated source\r\n     * @param source The verifiable author of the data\r\n     * @param key The selector for the value to return\r\n     * @return The claimed Unix timestamp for the data and the encoded value (defaults to (0, 0x))\r\n     */\r\n    //function get(address source, <Key> key) external view returns (uint, <Value>);\r\n\r\n    /**\r\n     * @notice Recovers the source address which signed a message\r\n     * @dev Comparing to a claimed address would add nothing,\r\n     *  as the caller could simply perform the recover and claim that address.\r\n     * @param message The data that was presumably signed\r\n     * @param signature The fingerprint of the data + private key\r\n     * @return The source address which signed the message, presumably\r\n     */\r\n    function source(bytes memory message, bytes memory signature) public pure returns (address) {\r\n        (bytes32 r, bytes32 s, uint8 v) = abi.decode(signature, (bytes32, bytes32, uint8));\r\n        bytes32 hash = keccak256(abi.encodePacked(\"\\x19Ethereum Signed Message:\\n32\", keccak256(message)));\r\n        return ecrecover(hash, v, r, s);\r\n    }\r\n}\r\n",
  "sourcePath": "C:\\company\\code\\open-oracle\\contracts\\OpenOracleData.sol",
  "compiler": {
    "name": "solc",
    "version": "0.5.8+commit.23d335f2.Emscripten.clang"
  },
  "schemaVersion": "3.0.16",
  "updatedAt": "2019-10-03T20:10:33.108Z",
  "devdoc": {
    "author": "Compound Labs, Inc.\r",
    "methods": {
      "source(bytes,bytes)": {
        "details": "Comparing to a claimed address would add nothing,\r as the caller could simply perform the recover and claim that address.\r",
        "params": {
          "message": "The data that was presumably signed\r",
          "signature": "The fingerprint of the data + private key\r"
        },
        "return": "The source address which signed the message, presumably\r"
      }
    },
    "title": "The Open Oracle Data Base Contract\r"
  },
  "userdoc": {
    "methods": {
      "source(bytes,bytes)": {
        "notice": "Recovers the source address which signed a message\r"
      }
    }
  }
}