{
  "contractName": "OpenOracleView",
  "abi": [
    {
      "constant": true,
      "inputs": [],
      "name": "data",
      "outputs": [
        {
          "name": "",
          "type": "address"
        }
      ],
      "payable": false,
      "stateMutability": "view",
      "type": "function"
    },
    {
      "constant": true,
      "inputs": [
        {
          "name": "",
          "type": "uint256"
        }
      ],
      "name": "sources",
      "outputs": [
        {
          "name": "",
          "type": "address"
        }
      ],
      "payable": false,
      "stateMutability": "view",
      "type": "function"
    },
    {
      "inputs": [
        {
          "name": "data_",
          "type": "address"
        },
        {
          "name": "sources_",
          "type": "address[]"
        }
      ],
      "payable": false,
      "stateMutability": "nonpayable",
      "type": "constructor"
    }
  ],
  "bytecode": "0x608060405234801561001057600080fd5b506040516105613803806105618339810180604052610032919081019061020a565b816000806101000a81548173ffffffffffffffffffffffffffffffffffffffff021916908373ffffffffffffffffffffffffffffffffffffffff1602179055508060019080519060200190610088929190610090565b505050610325565b828054828255906000526020600020908101928215610109579160200282015b828111156101085782518260006101000a81548173ffffffffffffffffffffffffffffffffffffffff021916908373ffffffffffffffffffffffffffffffffffffffff160217905550916020019190600101906100b0565b5b509050610116919061011a565b5090565b61015a91905b8082111561015657600081816101000a81549073ffffffffffffffffffffffffffffffffffffffff021916905550600101610120565b5090565b90565b60008151905061016c816102f7565b92915050565b600082601f83011261018357600080fd5b81516101966101918261028b565b61025e565b915081818352602084019350602081019050838560208402820111156101bb57600080fd5b60005b838110156101eb57816101d1888261015d565b8452602084019350602083019250506001810190506101be565b5050505092915050565b6000815190506102048161030e565b92915050565b6000806040838503121561021d57600080fd5b600061022b858286016101f5565b925050602083015167ffffffffffffffff81111561024857600080fd5b61025485828601610172565b9150509250929050565b6000604051905081810181811067ffffffffffffffff8211171561028157600080fd5b8060405250919050565b600067ffffffffffffffff8211156102a257600080fd5b602082029050602081019050919050565b60006102be826102d7565b9050919050565b60006102d0826102b3565b9050919050565b600073ffffffffffffffffffffffffffffffffffffffff82169050919050565b610300816102b3565b811461030b57600080fd5b50565b610317816102c5565b811461032257600080fd5b50565b61022d806103346000396000f3fe608060405234801561001057600080fd5b50600436106100365760003560e01c806373d4a13a1461003b578063a3663d3714610059575b600080fd5b610043610089565b6040516100509190610161565b60405180910390f35b610073600480360361006e91908101906100ff565b6100ae565b6040516100809190610146565b60405180910390f35b6000809054906101000a900473ffffffffffffffffffffffffffffffffffffffff1681565b600181815481106100bb57fe5b906000526020600020016000915054906101000a900473ffffffffffffffffffffffffffffffffffffffff1681565b6000813590506100f9816101dc565b92915050565b60006020828403121561011157600080fd5b600061011f848285016100ea565b91505092915050565b6101318161017c565b82525050565b610140816101b8565b82525050565b600060208201905061015b6000830184610128565b92915050565b60006020820190506101766000830184610137565b92915050565b60006101878261018e565b9050919050565b600073ffffffffffffffffffffffffffffffffffffffff82169050919050565b6000819050919050565b60006101c3826101ca565b9050919050565b60006101d58261018e565b9050919050565b6101e5816101ae565b81146101f057600080fd5b5056fea265627a7a72305820ba4df0b08a15808e4ca82f2f1db2b8aa24b2083fcefd87c4c424b9e961c1d1ec6c6578706572696d656e74616cf50037",
  "source": "pragma solidity ^0.5.0;\r\npragma experimental ABIEncoderV2;\r\n\r\nimport \"./OpenOracleData.sol\";\r\n\r\n/**\r\n * @title The Open Oracle View Base Contract\r\n * @author Compound Labs, Inc.\r\n */\r\ncontract OpenOracleView {\r\n    /**\r\n     * @notice The Oracle Data Contract backing this View\r\n     */\r\n    OpenOracleData public data;\r\n\r\n    /**\r\n     * @notice The static list of sources used by this View\r\n     * @dev Note that while it is possible to create a view with dynamic sources,\r\n     *  that would not conform to the Open Oracle Standard specification.\r\n     */\r\n    address[] public sources;\r\n\r\n    /**\r\n     * @notice Construct a view given the oracle backing address and the list of sources\r\n     * @dev According to the protocol, Views must be immutable to be considered conforming.\r\n     * @param data_ The address of the oracle data contract which is backing the view\r\n     * @param sources_ The list of source addresses to include in the aggregate value\r\n     */\r\n    constructor(OpenOracleData data_, address[] memory sources_) public {\r\n        data = data_;\r\n        sources = sources_;\r\n    }\r\n}\r\n",
  "sourcePath": "C:\\company\\code\\open-oracle\\contracts\\OpenOracleView.sol",
  "compiler": {
    "name": "solc",
    "version": "0.5.8+commit.23d335f2.Emscripten.clang"
  },
  "schemaVersion": "3.0.16",
  "updatedAt": "2019-09-23T17:26:54.721Z",
  "devdoc": {
    "author": "Compound Labs, Inc.\r",
    "methods": {
      "constructor": {
        "details": "According to the protocol, Views must be immutable to be considered conforming.\r",
        "params": {
          "data_": "The address of the oracle data contract which is backing the view\r",
          "sources_": "The list of source addresses to include in the aggregate value\r"
        }
      }
    },
    "title": "The Open Oracle View Base Contract\r"
  },
  "userdoc": {
    "methods": {
      "constructor": "Construct a view given the oracle backing address and the list of sources\r"
    }
  }
}