{
  "contractName": "Optimistic",
  "abi": [
    {
      "constant": true,
      "inputs": [
        {
          "name": "",
          "type": "uint256"
        }
      ],
      "name": "isValue",
      "outputs": [
        {
          "name": "",
          "type": "bool"
        }
      ],
      "payable": false,
      "stateMutability": "view",
      "type": "function"
    },
    {
      "constant": true,
      "inputs": [
        {
          "name": "",
          "type": "uint256"
        }
      ],
      "name": "disputedValues",
      "outputs": [
        {
          "name": "",
          "type": "bool"
        }
      ],
      "payable": false,
      "stateMutability": "view",
      "type": "function"
    },
    {
      "constant": false,
      "inputs": [
        {
          "name": "_request",
          "type": "string"
        },
        {
          "name": "_symbol",
          "type": "string"
        },
        {
          "name": "_granularity",
          "type": "uint256"
        },
        {
          "name": "_tip",
          "type": "uint256"
        }
      ],
      "name": "requestData",
      "outputs": [],
      "payable": false,
      "stateMutability": "nonpayable",
      "type": "function"
    },
    {
      "constant": false,
      "inputs": [
        {
          "name": "_request",
          "type": "string"
        },
        {
          "name": "_symbol",
          "type": "string"
        },
        {
          "name": "_granularity",
          "type": "uint256"
        },
        {
          "name": "_tip",
          "type": "uint256"
        }
      ],
      "name": "requestDataWithEther",
      "outputs": [],
      "payable": true,
      "stateMutability": "payable",
      "type": "function"
    },
    {
      "constant": true,
      "inputs": [
        {
          "name": "",
          "type": "uint256"
        },
        {
          "name": "",
          "type": "uint256"
        }
      ],
      "name": "requestIdsIncluded",
      "outputs": [
        {
          "name": "",
          "type": "uint256"
        }
      ],
      "payable": false,
      "stateMutability": "view",
      "type": "function"
    },
    {
      "constant": true,
      "inputs": [],
      "name": "granularity",
      "outputs": [
        {
          "name": "",
          "type": "uint256"
        }
      ],
      "payable": false,
      "stateMutability": "view",
      "type": "function"
    },
    {
      "constant": true,
      "inputs": [],
      "name": "disputePeriod",
      "outputs": [
        {
          "name": "",
          "type": "uint256"
        }
      ],
      "payable": false,
      "stateMutability": "view",
      "type": "function"
    },
    {
      "constant": true,
      "inputs": [
        {
          "name": "_requestId",
          "type": "uint256"
        },
        {
          "name": "_timestamp",
          "type": "uint256"
        }
      ],
      "name": "getFirstVerifiedDataAfter",
      "outputs": [
        {
          "name": "",
          "type": "bool"
        },
        {
          "name": "",
          "type": "uint256"
        },
        {
          "name": "_timestampRetrieved",
          "type": "uint256"
        }
      ],
      "payable": false,
      "stateMutability": "view",
      "type": "function"
    },
    {
      "constant": false,
      "inputs": [
        {
          "name": "_requestId",
          "type": "uint256"
        },
        {
          "name": "_tip",
          "type": "uint256"
        }
      ],
      "name": "addTip",
      "outputs": [],
      "payable": false,
      "stateMutability": "nonpayable",
      "type": "function"
    },
    {
      "constant": true,
      "inputs": [],
      "name": "owner",
      "outputs": [
        {
          "name": "",
          "type": "address"
        }
      ],
      "payable": false,
      "stateMutability": "view",
      "type": "function"
    },
    {
      "constant": false,
      "inputs": [
        {
          "name": "_userContract",
          "type": "address"
        }
      ],
      "name": "setUserContract",
      "outputs": [],
      "payable": false,
      "stateMutability": "nonpayable",
      "type": "function"
    },
    {
      "constant": true,
      "inputs": [],
      "name": "disputeFee",
      "outputs": [
        {
          "name": "",
          "type": "uint256"
        }
      ],
      "payable": false,
      "stateMutability": "view",
      "type": "function"
    },
    {
      "constant": true,
      "inputs": [
        {
          "name": "_requestId",
          "type": "uint256"
        },
        {
          "name": "_timestamp",
          "type": "uint256"
        }
      ],
      "name": "getAnyDataAfter",
      "outputs": [
        {
          "name": "_ifRetrieve",
          "type": "bool"
        },
        {
          "name": "_value",
          "type": "uint256"
        },
        {
          "name": "_timestampRetrieved",
          "type": "uint256"
        }
      ],
      "payable": false,
      "stateMutability": "view",
      "type": "function"
    },
    {
      "constant": false,
      "inputs": [
        {
          "name": "_requestId",
          "type": "uint256"
        },
        {
          "name": "_tip",
          "type": "uint256"
        }
      ],
      "name": "addTipWithEther",
      "outputs": [],
      "payable": true,
      "stateMutability": "payable",
      "type": "function"
    },
    {
      "constant": false,
      "inputs": [
        {
          "name": "_newOwner",
          "type": "address"
        }
      ],
      "name": "transferOwnership",
      "outputs": [],
      "payable": false,
      "stateMutability": "nonpayable",
      "type": "function"
    },
    {
      "inputs": [
        {
          "name": "_userContract",
          "type": "address"
        },
        {
          "name": "_disputeFeeRequired",
          "type": "uint256"
        },
        {
          "name": "_disputePeriod",
          "type": "uint256"
        },
        {
          "name": "_requestIds",
          "type": "uint256[]"
        },
        {
          "name": "_granularity",
          "type": "uint256"
        }
      ],
      "payable": false,
      "stateMutability": "nonpayable",
      "type": "constructor"
    },
    {
      "anonymous": false,
      "inputs": [
        {
          "indexed": true,
          "name": "_timestamp",
          "type": "uint256"
        },
        {
          "indexed": false,
          "name": "_value",
          "type": "uint256"
        }
      ],
      "name": "NewValueSet",
      "type": "event"
    },
    {
      "anonymous": false,
      "inputs": [
        {
          "indexed": false,
          "name": "_disputer",
          "type": "address"
        },
        {
          "indexed": false,
          "name": "_timestamp",
          "type": "uint256"
        },
        {
          "indexed": false,
          "name": "_value",
          "type": "uint256"
        }
      ],
      "name": "ValueDisputed",
      "type": "event"
    },
    {
      "anonymous": false,
      "inputs": [
        {
          "indexed": false,
          "name": "_timestamp",
          "type": "uint256"
        },
        {
          "indexed": false,
          "name": "_value",
          "type": "uint256"
        }
      ],
      "name": "TellorValuePlaced",
      "type": "event"
    },
    {
      "anonymous": false,
      "inputs": [
        {
          "indexed": false,
          "name": "_previousOwner",
          "type": "address"
        },
        {
          "indexed": false,
          "name": "_newOwner",
          "type": "address"
        }
      ],
      "name": "OwnershipTransferred",
      "type": "event"
    },
    {
      "constant": false,
      "inputs": [
        {
          "name": "_timestamp",
          "type": "uint256"
        },
        {
          "name": "_value",
          "type": "uint256"
        }
      ],
      "name": "setValue",
      "outputs": [],
      "payable": false,
      "stateMutability": "nonpayable",
      "type": "function"
    },
    {
      "constant": false,
      "inputs": [
        {
          "name": "_timestamp",
          "type": "uint256"
        }
      ],
      "name": "disputeOptimisticValue",
      "outputs": [],
      "payable": true,
      "stateMutability": "payable",
      "type": "function"
    },
    {
      "constant": false,
      "inputs": [
        {
          "name": "_timestamp",
          "type": "uint256"
        }
      ],
      "name": "getTellorValues",
      "outputs": [
        {
          "name": "_value",
          "type": "uint256"
        },
        {
          "name": "_didGet",
          "type": "bool"
        }
      ],
      "payable": false,
      "stateMutability": "nonpayable",
      "type": "function"
    },
    {
      "constant": false,
      "inputs": [],
      "name": "withdrawETH",
      "outputs": [],
      "payable": false,
      "stateMutability": "nonpayable",
      "type": "function"
    },
    {
      "constant": true,
      "inputs": [
        {
          "name": "_timestamp",
          "type": "uint256"
        }
      ],
      "name": "getFirstUndisputedValueAfter",
      "outputs": [
        {
          "name": "",
          "type": "bool"
        },
        {
          "name": "",
          "type": "uint256"
        },
        {
          "name": "_timestampRetrieved",
          "type": "uint256"
        }
      ],
      "payable": false,
      "stateMutability": "view",
      "type": "function"
    },
    {
      "constant": true,
      "inputs": [
        {
          "name": "_timestamp",
          "type": "uint256"
        }
      ],
      "name": "getMyValuesByTimestamp",
      "outputs": [
        {
          "name": "value",
          "type": "uint256"
        }
      ],
      "payable": false,
      "stateMutability": "view",
      "type": "function"
    },
    {
      "constant": true,
      "inputs": [
        {
          "name": "_timestamp",
          "type": "uint256"
        }
      ],
      "name": "getNumberOfValuesPerTimestamp",
      "outputs": [
        {
          "name": "",
          "type": "uint256"
        }
      ],
      "payable": false,
      "stateMutability": "view",
      "type": "function"
    },
    {
      "constant": true,
      "inputs": [
        {
          "name": "_timestamp",
          "type": "uint256"
        }
      ],
      "name": "getIsValue",
      "outputs": [
        {
          "name": "",
          "type": "bool"
        }
      ],
      "payable": false,
      "stateMutability": "view",
      "type": "function"
    },
    {
      "constant": true,
      "inputs": [],
      "name": "getCurrentValue",
      "outputs": [
        {
          "name": "",
          "type": "uint256"
        }
      ],
      "payable": false,
      "stateMutability": "view",
      "type": "function"
    },
    {
      "constant": true,
      "inputs": [
        {
          "name": "_requestId",
          "type": "uint256"
        }
      ],
      "name": "getCurrentValue",
      "outputs": [
        {
          "name": "ifRetrieve",
          "type": "bool"
        },
        {
          "name": "value",
          "type": "uint256"
        },
        {
          "name": "_timestampRetrieved",
          "type": "uint256"
        }
      ],
      "payable": false,
      "stateMutability": "view",
      "type": "function"
    },
    {
      "constant": true,
      "inputs": [],
      "name": "getTimestamps",
      "outputs": [
        {
          "name": "",
          "type": "uint256[]"
        }
      ],
      "payable": false,
      "stateMutability": "view",
      "type": "function"
    },
    {
      "constant": true,
      "inputs": [],
      "name": "getRequestIds",
      "outputs": [
        {
          "name": "",
          "type": "uint256[]"
        }
      ],
      "payable": false,
      "stateMutability": "view",
      "type": "function"
    },
    {
      "constant": true,
      "inputs": [
        {
          "name": "_timestamp",
          "type": "uint256"
        }
      ],
      "name": "getRequestIdsIncluded",
      "outputs": [
        {
          "name": "",
          "type": "uint256[]"
        }
      ],
      "payable": false,
      "stateMutability": "view",
      "type": "function"
    },
    {
      "constant": true,
      "inputs": [],
      "name": "getNumberOfDisputedValues",
      "outputs": [
        {
          "name": "",
          "type": "uint256"
        }
      ],
      "payable": false,
      "stateMutability": "view",
      "type": "function"
    },
    {
      "constant": true,
      "inputs": [],
      "name": "getDisputedValues",
      "outputs": [
        {
          "name": "",
          "type": "uint256[]"
        }
      ],
      "payable": false,
      "stateMutability": "view",
      "type": "function"
    },
    {
      "constant": true,
      "inputs": [
        {
          "name": "_timestamp",
          "type": "uint256"
        }
      ],
      "name": "isDisputed",
      "outputs": [
        {
          "name": "",
          "type": "bool"
        }
      ],
      "payable": false,
      "stateMutability": "view",
      "type": "function"
    },
    {
      "constant": true,
      "inputs": [
        {
          "name": "_index",
          "type": "uint256"
        }
      ],
      "name": "getDisputedValueByIndex",
      "outputs": [
        {
          "name": "",
          "type": "uint256"
        }
      ],
      "payable": false,
      "stateMutability": "view",
      "type": "function"
    }
  ],
  "bytecode": "0x60806040523480156200001157600080fd5b50604051620026db380380620026db833981018060405260a08110156200003757600080fd5b8101908080519060200190929190805190602001909291908051906020019092919080516401000000008111156200006e57600080fd5b828101905060208101848111156200008557600080fd5b8151856020820283011164010000000082111715620000a357600080fd5b50509291906020018051906020019092919050505084806000806101000a81548173ffffffffffffffffffffffffffffffffffffffff021916908373ffffffffffffffffffffffffffffffffffffffff16021790555033600160006101000a81548173ffffffffffffffffffffffffffffffffffffffff021916908373ffffffffffffffffffffffffffffffffffffffff1602179055505083600a8190555082600b819055508060098190555081600790805190602001906200016892919062000174565b505050505050620001ee565b828054828255906000526020600020908101928215620001b3579160200282015b82811115620001b257825182559160200191906001019062000195565b5b509050620001c29190620001c6565b5090565b620001eb91905b80821115620001e7576000816000905550600101620001cd565b5090565b90565b6124dd80620001fe6000396000f3fe6080604052600436106101e35760003560e01c806371d8dd1911610102578063b63f210a11610095578063e086e5ec11610064578063e086e5ec14610bf9578063e631def714610c10578063e723e3b514610c5f578063f2fde38b14610c97576101e3565b8063b63f210a14610a67578063b9ce896b14610ad3578063d269a83c14610afe578063dc7ebf0e14610b69576101e3565b80638da5cb5b116100d15780638da5cb5b146109005780639a64f07014610957578063a1206d4e146109aa578063ac33a273146109fb576101e3565b806371d8dd19146107d4578063752d49a1146108235780637b8d56e3146108685780637ccc586e146108ad576101e3565b80634482e6f31161017a5780635bf31d4d116101495780635bf31d4d146106b25780635f059f3e146106dd578063681012e51461074857806369949a8614610773576101e3565b80634482e6f3146104e0578063550921d4146105c2578063556f0dc71461061b57806359abbfe414610646576101e3565b806336e9d632116101b657806336e9d632146102ea57806337ae9e431461033d5780633fcad964146103905780633fff2816146103f1576101e3565b8063062777ff146101e85780630f76c11414610242578063292b8cce1461026d5780632aa0bc1f1461029b575b600080fd5b3480156101f457600080fd5b506102216004803603602081101561020b57600080fd5b8101908080359060200190929190505050610ce8565b60405180838152602001821515151581526020019250505060405180910390f35b34801561024e57600080fd5b5061025761129f565b6040518082815260200191505060405180910390f35b6102996004803603602081101561028357600080fd5b81019080803590602001909291905050506112df565b005b3480156102a757600080fd5b506102d4600480360360208110156102be57600080fd5b8101908080359060200190929190505050611417565b6040518082815260200191505060405180910390f35b3480156102f657600080fd5b506103236004803603602081101561030d57600080fd5b8101908080359060200190929190505050611437565b604051808215151515815260200191505060405180910390f35b34801561034957600080fd5b506103766004803603602081101561036057600080fd5b8101908080359060200190929190505050611457565b604051808215151515815260200191505060405180910390f35b34801561039c57600080fd5b506103c9600480360360208110156103b357600080fd5b8101908080359060200190929190505050611477565b6040518084151515158152602001838152602001828152602001935050505060405180910390f35b3480156103fd57600080fd5b506104de6004803603608081101561041457600080fd5b810190808035906020019064010000000081111561043157600080fd5b82018360208201111561044357600080fd5b8035906020019184600183028401116401000000008311171561046557600080fd5b90919293919293908035906020019064010000000081111561048657600080fd5b82018360208201111561049857600080fd5b803590602001918460018302840111640100000000831117156104ba57600080fd5b9091929391929390803590602001909291908035906020019092919050505061154a565b005b6105c0600480360360808110156104f657600080fd5b810190808035906020019064010000000081111561051357600080fd5b82018360208201111561052557600080fd5b8035906020019184600183028401116401000000008311171561054757600080fd5b90919293919293908035906020019064010000000081111561056857600080fd5b82018360208201111561057a57600080fd5b8035906020019184600183028401116401000000008311171561059c57600080fd5b909192939192939080359060200190929190803590602001909291905050506117dd565b005b3480156105ce57600080fd5b50610605600480360360408110156105e557600080fd5b8101908080359060200190929190803590602001909291905050506118e2565b6040518082815260200191505060405180910390f35b34801561062757600080fd5b50610630611910565b6040518082815260200191505060405180910390f35b34801561065257600080fd5b5061065b611916565b6040518080602001828103825283818151815260200191508051906020019060200280838360005b8381101561069e578082015181840152602081019050610683565b505050509050019250505060405180910390f35b3480156106be57600080fd5b506106c761196e565b6040518082815260200191505060405180910390f35b3480156106e957600080fd5b506107206004803603604081101561070057600080fd5b810190808035906020019092919080359060200190929190505050611974565b6040518084151515158152602001838152602001828152602001935050505060405180910390f35b34801561075457600080fd5b5061075d611a4f565b6040518082815260200191505060405180910390f35b34801561077f57600080fd5b506107ac6004803603602081101561079657600080fd5b8101908080359060200190929190505050611a5c565b6040518084151515158152602001838152602001828152602001935050505060405180910390f35b3480156107e057600080fd5b5061080d600480360360208110156107f757600080fd5b8101908080359060200190929190505050611b58565b6040518082815260200191505060405180910390f35b34801561082f57600080fd5b506108666004803603604081101561084657600080fd5b810190808035906020019092919080359060200190929190505050611b79565b005b34801561087457600080fd5b506108ab6004803603604081101561088b57600080fd5b810190808035906020019092919080359060200190929190505050611d96565b005b3480156108b957600080fd5b506108e6600480360360208110156108d057600080fd5b8101908080359060200190929190505050611eb5565b604051808215151515815260200191505060405180910390f35b34801561090c57600080fd5b50610915611edf565b604051808273ffffffffffffffffffffffffffffffffffffffff1673ffffffffffffffffffffffffffffffffffffffff16815260200191505060405180910390f35b34801561096357600080fd5b506109906004803603602081101561097a57600080fd5b8101908080359060200190929190505050611f05565b604051808215151515815260200191505060405180910390f35b3480156109b657600080fd5b506109f9600480360360208110156109cd57600080fd5b81019080803573ffffffffffffffffffffffffffffffffffffffff169060200190929190505050611f2f565b005b348015610a0757600080fd5b50610a10611fcc565b6040518080602001828103825283818151815260200191508051906020019060200280838360005b83811015610a53578082015181840152602081019050610a38565b505050509050019250505060405180910390f35b348015610a7357600080fd5b50610a7c612024565b6040518080602001828103825283818151815260200191508051906020019060200280838360005b83811015610abf578082015181840152602081019050610aa4565b505050509050019250505060405180910390f35b348015610adf57600080fd5b50610ae861207c565b6040518082815260200191505060405180910390f35b348015610b0a57600080fd5b50610b4160048036036040811015610b2157600080fd5b810190808035906020019092919080359060200190929190505050612082565b6040518084151515158152602001838152602001828152602001935050505060405180910390f35b348015610b7557600080fd5b50610ba260048036036020811015610b8c57600080fd5b810190808035906020019092919050505061215d565b6040518080602001828103825283818151815260200191508051906020019060200280838360005b83811015610be5578082015181840152602081019050610bca565b505050509050019250505060405180910390f35b348015610c0557600080fd5b50610c0e6121c8565b005b348015610c1c57600080fd5b50610c4960048036036020811015610c3357600080fd5b81019080803590602001909291905050506122a4565b6040518082815260200191505060405180910390f35b610c9560048036036040811015610c7557600080fd5b8101908080359060200190929190803590602001909291905050506122c1565b005b348015610ca357600080fd5b50610ce660048036036020811015610cba57600080fd5b81019080803573ffffffffffffffffffffffffffffffffffffffff16906020019092919050505061235a565b005b60008060008060009054906101000a900473ffffffffffffffffffffffffffffffffffffffff1673ffffffffffffffffffffffffffffffffffffffff1663a80209736040518163ffffffff1660e01b815260040160206040518083038186803b158015610d5457600080fd5b505afa158015610d68573d6000803e3d6000fd5b505050506040513d6020811015610d7e57600080fd5b8101908080519060200190929190505050905060008060009054906101000a900473ffffffffffffffffffffffffffffffffffffffff1673ffffffffffffffffffffffffffffffffffffffff1663a80209736040518163ffffffff1660e01b815260040160206040518083038186803b158015610dfa57600080fd5b505afa158015610e0e573d6000803e3d6000fd5b505050506040513d6020811015610e2457600080fd5b810190808051906020019092919050505090506000808373ffffffffffffffffffffffffffffffffffffffff166370a08231306040518263ffffffff1660e01b8152600401808273ffffffffffffffffffffffffffffffffffffffff1673ffffffffffffffffffffffffffffffffffffffff16815260200191505060206040518083038186803b158015610eb757600080fd5b505afa158015610ecb573d6000803e3d6000fd5b505050506040513d6020811015610ee157600080fd5b810190808051906020019092919050505090506000600190505b600780549050811161129557610f118189611974565b80955081995082985050505085156111415760006009548481610f3057fe5b06840390506000600160056000848152602001908152602001600020805490500160056000848152602001908152602001600020805490506003600085815260200190815260200160002054028a0181610f8657fe5b0490508060036000848152602001908152602001600020819055507f11d6fa234e47ea0871bd2e6efeb4e7be326a7216c36990b799a61a501cfcf1c38282604051808381526020018281526020019250505060405180910390a160056000838152602001908152602001600020839080600181540180825580915050906001820390600052602060002001600090919290919091505550600015156002600084815260200190815260200160002060009054906101000a900460ff16151514156110df57600682908060018154018082558091505090600182039060005260206000200160009091929091909150555060016002600084815260200190815260200160002060006101000a81548160ff021916908315150217905550817f2afa03c814297ffc234ff967b6f0863d3c358be243103f20217c8d3a4d39f9c08a6040518082815260200191505060405180910390a261113a565b600115156004600084815260200190815260200160002060009054906101000a900460ff16151514156111395760006004600084815260200190815260200160002060006101000a81548160ff0219169083151502179055505b5b5050611288565b6007805490508573ffffffffffffffffffffffffffffffffffffffff166370a08231306040518263ffffffff1660e01b8152600401808273ffffffffffffffffffffffffffffffffffffffff1673ffffffffffffffffffffffffffffffffffffffff16815260200191505060206040518083038186803b1580156111c457600080fd5b505afa1580156111d8573d6000803e3d6000fd5b505050506040513d60208110156111ee57600080fd5b81019080805190602001909291905050501115611287578373ffffffffffffffffffffffffffffffffffffffff1663752d49a182600780549050858161123057fe5b046040518363ffffffff1660e01b81526004018083815260200182815260200192505050600060405180830381600087803b15801561126e57600080fd5b505af1158015611282573d6000803e3d6000fd5b505050505b5b8080600101915050610efb565b5050505050915091565b600080600680549050116112b257600080fd5b6112da6006600160068054905003815481106112ca57fe5b90600052602060002001546122a4565b905090565b600a543410156112ee57600080fd5b6002600082815260200190815260200160002060009054906101000a900460ff1661131857600080fd5b600b548101600954428161132857fe5b064203111561133657600080fd5b60016004600083815260200190815260200160002060006101000a81548160ff02191690831515021790555060088190806001815401808255809150509060018203906000526020600020016000909192909190915055507fb199747b7b98ffd681a09c542f7f62ba4972f6f5b7d791b6f8bba36862cbdd2b33826003600085815260200190815260200160002054604051808473ffffffffffffffffffffffffffffffffffffffff1673ffffffffffffffffffffffffffffffffffffffff168152602001838152602001828152602001935050505060405180910390a150565b600060056000838152602001908152602001600020805490509050919050565b60026020528060005260406000206000915054906101000a900460ff1681565b60046020528060005260406000206000915054906101000a900460ff1681565b60008060008060009054906101000a900473ffffffffffffffffffffffffffffffffffffffff1673ffffffffffffffffffffffffffffffffffffffff16633fcad964856040518263ffffffff1660e01b81526004018082815260200191505060606040518083038186803b1580156114ee57600080fd5b505afa158015611502573d6000803e3d6000fd5b505050506040513d606081101561151857600080fd5b810190808051906020019092919080519060200190929190805190602001909291905050509250925092509193909250565b60008060009054906101000a900473ffffffffffffffffffffffffffffffffffffffff1673ffffffffffffffffffffffffffffffffffffffff1663a80209736040518163ffffffff1660e01b815260040160206040518083038186803b1580156115b357600080fd5b505afa1580156115c7573d6000803e3d6000fd5b505050506040513d60208110156115dd57600080fd5b8101908080519060200190929190505050905060008211156116f9578073ffffffffffffffffffffffffffffffffffffffff166323b872dd3330856040518463ffffffff1660e01b8152600401808473ffffffffffffffffffffffffffffffffffffffff1673ffffffffffffffffffffffffffffffffffffffff1681526020018373ffffffffffffffffffffffffffffffffffffffff1673ffffffffffffffffffffffffffffffffffffffff1681526020018281526020019350505050602060405180830381600087803b1580156116b457600080fd5b505af11580156116c8573d6000803e3d6000fd5b505050506040513d60208110156116de57600080fd5b81019080805190602001909291905050506116f857600080fd5b5b8073ffffffffffffffffffffffffffffffffffffffff16633fff28168888888888886040518763ffffffff1660e01b81526004018080602001806020018581526020018481526020018381038352898982818152602001925080828437600081840152601f19601f8201169050808301925050508381038252878782818152602001925080828437600081840152601f19601f82011690508083019250505098505050505050505050600060405180830381600087803b1580156117bc57600080fd5b505af11580156117d0573d6000803e3d6000fd5b5050505050505050505050565b6000809054906101000a900473ffffffffffffffffffffffffffffffffffffffff1673ffffffffffffffffffffffffffffffffffffffff16634482e6f3348888888888886040518863ffffffff1660e01b81526004018080602001806020018581526020018481526020018381038352898982818152602001925080828437600081840152601f19601f8201169050808301925050508381038252878782818152602001925080828437600081840152601f19601f820116905080830192505050985050505050505050506000604051808303818588803b1580156118c157600080fd5b505af11580156118d5573d6000803e3d6000fd5b5050505050505050505050565b600560205281600052604060002081815481106118fb57fe5b90600052602060002001600091509150505481565b60095481565b6060600680548060200260200160405190810160405280929190818152602001828054801561196457602002820191906000526020600020905b815481526020019060010190808311611950575b5050505050905090565b600b5481565b60008060008060009054906101000a900473ffffffffffffffffffffffffffffffffffffffff1673ffffffffffffffffffffffffffffffffffffffff16635f059f3e86866040518363ffffffff1660e01b8152600401808381526020018281526020019250505060606040518083038186803b1580156119f357600080fd5b505afa158015611a07573d6000803e3d6000fd5b505050506040513d6060811015611a1d57600080fd5b810190808051906020019092919080519060200190929190805190602001909291905050509250925092509250925092565b6000600880549050905090565b60008060008060068054905090506000811115611b3e5760008190505b6000811115611b1b578560066001830381548110611a9357fe5b906000526020600020015410158015611aea5750600015156004600060066001850381548110611abf57fe5b9060005260206000200154815260200190815260200160002060009054906101000a900460ff161515145b15611b0d5760066001820381548110611aff57fe5b906000526020600020015492505b808060019003915050611a79565b506000821115611b3d576001611b30836122a4565b8393509350935050611b51565b5b6000806000819150809050935093509350505b9193909250565b600060088281548110611b6757fe5b90600052602060002001549050919050565b60008060009054906101000a900473ffffffffffffffffffffffffffffffffffffffff1673ffffffffffffffffffffffffffffffffffffffff1663a80209736040518163ffffffff1660e01b815260040160206040518083038186803b158015611be257600080fd5b505afa158015611bf6573d6000803e3d6000fd5b505050506040513d6020811015611c0c57600080fd5b810190808051906020019092919050505090508073ffffffffffffffffffffffffffffffffffffffff166323b872dd3330856040518463ffffffff1660e01b8152600401808473ffffffffffffffffffffffffffffffffffffffff1673ffffffffffffffffffffffffffffffffffffffff1681526020018373ffffffffffffffffffffffffffffffffffffffff1673ffffffffffffffffffffffffffffffffffffffff1681526020018281526020019350505050602060405180830381600087803b158015611cda57600080fd5b505af1158015611cee573d6000803e3d6000fd5b505050506040513d6020811015611d0457600080fd5b8101908080519060200190929190505050611d1e57600080fd5b8073ffffffffffffffffffffffffffffffffffffffff1663752d49a184846040518363ffffffff1660e01b81526004018083815260200182815260200192505050600060405180830381600087803b158015611d7957600080fd5b505af1158015611d8d573d6000803e3d6000fd5b50505050505050565b600160009054906101000a900473ffffffffffffffffffffffffffffffffffffffff1673ffffffffffffffffffffffffffffffffffffffff163373ffffffffffffffffffffffffffffffffffffffff1614611df057600080fd5b60001515611dfd83611f05565b151514611e0957600080fd5b80600360008481526020019081526020016000208190555060016002600084815260200190815260200160002060006101000a81548160ff0219169083151502179055506006829080600181540180825580915050906001820390600052602060002001600090919290919091505550817f2afa03c814297ffc234ff967b6f0863d3c358be243103f20217c8d3a4d39f9c0826040518082815260200191505060405180910390a25050565b60006004600083815260200190815260200160002060009054906101000a900460ff169050919050565b600160009054906101000a900473ffffffffffffffffffffffffffffffffffffffff1681565b60006002600083815260200190815260200160002060009054906101000a900460ff169050919050565b600160009054906101000a900473ffffffffffffffffffffffffffffffffffffffff1673ffffffffffffffffffffffffffffffffffffffff163373ffffffffffffffffffffffffffffffffffffffff1614611f8957600080fd5b806000806101000a81548173ffffffffffffffffffffffffffffffffffffffff021916908373ffffffffffffffffffffffffffffffffffffffff16021790555050565b6060600780548060200260200160405190810160405280929190818152602001828054801561201a57602002820191906000526020600020905b815481526020019060010190808311612006575b5050505050905090565b6060600880548060200260200160405190810160405280929190818152602001828054801561207257602002820191906000526020600020905b81548152602001906001019080831161205e575b5050505050905090565b600a5481565b60008060008060009054906101000a900473ffffffffffffffffffffffffffffffffffffffff1673ffffffffffffffffffffffffffffffffffffffff1663d269a83c86866040518363ffffffff1660e01b8152600401808381526020018281526020019250505060606040518083038186803b15801561210157600080fd5b505afa158015612115573d6000803e3d6000fd5b505050506040513d606081101561212b57600080fd5b810190808051906020019092919080519060200190929190805190602001909291905050509250925092509250925092565b6060600560008381526020019081526020016000208054806020026020016040519081016040528092919081815260200182805480156121bc57602002820191906000526020600020905b8154815260200190600101908083116121a8575b50505050509050919050565b600160009054906101000a900473ffffffffffffffffffffffffffffffffffffffff1673ffffffffffffffffffffffffffffffffffffffff163373ffffffffffffffffffffffffffffffffffffffff161461222257600080fd5b600160009054906101000a900473ffffffffffffffffffffffffffffffffffffffff1673ffffffffffffffffffffffffffffffffffffffff166108fc3073ffffffffffffffffffffffffffffffffffffffff16319081150290604051600060405180830381858888f193505050501580156122a1573d6000803e3d6000fd5b50565b600060036000838152602001908152602001600020549050919050565b6000809054906101000a900473ffffffffffffffffffffffffffffffffffffffff1673ffffffffffffffffffffffffffffffffffffffff1663e723e3b53484846040518463ffffffff1660e01b815260040180838152602001828152602001925050506000604051808303818588803b15801561233d57600080fd5b505af1158015612351573d6000803e3d6000fd5b50505050505050565b600160009054906101000a900473ffffffffffffffffffffffffffffffffffffffff1673ffffffffffffffffffffffffffffffffffffffff163373ffffffffffffffffffffffffffffffffffffffff16146123b457600080fd5b7f8be0079c531659141344cd1fd0a4f28419497f9722a3daafe3b4186f6b6457e0600160009054906101000a900473ffffffffffffffffffffffffffffffffffffffff1682604051808373ffffffffffffffffffffffffffffffffffffffff1673ffffffffffffffffffffffffffffffffffffffff1681526020018273ffffffffffffffffffffffffffffffffffffffff1673ffffffffffffffffffffffffffffffffffffffff1681526020019250505060405180910390a180600160006101000a81548173ffffffffffffffffffffffffffffffffffffffff021916908373ffffffffffffffffffffffffffffffffffffffff1602179055505056fea165627a7a72305820d6bf2a519b8cc5ab98b42466d33254337b3e0de116368a681708b141afe42a130029",
  "source": "pragma solidity ^0.5.0;\r\n\r\nimport './UsingTellor.sol';\r\nimport '../TellorMaster.sol';\r\nimport '../Tellor.sol';\r\n/**\r\n* @title UsingTellor\r\n* This contracts creates for easy integration to the Tellor Tellor System\r\n*/\r\ncontract Optimistic is UsingTellor{\r\n\r\n    //Can we rework soem of these mappings into a struct?\r\n\tmapping(uint => bool) public isValue;//mapping for timestamp to bool where it's true if the value as been set\r\n\tmapping(uint => uint) valuesByTimestamp; //mapping of timestamp to value\r\n\tmapping(uint => bool) public disputedValues;//maping of timestamp to bool where it's true if the value has been disputed\r\n\tmapping(uint => uint[]) public requestIdsIncluded; //mapping of timestamp to requestsId's to include\r\n\r\n    // struct infoForTimestamp {\r\n    // \tbool isValue;\r\n    // \tuint valuesByTimestamp;\r\n    // \tbool disputedValues;\r\n    // \tuint[] requestIdsIncluded;\r\n    // }\r\n    // mapping(uint => infoForTimestamp) public infoForTimestamps;//mapping timestampt to InfoForTimestamp struct\r\n\r\n\tuint[] timestamps; //timestamps with values\r\n\tuint[] requestIds;\r\n\tuint[] disputedValuesArray;\r\n\tuint public granularity;\r\n\tuint public disputeFee; //In Tributes\r\n\tuint public disputePeriod;\r\n\t\r\n\tevent NewValueSet(uint indexed _timestamp, uint _value);\r\n\tevent ValueDisputed(address _disputer,uint _timestamp, uint _value);\r\n\tevent TellorValuePlaced(uint _timestamp, uint _value);\r\n\r\n    /*Constructor*/\r\n\t/**\r\n    * @dev This constructor function is used to pass variables to the UserContract's constructor and set several variables\r\n    * the variables for the Optimistic.sol constructor come for the Reader.Constructor function.\r\n    * @param _userContract address for UserContract\r\n    * @param _disputeFeeRequired the fee to dispute the optimistic price(price sumbitted by known trusted party)\r\n    * @param _disputePeriod is the time frame a value can be disputed after being imputed\r\n    * @param _requestIds are the requests Id's on the Tellor System corresponding to the data types used on this contract.\r\n    * It is recommended to use several requestId's that pull from several API's. If requestsId's don't exist in the Tellor \r\n    * System be sure to create some.\r\n    * @param _granularity is the amount of decimals desired on the requested value\r\n    */\r\n\tconstructor(address _userContract, uint _disputeFeeRequired, uint _disputePeriod, uint[] memory _requestIds, uint _granularity) UsingTellor(_userContract) public{\r\n\t\tdisputeFee = _disputeFeeRequired;\r\n\t\tdisputePeriod = _disputePeriod;\r\n\t\tgranularity = _granularity;\r\n\t\trequestIds = _requestIds;\r\n\t}\r\n\r\n    /*Functions*/\r\n    /**\r\n    * @dev allows contract owner, a centralized party to enter value\r\n    * @param _timestamp is the timestamp for the value\r\n    * @param _value is the value for the timestamp specified\r\n    */\r\n\tfunction setValue(uint _timestamp, uint _value) external{\r\n\t\t//Only allows owner to set value\r\n\t\trequire(msg.sender == owner);\r\n\t\t//Checks that no value has already been set for the timestamp\r\n\t\trequire(getIsValue(_timestamp) == false);\r\n\t\t//sets timestamp\r\n\t\tvaluesByTimestamp[_timestamp] = _value;\r\n\t\t//sets isValue to true once value is set\r\n\t\tisValue[_timestamp] = true;\r\n\t\t//adds timestamp to the timestamps array\r\n\t\ttimestamps.push(_timestamp);\r\n\t\t//lets the network know a new timestamp and value have been added\r\n\t\temit NewValueSet(_timestamp,_value);\r\n\r\n\t}\r\n\r\n    /**\r\n    * @dev allows user to initiate dispute on the value of the specified timestamp\r\n    * @param _timestamp is the timestamp for the value to be disputed\r\n    */\r\n\tfunction disputeOptimisticValue(uint _timestamp) external payable{\r\n\t\trequire(msg.value >= disputeFee);\r\n\t\t//require that isValue for the timestamp being disputed to exist/be true\r\n\t\trequire(isValue[_timestamp]);\r\n\t\t// assert disputePeriod is still open\r\n\t\trequire(now - now % granularity  <= _timestamp + disputePeriod);\r\n        //set the disputValues for the disputed timestamp to true \r\n\t\tdisputedValues[_timestamp] = true;\r\n\t\t//add the disputed timestamp to the diputedValues array\r\n\t\tdisputedValuesArray.push(_timestamp);\r\n\t\temit ValueDisputed(msg.sender,_timestamp,valuesByTimestamp[_timestamp]);\r\n\t}\r\n\r\n\r\n\t/**\r\n    * @dev This function gets the Tellor requestIds values for the disputed timestamp. It averages the values on the \r\n    * requestsIds and replaces the value set by the contract owner, centralized party.\r\n    * @param _timestamp to get Tellor data from\r\n    * @return uint of new value and true if it was able to get Tellor data\r\n\t*/\r\n\tfunction getTellorValues(uint _timestamp) public returns(uint _value, bool _didGet){\r\n\t\t//We need to get the tellor value within the granularity.  If no Tellor value is available...what then?  Simply put no Value?  \r\n\t\t//No basically, the dispute period for anyValue is within the granularity\r\n\t\tTellorMaster _tellor = TellorMaster(tellorUserContract.tellorStorageAddress());\r\n\t\tTellor _tellorCore = Tellor(tellorUserContract.tellorStorageAddress());\r\n\t\tuint _retrievedTimestamp;\r\n\t\tuint _initialBalance = _tellor.balanceOf(address(this));//Checks the balance of Tellor Tributes on this contract\r\n\t\t//Loops through all the Tellor requestsId's initially(in the constructor) associated with this contract data\r\n\t\tfor(uint i = 1; i <= requestIds.length; i++){\r\n\t\t\t//Get all values for that requestIds' timestamp\r\n\t\t\t//Check if any is after your given timestamp\r\n\t\t\t//If yes, return that value. If no, then request that Id\r\n\t\t\t(_didGet,_value,_retrievedTimestamp) = getFirstVerifiedDataAfter(i,_timestamp);\r\n\t\t\tif(_didGet){\r\n\t\t\t\tuint _newTime = _retrievedTimestamp - _retrievedTimestamp % granularity; //why are we using the mod granularity???\r\n\t\t\t\t//provides the average of the requests Ids' associated with this price feed\r\n\t\t\t\tuint _newValue =(_value + valuesByTimestamp[_newTime] * requestIdsIncluded[_newTime].length) / (requestIdsIncluded[_newTime].length + 1);\r\n\t\t\t\t//Add the new timestamp and value (we don't replace???)\r\n\t\t\t\tvaluesByTimestamp[_newTime] = _newValue;\r\n\t\t\t\temit TellorValuePlaced(_newTime,_newValue);\r\n\t\t\t\t//records the requests Ids included on the price average where all prices came from Tellor requests Ids\r\n\t\t\t\trequestIdsIncluded[_newTime].push(i); //how do we make sure it's not called twice?\r\n\t\t\t\t//if the value for the newTime does not exist, then push the value, update the isValue to true\r\n\t\t\t\t//otherwise if the newTime is under dsipute then update the dispute status to false\r\n\t\t\t\t// ??? should the else be an \"and\"\r\n\t\t\t\tif(isValue[_newTime] == false){\r\n\t\t\t\t\t\t\ttimestamps.push(_newTime);\r\n\t\t\t\t\t\t\tisValue[_newTime] = true;\r\n\t\t\t\t\t\t\temit NewValueSet(_newTime,_value);\r\n\t\t\t\t}\r\n\t\t\t\telse if(disputedValues[_newTime] == true){\r\n\t\t\t\t\tdisputedValues[_newTime] = false;\r\n\t\t\t\t}\r\n\t\t\t}\r\n\t\t\t//otherwise request the ID and split the contracts initial tributes balance to equally tip all \r\n\t\t\t//requests Ids associated with this price feed\r\n\t\t\telse if(_tellor.balanceOf(address(this)) > requestIds.length){\r\n\t\t\t\t\t//Request Id to be mined by adding to it's tip\r\n\t\t\t\t\t_tellorCore.addTip(i, _initialBalance / requestIds.length);\r\n\t\t\t}\r\n\t\t}\r\n\t}\r\n\r\n    /**\r\n    * @dev Allows the contract owner(Tellor) to withdraw ETH from this contract\r\n    */\r\n    function withdrawETH() external{\r\n        require(msg.sender == owner);\r\n        address(owner).transfer(address(this).balance);\r\n    }\r\n    \r\n\r\n    /**\r\n    * @dev Get the first undisputed value after the timestamp specified. This function is used within the getTellorValues\r\n    * but can be used on its own. \r\n    * @param _timestamp to search the first undisputed value there after\r\n    */\r\n\tfunction getFirstUndisputedValueAfter(uint _timestamp) public view returns(bool,uint, uint _timestampRetrieved){\r\n\t\tuint _count = timestamps.length;\r\n\t\tif(_count > 0){\r\n\t\t\t\tfor(uint i = _count;i > 0;i--){\r\n\t\t\t\t\tif(timestamps[i-1] >= _timestamp && disputedValues[timestamps[i-1]] == false){\r\n\t\t\t\t\t\t_timestampRetrieved = timestamps[i-1];\r\n\t\t\t\t\t}\r\n\t\t\t\t}\r\n\t\t\t\tif(_timestampRetrieved > 0){\r\n\t\t\t\t\treturn(true,getMyValuesByTimestamp(_timestampRetrieved),_timestampRetrieved);\r\n\t\t\t\t}\r\n        }\r\n        return(false,0,0);\r\n\t}\r\n\r\n\r\n    /*Getters*/\r\n    /**\r\n    * @dev Getter function for the value based on the timestamp specified\r\n    * @param _timestamp to retreive value from\r\n    */\r\n\tfunction getMyValuesByTimestamp(uint _timestamp) public view returns(uint value){\r\n\t\treturn valuesByTimestamp[_timestamp];\r\n\t}\r\n\r\n\r\n    /**\r\n    * @dev Getter function for the number of RequestIds associated with a timestamp, based on the timestamp specified\r\n    * @param _timestamp to retreive number of requestIds\r\n    * @return uint count of number of values for the spedified timestamp\r\n    */\r\n\tfunction getNumberOfValuesPerTimestamp(uint _timestamp) external view returns(uint){\r\n\t\t\treturn requestIdsIncluded[_timestamp].length;\r\n\t}\r\n\r\n\r\n    /**\r\n    * @dev Checks to if a value exists for the specifived timestamp\r\n    * @param _timestamp to verify\r\n    * @return ture if it exists\r\n    */\r\n\tfunction getIsValue(uint _timestamp) public view returns(bool){\r\n\t\treturn isValue[_timestamp];\r\n\t}\r\n\r\n\r\n    /**\r\n    * @dev Getter function for latest value available\r\n    * @return latest value available\r\n    */\r\n\tfunction getCurrentValue() external view returns(uint){\r\n\t    require(timestamps.length > 0);\r\n\t\treturn getMyValuesByTimestamp(timestamps[timestamps.length -1]);\r\n\t}\r\n\r\n    /**\r\n    * @dev Getter function for the timestamps available\r\n    * @return uint array of timestamps available\r\n    */\r\n\tfunction getTimestamps() external view returns(uint[] memory){\r\n\t\treturn timestamps;\r\n\t}\r\n\r\n\r\n    /**\r\n    * @dev Getter function for the requests Ids' from Tellor associated with this price feed\r\n    * @return uint array of requests Ids'\r\n    */\r\n\tfunction getRequestIds() external view returns(uint[] memory){\r\n\t\treturn requestIds;\r\n\t}\r\n\r\n\r\n    /**\r\n    * @dev Getter function for the requests Ids' from Tellor associated with this price feed\r\n    * at the specified timestamp. This only gets populated after a dispute is initiated and the \r\n    * function getTellorValues is ran.\r\n    * @param _timestamp to retreive the requestIds\r\n    * @return uint array of requests Ids' included in the calcluation of the value\r\n    */\r\n\tfunction getRequestIdsIncluded(uint _timestamp) external view returns(uint[] memory){\r\n\t\treturn requestIdsIncluded[_timestamp];\r\n\t}\r\n\r\n\r\n    /**\r\n    * @dev Getter function for the number of disputed values \r\n    * @return uint count of number of values for the spedified timestamp\r\n    */\r\n\tfunction getNumberOfDisputedValues() external view returns(uint){\r\n\t\treturn disputedValuesArray.length;\r\n\t}\r\n\r\n\r\n    /**\r\n    * @dev Getter function for all disputed values\r\n    * @return the array with all values under dispute\r\n    */\r\n\tfunction getDisputedValues() external view returns(uint[] memory){\r\n\t\treturn disputedValuesArray;\r\n\t}\r\n\r\n\r\n    /**\r\n    * @dev This checks if the value for the specified timestamp is under dispute \r\n    * @param _timestamp to check if it is under dispute\r\n    * @return true if it is under dispute\r\n    */\r\n\tfunction isDisputed(uint _timestamp) external view returns(bool){\r\n\t\treturn disputedValues[_timestamp];\r\n\t}\r\n\r\n\r\n    /**\r\n    * @dev Getter function for the dispute value by index\r\n    * @return the value\r\n    */\r\n\tfunction getDisputedValueByIndex(uint _index) external view returns(uint){\r\n\t\treturn disputedValuesArray[_index];\r\n\t}\r\n\r\n}",
  "sourcePath": "C:\\company\\code\\open-oracle\\contracts\\Tellor\\userFiles\\Optimistic.sol",
  "compiler": {
    "name": "solc",
    "version": "0.5.8+commit.23d335f2.Emscripten.clang"
  },
  "schemaVersion": "3.0.16",
  "updatedAt": "2019-09-23T01:07:00.426Z",
  "devdoc": {
    "methods": {
      "addTip(uint256,uint256)": {
        "details": "Allows the user to tip miners for the specified request using Tributes\r",
        "params": {
          "_requestId": "to tip\r",
          "_tip": "amount\r"
        }
      },
      "addTipWithEther(uint256,uint256)": {
        "details": "Allows user to add tip with Ether by sending the ETH to the userContract and exchanging it for Tributes\r at the price specified by the userContract owner.\r",
        "params": {
          "_requestId": "to tip\r",
          "_tip": "amount\r"
        }
      },
      "constructor": {
        "details": "This constructor function is used to pass variables to the UserContract's constructor and set several variables\r the variables for the Optimistic.sol constructor come for the Reader.Constructor function.\r",
        "params": {
          "_disputeFeeRequired": "the fee to dispute the optimistic price(price sumbitted by known trusted party)\r",
          "_disputePeriod": "is the time frame a value can be disputed after being imputed\r",
          "_granularity": "is the amount of decimals desired on the requested value\r",
          "_requestIds": "are the requests Id's on the Tellor System corresponding to the data types used on this contract.\r It is recommended to use several requestId's that pull from several API's. If requestsId's don't exist in the Tellor \r System be sure to create some.\r",
          "_userContract": "address for UserContract\r"
        }
      },
      "disputeOptimisticValue(uint256)": {
        "details": "allows user to initiate dispute on the value of the specified timestamp\r",
        "params": {
          "_timestamp": "is the timestamp for the value to be disputed\r"
        }
      },
      "getAnyDataAfter(uint256,uint256)": {
        "details": "Allows the user to get the first value for the requestId after the specified timestamp\r",
        "params": {
          "_requestId": "is the requestId to look up the value for\r",
          "_timestamp": "after which to search for first verified value\r"
        },
        "return": "bool true if it is able to retreive a value, the value, and the value's timestamp\r"
      },
      "getCurrentValue()": {
        "details": "Getter function for latest value available\r",
        "return": "latest value available\r"
      },
      "getCurrentValue(uint256)": {
        "details": "Allows the user to get the latest value for the requestId specified\r",
        "params": {
          "_requestId": "is the requestId to look up the value for\r"
        },
        "return": "bool true if it is able to retreive a value, the value, and the value's timestamp\r"
      },
      "getDisputedValueByIndex(uint256)": {
        "details": "Getter function for the dispute value by index\r",
        "return": "the value\r"
      },
      "getDisputedValues()": {
        "details": "Getter function for all disputed values\r",
        "return": "the array with all values under dispute\r"
      },
      "getFirstUndisputedValueAfter(uint256)": {
        "details": "Get the first undisputed value after the timestamp specified. This function is used within the getTellorValues\r but can be used on its own. \r",
        "params": {
          "_timestamp": "to search the first undisputed value there after\r"
        }
      },
      "getFirstVerifiedDataAfter(uint256,uint256)": {
        "details": "Allows the user to get the first verified value for the requestId after the specified timestamp\r",
        "params": {
          "_requestId": "is the requestId to look up the value for\r",
          "_timestamp": "after which to search for first verified value\r"
        },
        "return": "bool true if it is able to retreive a value, the value, and the value's timestamp, the timestamp after\r which it searched for the first verified value\r"
      },
      "getIsValue(uint256)": {
        "details": "Checks to if a value exists for the specifived timestamp\r",
        "params": {
          "_timestamp": "to verify\r"
        },
        "return": "ture if it exists\r"
      },
      "getMyValuesByTimestamp(uint256)": {
        "details": "Getter function for the value based on the timestamp specified\r",
        "params": {
          "_timestamp": "to retreive value from\r"
        }
      },
      "getNumberOfDisputedValues()": {
        "details": "Getter function for the number of disputed values \r",
        "return": "uint count of number of values for the spedified timestamp\r"
      },
      "getNumberOfValuesPerTimestamp(uint256)": {
        "details": "Getter function for the number of RequestIds associated with a timestamp, based on the timestamp specified\r",
        "params": {
          "_timestamp": "to retreive number of requestIds\r"
        },
        "return": "uint count of number of values for the spedified timestamp\r"
      },
      "getRequestIds()": {
        "details": "Getter function for the requests Ids' from Tellor associated with this price feed\r",
        "return": "uint array of requests Ids'\r"
      },
      "getRequestIdsIncluded(uint256)": {
        "details": "Getter function for the requests Ids' from Tellor associated with this price feed\r at the specified timestamp. This only gets populated after a dispute is initiated and the \r function getTellorValues is ran.\r",
        "params": {
          "_timestamp": "to retreive the requestIds\r"
        },
        "return": "uint array of requests Ids' included in the calcluation of the value\r"
      },
      "getTellorValues(uint256)": {
        "details": "This function gets the Tellor requestIds values for the disputed timestamp. It averages the values on the \r requestsIds and replaces the value set by the contract owner, centralized party.\r",
        "params": {
          "_timestamp": "to get Tellor data from\r"
        },
        "return": "uint of new value and true if it was able to get Tellor data\r"
      },
      "getTimestamps()": {
        "details": "Getter function for the timestamps available\r",
        "return": "uint array of timestamps available\r"
      },
      "isDisputed(uint256)": {
        "details": "This checks if the value for the specified timestamp is under dispute \r",
        "params": {
          "_timestamp": "to check if it is under dispute\r"
        },
        "return": "true if it is under dispute\r"
      },
      "requestData(string,string,uint256,uint256)": {
        "details": "Allows the user to submit a request for data to the oracle using Tributes\r Allowing this prevents us from increasing spread too high (since if we set the price too hight\r users will just go to an exchange and get tokens from there)\r",
        "params": {
          "_granularity": "is the number of decimals miners should include on the submitted value\r",
          "_request": "string API being requested to be mined\r",
          "_symbol": "is the short string symbol for the api request\r",
          "_tip": "amount the requester is willing to pay to be get on queue. Miners\r mine the onDeckQueryHash, or the api with the highest payout pool\r"
        }
      },
      "requestDataWithEther(string,string,uint256,uint256)": {
        "details": "Allows the user to submit a request for data to the oracle using ETH\r",
        "params": {
          "_granularity": "is the number of decimals miners should include on the submitted value\r",
          "_request": "string API being requested to be mined\r",
          "_symbol": "is the short string symbol for the api request\r",
          "_tip": "amount the requester is willing to pay to be get on queue. Miners\r mine the onDeckQueryHash, or the api with the highest payout pool\r"
        }
      },
      "setUserContract(address)": {
        "details": "allows owner to set the user contract address\r",
        "params": {
          "_userContract": "address\r"
        }
      },
      "setValue(uint256,uint256)": {
        "details": "allows contract owner, a centralized party to enter value\r",
        "params": {
          "_timestamp": "is the timestamp for the value\r",
          "_value": "is the value for the timestamp specified\r"
        }
      },
      "transferOwnership(address)": {
        "details": "allows owner to transfer ownership\r",
        "params": {
          "_newOwner": "address\r"
        }
      },
      "withdrawETH()": {
        "details": "Allows the contract owner(Tellor) to withdraw ETH from this contract\r"
      }
    },
    "title": "UsingTellor\r This contracts creates for easy integration to the Tellor Tellor System\r"
  },
  "userdoc": {
    "methods": {}
  }
}