{
  "contractName": "TellorMaster",
  "abi": [
    {
      "constant": true,
      "inputs": [
        {
          "name": "_timestamp",
          "type": "uint256"
        }
      ],
      "name": "getRequestIdByTimestamp",
      "outputs": [
        {
          "name": "",
          "type": "uint256"
        }
      ],
      "payable": false,
      "stateMutability": "view",
      "type": "function"
    },
    {
      "constant": true,
      "inputs": [
        {
          "name": "_requestId",
          "type": "uint256"
        },
        {
          "name": "_timestamp",
          "type": "uint256"
        }
      ],
      "name": "getSubmissionsByTimestamp",
      "outputs": [
        {
          "name": "",
          "type": "uint256[5]"
        }
      ],
      "payable": false,
      "stateMutability": "view",
      "type": "function"
    },
    {
      "constant": true,
      "inputs": [
        {
          "name": "_data",
          "type": "bytes32"
        }
      ],
      "name": "getAddressVars",
      "outputs": [
        {
          "name": "",
          "type": "address"
        }
      ],
      "payable": false,
      "stateMutability": "view",
      "type": "function"
    },
    {
      "constant": true,
      "inputs": [],
      "name": "getSymbol",
      "outputs": [
        {
          "name": "",
          "type": "string"
        }
      ],
      "payable": false,
      "stateMutability": "view",
      "type": "function"
    },
    {
      "constant": true,
      "inputs": [],
      "name": "getName",
      "outputs": [
        {
          "name": "",
          "type": "string"
        }
      ],
      "payable": false,
      "stateMutability": "view",
      "type": "function"
    },
    {
      "constant": true,
      "inputs": [],
      "name": "totalSupply",
      "outputs": [
        {
          "name": "",
          "type": "uint256"
        }
      ],
      "payable": false,
      "stateMutability": "view",
      "type": "function"
    },
    {
      "constant": true,
      "inputs": [],
      "name": "getVariablesOnDeck",
      "outputs": [
        {
          "name": "",
          "type": "uint256"
        },
        {
          "name": "",
          "type": "uint256"
        },
        {
          "name": "",
          "type": "string"
        }
      ],
      "payable": false,
      "stateMutability": "view",
      "type": "function"
    },
    {
      "constant": true,
      "inputs": [
        {
          "name": "_request",
          "type": "bytes32"
        }
      ],
      "name": "getRequestIdByQueryHash",
      "outputs": [
        {
          "name": "",
          "type": "uint256"
        }
      ],
      "payable": false,
      "stateMutability": "view",
      "type": "function"
    },
    {
      "constant": true,
      "inputs": [
        {
          "name": "_requestId",
          "type": "uint256"
        }
      ],
      "name": "getLastNewValueById",
      "outputs": [
        {
          "name": "",
          "type": "uint256"
        },
        {
          "name": "",
          "type": "bool"
        }
      ],
      "payable": false,
      "stateMutability": "view",
      "type": "function"
    },
    {
      "constant": true,
      "inputs": [
        {
          "name": "_requestId",
          "type": "uint256"
        },
        {
          "name": "_timestamp",
          "type": "uint256"
        }
      ],
      "name": "isInDispute",
      "outputs": [
        {
          "name": "",
          "type": "bool"
        }
      ],
      "payable": false,
      "stateMutability": "view",
      "type": "function"
    },
    {
      "constant": true,
      "inputs": [
        {
          "name": "_requestId",
          "type": "uint256"
        }
      ],
      "name": "getNewValueCountbyRequestId",
      "outputs": [
        {
          "name": "",
          "type": "uint256"
        }
      ],
      "payable": false,
      "stateMutability": "view",
      "type": "function"
    },
    {
      "constant": true,
      "inputs": [
        {
          "name": "_user",
          "type": "address"
        },
        {
          "name": "_blockNumber",
          "type": "uint256"
        }
      ],
      "name": "balanceOfAt",
      "outputs": [
        {
          "name": "",
          "type": "uint256"
        }
      ],
      "payable": false,
      "stateMutability": "view",
      "type": "function"
    },
    {
      "constant": true,
      "inputs": [
        {
          "name": "_data",
          "type": "bytes32"
        }
      ],
      "name": "getUintVar",
      "outputs": [
        {
          "name": "",
          "type": "uint256"
        }
      ],
      "payable": false,
      "stateMutability": "view",
      "type": "function"
    },
    {
      "constant": true,
      "inputs": [
        {
          "name": "_index",
          "type": "uint256"
        }
      ],
      "name": "getRequestIdByRequestQIndex",
      "outputs": [
        {
          "name": "",
          "type": "uint256"
        }
      ],
      "payable": false,
      "stateMutability": "view",
      "type": "function"
    },
    {
      "constant": true,
      "inputs": [
        {
          "name": "_challenge",
          "type": "bytes32"
        },
        {
          "name": "_miner",
          "type": "address"
        }
      ],
      "name": "didMine",
      "outputs": [
        {
          "name": "",
          "type": "bool"
        }
      ],
      "payable": false,
      "stateMutability": "view",
      "type": "function"
    },
    {
      "constant": true,
      "inputs": [
        {
          "name": "_requestId",
          "type": "uint256"
        },
        {
          "name": "_timestamp",
          "type": "uint256"
        }
      ],
      "name": "getMinersByRequestIdAndTimestamp",
      "outputs": [
        {
          "name": "",
          "type": "address[5]"
        }
      ],
      "payable": false,
      "stateMutability": "view",
      "type": "function"
    },
    {
      "constant": true,
      "inputs": [
        {
          "name": "_user",
          "type": "address"
        }
      ],
      "name": "balanceOf",
      "outputs": [
        {
          "name": "",
          "type": "uint256"
        }
      ],
      "payable": false,
      "stateMutability": "view",
      "type": "function"
    },
    {
      "constant": true,
      "inputs": [
        {
          "name": "_staker",
          "type": "address"
        }
      ],
      "name": "getStakerInfo",
      "outputs": [
        {
          "name": "",
          "type": "uint256"
        },
        {
          "name": "",
          "type": "uint256"
        }
      ],
      "payable": false,
      "stateMutability": "view",
      "type": "function"
    },
    {
      "constant": true,
      "inputs": [
        {
          "name": "_requestID",
          "type": "uint256"
        },
        {
          "name": "_index",
          "type": "uint256"
        }
      ],
      "name": "getTimestampbyRequestIDandIndex",
      "outputs": [
        {
          "name": "",
          "type": "uint256"
        }
      ],
      "payable": false,
      "stateMutability": "view",
      "type": "function"
    },
    {
      "constant": true,
      "inputs": [
        {
          "name": "_disputeId",
          "type": "uint256"
        },
        {
          "name": "_data",
          "type": "bytes32"
        }
      ],
      "name": "getDisputeUintVars",
      "outputs": [
        {
          "name": "",
          "type": "uint256"
        }
      ],
      "payable": false,
      "stateMutability": "view",
      "type": "function"
    },
    {
      "constant": true,
      "inputs": [
        {
          "name": "_requestId",
          "type": "uint256"
        },
        {
          "name": "_timestamp",
          "type": "uint256"
        }
      ],
      "name": "retrieveData",
      "outputs": [
        {
          "name": "",
          "type": "uint256"
        }
      ],
      "payable": false,
      "stateMutability": "view",
      "type": "function"
    },
    {
      "constant": true,
      "inputs": [
        {
          "name": "_user",
          "type": "address"
        },
        {
          "name": "_amount",
          "type": "uint256"
        }
      ],
      "name": "allowedToTrade",
      "outputs": [
        {
          "name": "",
          "type": "bool"
        }
      ],
      "payable": false,
      "stateMutability": "view",
      "type": "function"
    },
    {
      "constant": true,
      "inputs": [],
      "name": "getCurrentVariables",
      "outputs": [
        {
          "name": "",
          "type": "bytes32"
        },
        {
          "name": "",
          "type": "uint256"
        },
        {
          "name": "",
          "type": "uint256"
        },
        {
          "name": "",
          "type": "string"
        },
        {
          "name": "",
          "type": "uint256"
        },
        {
          "name": "",
          "type": "uint256"
        }
      ],
      "payable": false,
      "stateMutability": "view",
      "type": "function"
    },
    {
      "constant": true,
      "inputs": [
        {
          "name": "_disputeId",
          "type": "uint256"
        },
        {
          "name": "_address",
          "type": "address"
        }
      ],
      "name": "didVote",
      "outputs": [
        {
          "name": "",
          "type": "bool"
        }
      ],
      "payable": false,
      "stateMutability": "view",
      "type": "function"
    },
    {
      "constant": true,
      "inputs": [
        {
          "name": "_disputeId",
          "type": "uint256"
        }
      ],
      "name": "getAllDisputeVars",
      "outputs": [
        {
          "name": "",
          "type": "bytes32"
        },
        {
          "name": "",
          "type": "bool"
        },
        {
          "name": "",
          "type": "bool"
        },
        {
          "name": "",
          "type": "bool"
        },
        {
          "name": "",
          "type": "address"
        },
        {
          "name": "",
          "type": "address"
        },
        {
          "name": "",
          "type": "address"
        },
        {
          "name": "",
          "type": "uint256[9]"
        },
        {
          "name": "",
          "type": "int256"
        }
      ],
      "payable": false,
      "stateMutability": "view",
      "type": "function"
    },
    {
      "constant": true,
      "inputs": [],
      "name": "getRequestQ",
      "outputs": [
        {
          "name": "",
          "type": "uint256[51]"
        }
      ],
      "payable": false,
      "stateMutability": "view",
      "type": "function"
    },
    {
      "constant": true,
      "inputs": [
        {
          "name": "_requestId",
          "type": "uint256"
        },
        {
          "name": "_timestamp",
          "type": "uint256"
        }
      ],
      "name": "getMinedBlockNum",
      "outputs": [
        {
          "name": "",
          "type": "uint256"
        }
      ],
      "payable": false,
      "stateMutability": "view",
      "type": "function"
    },
    {
      "constant": true,
      "inputs": [
        {
          "name": "_hash",
          "type": "bytes32"
        }
      ],
      "name": "getDisputeIdByDisputeHash",
      "outputs": [
        {
          "name": "",
          "type": "uint256"
        }
      ],
      "payable": false,
      "stateMutability": "view",
      "type": "function"
    },
    {
      "constant": true,
      "inputs": [
        {
          "name": "_user",
          "type": "address"
        },
        {
          "name": "_spender",
          "type": "address"
        }
      ],
      "name": "allowance",
      "outputs": [
        {
          "name": "",
          "type": "uint256"
        }
      ],
      "payable": false,
      "stateMutability": "view",
      "type": "function"
    },
    {
      "constant": true,
      "inputs": [
        {
          "name": "_requestId",
          "type": "uint256"
        },
        {
          "name": "_data",
          "type": "bytes32"
        }
      ],
      "name": "getRequestUintVars",
      "outputs": [
        {
          "name": "",
          "type": "uint256"
        }
      ],
      "payable": false,
      "stateMutability": "view",
      "type": "function"
    },
    {
      "constant": true,
      "inputs": [
        {
          "name": "_requestId",
          "type": "uint256"
        }
      ],
      "name": "getRequestVars",
      "outputs": [
        {
          "name": "",
          "type": "string"
        },
        {
          "name": "",
          "type": "string"
        },
        {
          "name": "",
          "type": "bytes32"
        },
        {
          "name": "",
          "type": "uint256"
        },
        {
          "name": "",
          "type": "uint256"
        },
        {
          "name": "",
          "type": "uint256"
        }
      ],
      "payable": false,
      "stateMutability": "view",
      "type": "function"
    },
    {
      "constant": true,
      "inputs": [],
      "name": "getLastNewValue",
      "outputs": [
        {
          "name": "",
          "type": "uint256"
        },
        {
          "name": "",
          "type": "bool"
        }
      ],
      "payable": false,
      "stateMutability": "view",
      "type": "function"
    },
    {
      "inputs": [
        {
          "name": "_tellorContract",
          "type": "address"
        }
      ],
      "payable": false,
      "stateMutability": "nonpayable",
      "type": "constructor"
    },
    {
      "payable": true,
      "stateMutability": "payable",
      "type": "fallback"
    },
    {
      "anonymous": false,
      "inputs": [
        {
          "indexed": false,
          "name": "_newTellor",
          "type": "address"
        }
      ],
      "name": "NewTellorAddress",
      "type": "event"
    },
    {
      "constant": false,
      "inputs": [
        {
          "name": "_newDeity",
          "type": "address"
        }
      ],
      "name": "changeDeity",
      "outputs": [],
      "payable": false,
      "stateMutability": "nonpayable",
      "type": "function"
    },
    {
      "constant": false,
      "inputs": [
        {
          "name": "_tellorContract",
          "type": "address"
        }
      ],
      "name": "changeTellorContract",
      "outputs": [],
      "payable": false,
      "stateMutability": "nonpayable",
      "type": "function"
    }
  ],
  "bytecode": "0x608060405234801561001057600080fd5b50604051602080620031e78339810180604052602081101561003157600080fd5b8101908080519060200190929190505050600073__TellorStake___________________________634601f1cd90916040518263ffffffff1660e01b81526004018082815260200191505060006040518083038186803b15801561009457600080fd5b505af41580156100a8573d6000803e3d6000fd5b50505050336000603f01600060405180807f5f6f776e6572000000000000000000000000000000000000000000000000000081525060060190506040518091039020815260200190815260200160002060006101000a81548173ffffffffffffffffffffffffffffffffffffffff021916908373ffffffffffffffffffffffffffffffffffffffff160217905550336000603f01600060405180807f5f6465697479000000000000000000000000000000000000000000000000000081525060060190506040518091039020815260200190815260200160002060006101000a81548173ffffffffffffffffffffffffffffffffffffffff021916908373ffffffffffffffffffffffffffffffffffffffff160217905550806000603f01600060405180807f74656c6c6f72436f6e7472616374000000000000000000000000000000000000815250600e0190506040518091039020815260200190815260200160002060006101000a81548173ffffffffffffffffffffffffffffffffffffffff021916908373ffffffffffffffffffffffffffffffffffffffff1602179055507fc2d1449eb0b6547aa426e09d9942a77fa4fc8cd3296305b3163e22452e0bcb8d81604051808273ffffffffffffffffffffffffffffffffffffffff1673ffffffffffffffffffffffffffffffffffffffff16815260200191505060405180910390a150612f2980620002be6000396000f3fe6080604052600436106101f95760003560e01c806370a082311161010d578063ae0a8279116100a0578063da3799411161006f578063da37994114610f66578063dd62ed3e14610fb5578063e0ae93c11461103a578063e1eee6d614611093578063fc7cf0a0146111cf576101f9565b8063ae0a827914610d2a578063af0b132714610d7b578063b541302914610eba578063c775b54214610f0d576101f9565b806393fa4915116100dc57806393fa491514610b38578063999cf26c14610b91578063a22e407a14610c04578063a7c438bc14610cb7576101f9565b806370a08231146109b5578063733bdef014610a1a57806377fbb66314610a865780637f6fd5d914610adf576101f9565b80633180f8df116101905780634ee2cd7e1161015f5780634ee2cd7e146107b4578063612c8f7f146108235780636173c0b81461087257806363bb82ad146108c157806369026d6314610934576101f9565b80633180f8df1461065d5780633df0777b146106b757806346eee1c41461071457806347abd7f114610763576101f9565b806317d7de7c116101cc57806317d7de7c146104b557806318160ddd1461054557806319e8e03b146105705780631db842f01461060e576101f9565b80630f0b424d146102da57806311c9851214610329578063133bee5e146103aa5780631507040114610425575b600080603f01600060405180807f74656c6c6f72436f6e7472616374000000000000000000000000000000000000815250600e0190506040518091039020815260200190815260200160002060009054906101000a900473ffffffffffffffffffffffffffffffffffffffff16905060606000368080601f016020809104026020016040519081016040528093929190818152602001838380828437600081840152601f19601f82011690508083019250505050505050905060008082516020840185600019f43d604051816000823e82600081146102d6578282f35b8282fd5b3480156102e657600080fd5b50610313600480360360208110156102fd57600080fd5b8101908080359060200190929190505050611205565b6040518082815260200191505060405180910390f35b34801561033557600080fd5b5061036c6004803603604081101561034c57600080fd5b810190808035906020019092919080359060200190929190505050611222565b6040518082600560200280838360005b8381101561039757808201518184015260208101905061037c565b5050505090500191505060405180910390f35b3480156103b657600080fd5b506103e3600480360360208110156103cd57600080fd5b8101908080359060200190929190505050611248565b604051808273ffffffffffffffffffffffffffffffffffffffff1673ffffffffffffffffffffffffffffffffffffffff16815260200191505060405180910390f35b34801561043157600080fd5b5061043a611265565b6040518080602001828103825283818151815260200191508051906020019080838360005b8381101561047a57808201518184015260208101905061045f565b50505050905090810190601f1680156104a75780820380516001836020036101000a031916815260200191505b509250505060405180910390f35b3480156104c157600080fd5b506104ca611276565b6040518080602001828103825283818151815260200191508051906020019080838360005b8381101561050a5780820151818401526020810190506104ef565b50505050905090810190601f1680156105375780820380516001836020036101000a031916815260200191505b509250505060405180910390f35b34801561055157600080fd5b5061055a611287565b6040518082815260200191505060405180910390f35b34801561057c57600080fd5b50610585611298565b6040518084815260200183815260200180602001828103825283818151815260200191508051906020019080838360005b838110156105d15780820151818401526020810190506105b6565b50505050905090810190601f1680156105fe5780820380516001836020036101000a031916815260200191505b5094505050505060405180910390f35b34801561061a57600080fd5b506106476004803603602081101561063157600080fd5b81019080803590602001909291905050506112b2565b6040518082815260200191505060405180910390f35b34801561066957600080fd5b506106966004803603602081101561068057600080fd5b81019080803590602001909291905050506112cf565b60405180838152602001821515151581526020019250505060405180910390f35b3480156106c357600080fd5b506106fa600480360360408110156106da57600080fd5b8101908080359060200190929190803590602001909291905050506112ef565b604051808215151515815260200191505060405180910390f35b34801561072057600080fd5b5061074d6004803603602081101561073757600080fd5b810190808035906020019092919050505061130f565b6040518082815260200191505060405180910390f35b34801561076f57600080fd5b506107b26004803603602081101561078657600080fd5b81019080803573ffffffffffffffffffffffffffffffffffffffff16906020019092919050505061132c565b005b3480156107c057600080fd5b5061080d600480360360408110156107d757600080fd5b81019080803573ffffffffffffffffffffffffffffffffffffffff16906020019092919080359060200190929190505050611343565b6040518082815260200191505060405180910390f35b34801561082f57600080fd5b5061085c6004803603602081101561084657600080fd5b8101908080359060200190929190505050611415565b6040518082815260200191505060405180910390f35b34801561087e57600080fd5b506108ab6004803603602081101561089557600080fd5b8101908080359060200190929190505050611432565b6040518082815260200191505060405180910390f35b3480156108cd57600080fd5b5061091a600480360360408110156108e457600080fd5b8101908080359060200190929190803573ffffffffffffffffffffffffffffffffffffffff16906020019092919050505061144f565b604051808215151515815260200191505060405180910390f35b34801561094057600080fd5b506109776004803603604081101561095757600080fd5b81019080803590602001909291908035906020019092919050505061146f565b6040518082600560200280838360005b838110156109a2578082015181840152602081019050610987565b5050505090500191505060405180910390f35b3480156109c157600080fd5b50610a04600480360360208110156109d857600080fd5b81019080803573ffffffffffffffffffffffffffffffffffffffff169060200190929190505050611495565b6040518082815260200191505060405180910390f35b348015610a2657600080fd5b50610a6960048036036020811015610a3d57600080fd5b81019080803573ffffffffffffffffffffffffffffffffffffffff16906020019092919050505061155e565b604051808381526020018281526020019250505060405180910390f35b348015610a9257600080fd5b50610ac960048036036040811015610aa957600080fd5b81019080803590602001909291908035906020019092919050505061157e565b6040518082815260200191505060405180910390f35b348015610aeb57600080fd5b50610b2260048036036040811015610b0257600080fd5b81019080803590602001909291908035906020019092919050505061159e565b6040518082815260200191505060405180910390f35b348015610b4457600080fd5b50610b7b60048036036040811015610b5b57600080fd5b8101908080359060200190929190803590602001909291905050506115be565b6040518082815260200191505060405180910390f35b348015610b9d57600080fd5b50610bea60048036036040811015610bb457600080fd5b81019080803573ffffffffffffffffffffffffffffffffffffffff169060200190929190803590602001909291905050506115de565b604051808215151515815260200191505060405180910390f35b348015610c1057600080fd5b50610c196116b0565b6040518087815260200186815260200185815260200180602001848152602001838152602001828103825285818151815260200191508051906020019080838360005b83811015610c77578082015181840152602081019050610c5c565b50505050905090810190601f168015610ca45780820380516001836020036101000a031916815260200191505b5097505050505050505060405180910390f35b348015610cc357600080fd5b50610d1060048036036040811015610cda57600080fd5b8101908080359060200190929190803573ffffffffffffffffffffffffffffffffffffffff1690602001909291905050506116d8565b604051808215151515815260200191505060405180910390f35b348015610d3657600080fd5b50610d7960048036036020811015610d4d57600080fd5b81019080803573ffffffffffffffffffffffffffffffffffffffff1690602001909291905050506116f8565b005b348015610d8757600080fd5b50610db460048036036020811015610d9e57600080fd5b810190808035906020019092919050505061170f565b604051808a81526020018915151515815260200188151515158152602001871515151581526020018673ffffffffffffffffffffffffffffffffffffffff1673ffffffffffffffffffffffffffffffffffffffff1681526020018573ffffffffffffffffffffffffffffffffffffffff1673ffffffffffffffffffffffffffffffffffffffff1681526020018473ffffffffffffffffffffffffffffffffffffffff1673ffffffffffffffffffffffffffffffffffffffff16815260200183600960200280838360005b83811015610e99578082015181840152602081019050610e7e565b50505050905001828152602001995050505050505050505060405180910390f35b348015610ec657600080fd5b50610ecf611757565b6040518082603360200280838360005b83811015610efa578082015181840152602081019050610edf565b5050505090500191505060405180910390f35b348015610f1957600080fd5b50610f5060048036036040811015610f3057600080fd5b81019080803590602001909291908035906020019092919050505061176e565b6040518082815260200191505060405180910390f35b348015610f7257600080fd5b50610f9f60048036036020811015610f8957600080fd5b810190808035906020019092919050505061178e565b6040518082815260200191505060405180910390f35b348015610fc157600080fd5b5061102460048036036040811015610fd857600080fd5b81019080803573ffffffffffffffffffffffffffffffffffffffff169060200190929190803573ffffffffffffffffffffffffffffffffffffffff1690602001909291905050506117ab565b6040518082815260200191505060405180910390f35b34801561104657600080fd5b5061107d6004803603604081101561105d57600080fd5b8101908080359060200190929190803590602001909291905050506118a9565b6040518082815260200191505060405180910390f35b34801561109f57600080fd5b506110cc600480360360208110156110b657600080fd5b81019080803590602001909291905050506118c9565b604051808060200180602001878152602001868152602001858152602001848152602001838103835289818151815260200191508051906020019080838360005b8381101561112857808201518184015260208101905061110d565b50505050905090810190601f1680156111555780820380516001836020036101000a031916815260200191505b50838103825288818151815260200191508051906020019080838360005b8381101561118e578082015181840152602081019050611173565b50505050905090810190601f1680156111bb5780820380516001836020036101000a031916815260200191505b509850505050505050505060405180910390f35b3480156111db57600080fd5b506111e46118fb565b60405180838152602001821515151581526020019250505060405180910390f35b600061121b82600061191090919063ffffffff16565b9050919050565b61122a612e73565b611240838360006119309092919063ffffffff16565b905092915050565b600061125e8260006119a690919063ffffffff16565b9050919050565b606061127160006119e6565b905090565b60606112826000611a25565b905090565b60006112936000611a64565b905090565b60008060606112a76000611ab8565b925092509250909192565b60006112c8826000611bec90919063ffffffff16565b9050919050565b6000806112e6836000611c0c90919063ffffffff16565b91509150915091565b600061130783836000611c859092919063ffffffff16565b905092915050565b6000611325826000611cc790919063ffffffff16565b9050919050565b611340816000611ced90919063ffffffff16565b50565b60008073__TellorTransfer________________________633f48b1ff909185856040518463ffffffff1660e01b8152600401808481526020018373ffffffffffffffffffffffffffffffffffffffff1673ffffffffffffffffffffffffffffffffffffffff168152602001828152602001935050505060206040518083038186803b1580156113d257600080fd5b505af41580156113e6573d6000803e3d6000fd5b505050506040513d60208110156113fc57600080fd5b8101908080519060200190929190505050905092915050565b600061142b826000611e1c90919063ffffffff16565b9050919050565b6000611448826000611e3c90919063ffffffff16565b9050919050565b600061146783836000611e6a9092919063ffffffff16565b905092915050565b611477612e95565b61148d83836000611ed59092919063ffffffff16565b905092915050565b60008073__TellorTransfer________________________6393b182b39091846040518363ffffffff1660e01b8152600401808381526020018273ffffffffffffffffffffffffffffffffffffffff1673ffffffffffffffffffffffffffffffffffffffff1681526020019250505060206040518083038186803b15801561151c57600080fd5b505af4158015611530573d6000803e3d6000fd5b505050506040513d602081101561154657600080fd5b81019080805190602001909291905050509050919050565b600080611575836000611f8190919063ffffffff16565b91509150915091565b6000611596838360006120199092919063ffffffff16565b905092915050565b60006115b6838360006120529092919063ffffffff16565b905092915050565b60006115d6838360006120879092919063ffffffff16565b905092915050565b60008073__TellorTransfer________________________63acaab9e2909185856040518463ffffffff1660e01b8152600401808481526020018373ffffffffffffffffffffffffffffffffffffffff1673ffffffffffffffffffffffffffffffffffffffff168152602001828152602001935050505060206040518083038186803b15801561166d57600080fd5b505af4158015611681573d6000803e3d6000fd5b505050506040513d602081101561169757600080fd5b8101908080519060200190929190505050905092915050565b600080600060606000806116c460006120bc565b955095509550955095509550909192939495565b60006116f0838360006123c69092919063ffffffff16565b905092915050565b61170c81600061243490919063ffffffff16565b50565b6000806000806000806000611722612eb7565b60006117388a60006125c690919063ffffffff16565b9850985098509850985098509850985098509193959799909294969850565b61175f612eda565b611769600061299c565b905090565b6000611786838360006129eb9092919063ffffffff16565b905092915050565b60006117a4826000612a2090919063ffffffff16565b9050919050565b60008073__TellorTransfer________________________63bf32006c909185856040518463ffffffff1660e01b8152600401808481526020018373ffffffffffffffffffffffffffffffffffffffff1673ffffffffffffffffffffffffffffffffffffffff1681526020018273ffffffffffffffffffffffffffffffffffffffff1673ffffffffffffffffffffffffffffffffffffffff168152602001935050505060206040518083038186803b15801561186657600080fd5b505af415801561187a573d6000803e3d6000fd5b505050506040513d602081101561189057600080fd5b8101908080519060200190929190505050905092915050565b60006118c183836000612a409092919063ffffffff16565b905092915050565b6060806000806000806118e6876000612a7590919063ffffffff16565b95509550955095509550955091939550919395565b6000806119086000612cd4565b915091509091565b600082604201600083815260200190815260200160002054905092915050565b611938612e73565b8360480160008481526020019081526020016000206009016000838152602001908152602001600020600580602002604051908101604052809291908260058015611998576020028201915b815481526020019060010190808311611984575b505050505090509392505050565b600082603f01600083815260200190815260200160002060009054906101000a900473ffffffffffffffffffffffffffffffffffffffff16905092915050565b60606040518060400160405280600281526020017f54540000000000000000000000000000000000000000000000000000000000008152509050919050565b60606040518060400160405280600f81526020017f54656c6c6f7220547269627574657300000000000000000000000000000000008152509050919050565b600081604001600060405180807f746f74616c5f737570706c790000000000000000000000000000000000000000815250600c01905060405180910390208152602001908152602001600020549050919050565b60008060606000611ac885612d96565b905080856048016000838152602001908152602001600020600401600060405180807f746f74616c54697000000000000000000000000000000000000000000000000081525060080190506040518091039020815260200190815260200160002054866048016000848152602001908152602001600020600001808054600181600116156101000203166002900480601f016020809104026020016040519081016040528092919081815260200182805460018160011615610100020316600290048015611bd75780601f10611bac57610100808354040283529160200191611bd7565b820191906000526020600020905b815481529060010190602001808311611bba57829003601f168201915b50505050509050935093509350509193909250565b600082604901600083815260200190815260200160002054905092915050565b60008060008460480160008581526020019081526020016000209050600081600301805490501115611c7257611c66858583600301600185600301805490500381548110611c5657fe5b9060005260206000200154612087565b60019250925050611c7e565b60008081915092509250505b9250929050565b6000836048016000848152602001908152602001600020600701600083815260200190815260200160002060009054906101000a900460ff1690509392505050565b600082604801600083815260200190815260200160002060030180549050905092915050565b3373ffffffffffffffffffffffffffffffffffffffff1682603f01600060405180807f5f6465697479000000000000000000000000000000000000000000000000000081525060060190506040518091039020815260200190815260200160002060009054906101000a900473ffffffffffffffffffffffffffffffffffffffff1673ffffffffffffffffffffffffffffffffffffffff1614611d8f57600080fd5b8082603f01600060405180807f5f6465697479000000000000000000000000000000000000000000000000000081525060060190506040518091039020815260200190815260200160002060006101000a81548173ffffffffffffffffffffffffffffffffffffffff021916908373ffffffffffffffffffffffffffffffffffffffff1602179055505050565b600082604001600083815260200190815260200160002054905092915050565b60006032821115611e4c57600080fd5b82604301600083815260200190815260200160002054905092915050565b600083604101600084815260200190815260200160002060008373ffffffffffffffffffffffffffffffffffffffff1673ffffffffffffffffffffffffffffffffffffffff16815260200190815260200160002060009054906101000a900460ff1690509392505050565b611edd612e95565b8360480160008481526020019081526020016000206008016000838152602001908152602001600020600580602002604051908101604052809291908260058015611f73576020028201915b8160009054906101000a900473ffffffffffffffffffffffffffffffffffffffff1673ffffffffffffffffffffffffffffffffffffffff1681526020019060010190808311611f29575b505050505090509392505050565b6000808360470160008473ffffffffffffffffffffffffffffffffffffffff1673ffffffffffffffffffffffffffffffffffffffff168152602001908152602001600020600001548460470160008573ffffffffffffffffffffffffffffffffffffffff1673ffffffffffffffffffffffffffffffffffffffff16815260200190815260200160002060010154915091509250929050565b6000836048016000848152602001908152602001600020600301828154811061203e57fe5b906000526020600020015490509392505050565b600083604401600084815260200190815260200160002060050160008381526020019081526020016000205490509392505050565b600083604801600084815260200190815260200160002060060160008381526020019081526020016000205490509392505050565b60008060006060600080866000015487604001600060405180807f63757272656e74526571756573744964000000000000000000000000000000008152506010019050604051809103902081526020019081526020016000205488604001600060405180807f646966666963756c747900000000000000000000000000000000000000000000815250600a01905060405180910390208152602001908152602001600020548960480160008b604001600060405180807f63757272656e74526571756573744964000000000000000000000000000000008152506010019050604051809103902081526020019081526020016000205481526020019081526020016000206000018a60480160008c604001600060405180807f63757272656e7452657175657374496400000000000000000000000000000000815250601001905060405180910390208152602001908152602001600020548152602001908152602001600020600401600060405180807f6772616e756c6172697479000000000000000000000000000000000000000000815250600b01905060405180910390208152602001908152602001600020548b60480160008d604001600060405180807f63757272656e7452657175657374496400000000000000000000000000000000815250601001905060405180910390208152602001908152602001600020548152602001908152602001600020600401600060405180807f746f74616c54697000000000000000000000000000000000000000000000000081525060080190506040518091039020815260200190815260200160002054828054600181600116156101000203166002900480601f0160208091040260200160405190810160405280929190818152602001828054600181600116156101000203166002900480156123aa5780601f1061237f576101008083540402835291602001916123aa565b820191906000526020600020905b81548152906001019060200180831161238d57829003601f168201915b5050505050925095509550955095509550955091939550919395565b600083604401600084815260200190815260200160002060060160008373ffffffffffffffffffffffffffffffffffffffff1673ffffffffffffffffffffffffffffffffffffffff16815260200190815260200160002060009054906101000a900460ff1690509392505050565b3373ffffffffffffffffffffffffffffffffffffffff1682603f01600060405180807f5f6465697479000000000000000000000000000000000000000000000000000081525060060190506040518091039020815260200190815260200160002060009054906101000a900473ffffffffffffffffffffffffffffffffffffffff1673ffffffffffffffffffffffffffffffffffffffff16146124d657600080fd5b8082603f01600060405180807f74656c6c6f72436f6e7472616374000000000000000000000000000000000000815250600e0190506040518091039020815260200190815260200160002060006101000a81548173ffffffffffffffffffffffffffffffffffffffff021916908373ffffffffffffffffffffffffffffffffffffffff1602179055507fc2d1449eb0b6547aa426e09d9942a77fa4fc8cd3296305b3163e22452e0bcb8d81604051808273ffffffffffffffffffffffffffffffffffffffff1673ffffffffffffffffffffffffffffffffffffffff16815260200191505060405180910390a15050565b60008060008060008060006125d9612eb7565b6000808b60440160008c8152602001908152602001600020905080600001548160020160009054906101000a900460ff168260020160019054906101000a900460ff168360020160029054906101000a900460ff168460020160039054906101000a900473ffffffffffffffffffffffffffffffffffffffff168560030160009054906101000a900473ffffffffffffffffffffffffffffffffffffffff168660040160009054906101000a900473ffffffffffffffffffffffffffffffffffffffff1660405180610120016040528089600501600060405180807f726571756573744964000000000000000000000000000000000000000000000081525060090190506040518091039020815260200190815260200160002054815260200189600501600060405180807f74696d657374616d70000000000000000000000000000000000000000000000081525060090190506040518091039020815260200190815260200160002054815260200189600501600060405180807f76616c756500000000000000000000000000000000000000000000000000000081525060050190506040518091039020815260200190815260200160002054815260200189600501600060405180807f6d696e457865637574696f6e446174650000000000000000000000000000000081525060100190506040518091039020815260200190815260200160002054815260200189600501600060405180807f6e756d6265724f66566f74657300000000000000000000000000000000000000815250600d0190506040518091039020815260200190815260200160002054815260200189600501600060405180807f626c6f636b4e756d626572000000000000000000000000000000000000000000815250600b0190506040518091039020815260200190815260200160002054815260200189600501600060405180807f6d696e6572536c6f74000000000000000000000000000000000000000000000081525060090190506040518091039020815260200190815260200160002054815260200189600501600060405180807f71756f72756d000000000000000000000000000000000000000000000000000081525060060190506040518091039020815260200190815260200160002054815260200189600501600060405180807f6665650000000000000000000000000000000000000000000000000000000000815250600301905060405180910390208152602001908152602001600020548152508860010154995099509950995099509950995099509950509295985092959850929598565b6129a4612eda565b816001016033806020026040519081016040528092919082603380156129df576020028201915b8154815260200190600101908083116129cb575b50505050509050919050565b600083604801600084815260200190815260200160002060050160008381526020019081526020016000205490509392505050565b600082604a01600083815260200190815260200160002054905092915050565b600083604801600084815260200190815260200160002060040160008381526020019081526020016000205490509392505050565b606080600080600080600088604801600089815260200190815260200160002090508060000181600101826002015483600401600060405180807f6772616e756c6172697479000000000000000000000000000000000000000000815250600b019050604051809103902081526020019081526020016000205484600401600060405180807f7265717565737451506f736974696f6e000000000000000000000000000000008152506010019050604051809103902081526020019081526020016000205485600401600060405180807f746f74616c54697000000000000000000000000000000000000000000000000081525060080190506040518091039020815260200190815260200160002054858054600181600116156101000203166002900480601f016020809104026020016040519081016040528092919081815260200182805460018160011615610100020316600290048015612c1a5780601f10612bef57610100808354040283529160200191612c1a565b820191906000526020600020905b815481529060010190602001808311612bfd57829003601f168201915b50505050509550848054600181600116156101000203166002900480601f016020809104026020016040519081016040528092919081815260200182805460018160011615610100020316600290048015612cb65780601f10612c8b57610100808354040283529160200191612cb6565b820191906000526020600020905b815481529060010190602001808311612c9957829003601f168201915b50505050509450965096509650965096509650509295509295509295565b600080612d8b8384604201600086604001600060405180807f74696d654f664c6173744e657756616c756500000000000000000000000000008152506012019050604051809103902081526020019081526020016000205481526020019081526020016000205485604001600060405180807f74696d654f664c6173744e657756616c7565000000000000000000000000000081525060120190506040518091039020815260200190815260200160002054612087565b600191509150915091565b6000806000612de384600101603380602002604051908101604052809291908260338015612dd9576020028201915b815481526020019060010190808311612dc5575b5050505050612e0a565b80925081935050508360430160008281526020019081526020016000205492505050919050565b60008082600160338110612e1a57fe5b602002015191506000600190505b6033811015612e6d5782848260338110612e3e57fe5b60200201511115612e6057838160338110612e5557fe5b602002015192508091505b8080600101915050612e28565b50915091565b6040518060a00160405280600590602082028038833980820191505090505090565b6040518060a00160405280600590602082028038833980820191505090505090565b604051806101200160405280600990602082028038833980820191505090505090565b60405180610660016040528060339060208202803883398082019150509050509056fea165627a7a7230582044abd6d04a4c170db9b8b108d4e1de85ec327ec6eb5a01e94f2f8957de6553c30029",
  "deployedBytecode": "0x6080604052600436106101f95760003560e01c806370a082311161010d578063ae0a8279116100a0578063da3799411161006f578063da37994114610f66578063dd62ed3e14610fb5578063e0ae93c11461103a578063e1eee6d614611093578063fc7cf0a0146111cf576101f9565b8063ae0a827914610d2a578063af0b132714610d7b578063b541302914610eba578063c775b54214610f0d576101f9565b806393fa4915116100dc57806393fa491514610b38578063999cf26c14610b91578063a22e407a14610c04578063a7c438bc14610cb7576101f9565b806370a08231146109b5578063733bdef014610a1a57806377fbb66314610a865780637f6fd5d914610adf576101f9565b80633180f8df116101905780634ee2cd7e1161015f5780634ee2cd7e146107b4578063612c8f7f146108235780636173c0b81461087257806363bb82ad146108c157806369026d6314610934576101f9565b80633180f8df1461065d5780633df0777b146106b757806346eee1c41461071457806347abd7f114610763576101f9565b806317d7de7c116101cc57806317d7de7c146104b557806318160ddd1461054557806319e8e03b146105705780631db842f01461060e576101f9565b80630f0b424d146102da57806311c9851214610329578063133bee5e146103aa5780631507040114610425575b600080603f01600060405180807f74656c6c6f72436f6e7472616374000000000000000000000000000000000000815250600e0190506040518091039020815260200190815260200160002060009054906101000a900473ffffffffffffffffffffffffffffffffffffffff16905060606000368080601f016020809104026020016040519081016040528093929190818152602001838380828437600081840152601f19601f82011690508083019250505050505050905060008082516020840185600019f43d604051816000823e82600081146102d6578282f35b8282fd5b3480156102e657600080fd5b50610313600480360360208110156102fd57600080fd5b8101908080359060200190929190505050611205565b6040518082815260200191505060405180910390f35b34801561033557600080fd5b5061036c6004803603604081101561034c57600080fd5b810190808035906020019092919080359060200190929190505050611222565b6040518082600560200280838360005b8381101561039757808201518184015260208101905061037c565b5050505090500191505060405180910390f35b3480156103b657600080fd5b506103e3600480360360208110156103cd57600080fd5b8101908080359060200190929190505050611248565b604051808273ffffffffffffffffffffffffffffffffffffffff1673ffffffffffffffffffffffffffffffffffffffff16815260200191505060405180910390f35b34801561043157600080fd5b5061043a611265565b6040518080602001828103825283818151815260200191508051906020019080838360005b8381101561047a57808201518184015260208101905061045f565b50505050905090810190601f1680156104a75780820380516001836020036101000a031916815260200191505b509250505060405180910390f35b3480156104c157600080fd5b506104ca611276565b6040518080602001828103825283818151815260200191508051906020019080838360005b8381101561050a5780820151818401526020810190506104ef565b50505050905090810190601f1680156105375780820380516001836020036101000a031916815260200191505b509250505060405180910390f35b34801561055157600080fd5b5061055a611287565b6040518082815260200191505060405180910390f35b34801561057c57600080fd5b50610585611298565b6040518084815260200183815260200180602001828103825283818151815260200191508051906020019080838360005b838110156105d15780820151818401526020810190506105b6565b50505050905090810190601f1680156105fe5780820380516001836020036101000a031916815260200191505b5094505050505060405180910390f35b34801561061a57600080fd5b506106476004803603602081101561063157600080fd5b81019080803590602001909291905050506112b2565b6040518082815260200191505060405180910390f35b34801561066957600080fd5b506106966004803603602081101561068057600080fd5b81019080803590602001909291905050506112cf565b60405180838152602001821515151581526020019250505060405180910390f35b3480156106c357600080fd5b506106fa600480360360408110156106da57600080fd5b8101908080359060200190929190803590602001909291905050506112ef565b604051808215151515815260200191505060405180910390f35b34801561072057600080fd5b5061074d6004803603602081101561073757600080fd5b810190808035906020019092919050505061130f565b6040518082815260200191505060405180910390f35b34801561076f57600080fd5b506107b26004803603602081101561078657600080fd5b81019080803573ffffffffffffffffffffffffffffffffffffffff16906020019092919050505061132c565b005b3480156107c057600080fd5b5061080d600480360360408110156107d757600080fd5b81019080803573ffffffffffffffffffffffffffffffffffffffff16906020019092919080359060200190929190505050611343565b6040518082815260200191505060405180910390f35b34801561082f57600080fd5b5061085c6004803603602081101561084657600080fd5b8101908080359060200190929190505050611415565b6040518082815260200191505060405180910390f35b34801561087e57600080fd5b506108ab6004803603602081101561089557600080fd5b8101908080359060200190929190505050611432565b6040518082815260200191505060405180910390f35b3480156108cd57600080fd5b5061091a600480360360408110156108e457600080fd5b8101908080359060200190929190803573ffffffffffffffffffffffffffffffffffffffff16906020019092919050505061144f565b604051808215151515815260200191505060405180910390f35b34801561094057600080fd5b506109776004803603604081101561095757600080fd5b81019080803590602001909291908035906020019092919050505061146f565b6040518082600560200280838360005b838110156109a2578082015181840152602081019050610987565b5050505090500191505060405180910390f35b3480156109c157600080fd5b50610a04600480360360208110156109d857600080fd5b81019080803573ffffffffffffffffffffffffffffffffffffffff169060200190929190505050611495565b6040518082815260200191505060405180910390f35b348015610a2657600080fd5b50610a6960048036036020811015610a3d57600080fd5b81019080803573ffffffffffffffffffffffffffffffffffffffff16906020019092919050505061155e565b604051808381526020018281526020019250505060405180910390f35b348015610a9257600080fd5b50610ac960048036036040811015610aa957600080fd5b81019080803590602001909291908035906020019092919050505061157e565b6040518082815260200191505060405180910390f35b348015610aeb57600080fd5b50610b2260048036036040811015610b0257600080fd5b81019080803590602001909291908035906020019092919050505061159e565b6040518082815260200191505060405180910390f35b348015610b4457600080fd5b50610b7b60048036036040811015610b5b57600080fd5b8101908080359060200190929190803590602001909291905050506115be565b6040518082815260200191505060405180910390f35b348015610b9d57600080fd5b50610bea60048036036040811015610bb457600080fd5b81019080803573ffffffffffffffffffffffffffffffffffffffff169060200190929190803590602001909291905050506115de565b604051808215151515815260200191505060405180910390f35b348015610c1057600080fd5b50610c196116b0565b6040518087815260200186815260200185815260200180602001848152602001838152602001828103825285818151815260200191508051906020019080838360005b83811015610c77578082015181840152602081019050610c5c565b50505050905090810190601f168015610ca45780820380516001836020036101000a031916815260200191505b5097505050505050505060405180910390f35b348015610cc357600080fd5b50610d1060048036036040811015610cda57600080fd5b8101908080359060200190929190803573ffffffffffffffffffffffffffffffffffffffff1690602001909291905050506116d8565b604051808215151515815260200191505060405180910390f35b348015610d3657600080fd5b50610d7960048036036020811015610d4d57600080fd5b81019080803573ffffffffffffffffffffffffffffffffffffffff1690602001909291905050506116f8565b005b348015610d8757600080fd5b50610db460048036036020811015610d9e57600080fd5b810190808035906020019092919050505061170f565b604051808a81526020018915151515815260200188151515158152602001871515151581526020018673ffffffffffffffffffffffffffffffffffffffff1673ffffffffffffffffffffffffffffffffffffffff1681526020018573ffffffffffffffffffffffffffffffffffffffff1673ffffffffffffffffffffffffffffffffffffffff1681526020018473ffffffffffffffffffffffffffffffffffffffff1673ffffffffffffffffffffffffffffffffffffffff16815260200183600960200280838360005b83811015610e99578082015181840152602081019050610e7e565b50505050905001828152602001995050505050505050505060405180910390f35b348015610ec657600080fd5b50610ecf611757565b6040518082603360200280838360005b83811015610efa578082015181840152602081019050610edf565b5050505090500191505060405180910390f35b348015610f1957600080fd5b50610f5060048036036040811015610f3057600080fd5b81019080803590602001909291908035906020019092919050505061176e565b6040518082815260200191505060405180910390f35b348015610f7257600080fd5b50610f9f60048036036020811015610f8957600080fd5b810190808035906020019092919050505061178e565b6040518082815260200191505060405180910390f35b348015610fc157600080fd5b5061102460048036036040811015610fd857600080fd5b81019080803573ffffffffffffffffffffffffffffffffffffffff169060200190929190803573ffffffffffffffffffffffffffffffffffffffff1690602001909291905050506117ab565b6040518082815260200191505060405180910390f35b34801561104657600080fd5b5061107d6004803603604081101561105d57600080fd5b8101908080359060200190929190803590602001909291905050506118a9565b6040518082815260200191505060405180910390f35b34801561109f57600080fd5b506110cc600480360360208110156110b657600080fd5b81019080803590602001909291905050506118c9565b604051808060200180602001878152602001868152602001858152602001848152602001838103835289818151815260200191508051906020019080838360005b8381101561112857808201518184015260208101905061110d565b50505050905090810190601f1680156111555780820380516001836020036101000a031916815260200191505b50838103825288818151815260200191508051906020019080838360005b8381101561118e578082015181840152602081019050611173565b50505050905090810190601f1680156111bb5780820380516001836020036101000a031916815260200191505b509850505050505050505060405180910390f35b3480156111db57600080fd5b506111e46118fb565b60405180838152602001821515151581526020019250505060405180910390f35b600061121b82600061191090919063ffffffff16565b9050919050565b61122a612e73565b611240838360006119309092919063ffffffff16565b905092915050565b600061125e8260006119a690919063ffffffff16565b9050919050565b606061127160006119e6565b905090565b60606112826000611a25565b905090565b60006112936000611a64565b905090565b60008060606112a76000611ab8565b925092509250909192565b60006112c8826000611bec90919063ffffffff16565b9050919050565b6000806112e6836000611c0c90919063ffffffff16565b91509150915091565b600061130783836000611c859092919063ffffffff16565b905092915050565b6000611325826000611cc790919063ffffffff16565b9050919050565b611340816000611ced90919063ffffffff16565b50565b60008073__TellorTransfer________________________633f48b1ff909185856040518463ffffffff1660e01b8152600401808481526020018373ffffffffffffffffffffffffffffffffffffffff1673ffffffffffffffffffffffffffffffffffffffff168152602001828152602001935050505060206040518083038186803b1580156113d257600080fd5b505af41580156113e6573d6000803e3d6000fd5b505050506040513d60208110156113fc57600080fd5b8101908080519060200190929190505050905092915050565b600061142b826000611e1c90919063ffffffff16565b9050919050565b6000611448826000611e3c90919063ffffffff16565b9050919050565b600061146783836000611e6a9092919063ffffffff16565b905092915050565b611477612e95565b61148d83836000611ed59092919063ffffffff16565b905092915050565b60008073__TellorTransfer________________________6393b182b39091846040518363ffffffff1660e01b8152600401808381526020018273ffffffffffffffffffffffffffffffffffffffff1673ffffffffffffffffffffffffffffffffffffffff1681526020019250505060206040518083038186803b15801561151c57600080fd5b505af4158015611530573d6000803e3d6000fd5b505050506040513d602081101561154657600080fd5b81019080805190602001909291905050509050919050565b600080611575836000611f8190919063ffffffff16565b91509150915091565b6000611596838360006120199092919063ffffffff16565b905092915050565b60006115b6838360006120529092919063ffffffff16565b905092915050565b60006115d6838360006120879092919063ffffffff16565b905092915050565b60008073__TellorTransfer________________________63acaab9e2909185856040518463ffffffff1660e01b8152600401808481526020018373ffffffffffffffffffffffffffffffffffffffff1673ffffffffffffffffffffffffffffffffffffffff168152602001828152602001935050505060206040518083038186803b15801561166d57600080fd5b505af4158015611681573d6000803e3d6000fd5b505050506040513d602081101561169757600080fd5b8101908080519060200190929190505050905092915050565b600080600060606000806116c460006120bc565b955095509550955095509550909192939495565b60006116f0838360006123c69092919063ffffffff16565b905092915050565b61170c81600061243490919063ffffffff16565b50565b6000806000806000806000611722612eb7565b60006117388a60006125c690919063ffffffff16565b9850985098509850985098509850985098509193959799909294969850565b61175f612eda565b611769600061299c565b905090565b6000611786838360006129eb9092919063ffffffff16565b905092915050565b60006117a4826000612a2090919063ffffffff16565b9050919050565b60008073__TellorTransfer________________________63bf32006c909185856040518463ffffffff1660e01b8152600401808481526020018373ffffffffffffffffffffffffffffffffffffffff1673ffffffffffffffffffffffffffffffffffffffff1681526020018273ffffffffffffffffffffffffffffffffffffffff1673ffffffffffffffffffffffffffffffffffffffff168152602001935050505060206040518083038186803b15801561186657600080fd5b505af415801561187a573d6000803e3d6000fd5b505050506040513d602081101561189057600080fd5b8101908080519060200190929190505050905092915050565b60006118c183836000612a409092919063ffffffff16565b905092915050565b6060806000806000806118e6876000612a7590919063ffffffff16565b95509550955095509550955091939550919395565b6000806119086000612cd4565b915091509091565b600082604201600083815260200190815260200160002054905092915050565b611938612e73565b8360480160008481526020019081526020016000206009016000838152602001908152602001600020600580602002604051908101604052809291908260058015611998576020028201915b815481526020019060010190808311611984575b505050505090509392505050565b600082603f01600083815260200190815260200160002060009054906101000a900473ffffffffffffffffffffffffffffffffffffffff16905092915050565b60606040518060400160405280600281526020017f54540000000000000000000000000000000000000000000000000000000000008152509050919050565b60606040518060400160405280600f81526020017f54656c6c6f7220547269627574657300000000000000000000000000000000008152509050919050565b600081604001600060405180807f746f74616c5f737570706c790000000000000000000000000000000000000000815250600c01905060405180910390208152602001908152602001600020549050919050565b60008060606000611ac885612d96565b905080856048016000838152602001908152602001600020600401600060405180807f746f74616c54697000000000000000000000000000000000000000000000000081525060080190506040518091039020815260200190815260200160002054866048016000848152602001908152602001600020600001808054600181600116156101000203166002900480601f016020809104026020016040519081016040528092919081815260200182805460018160011615610100020316600290048015611bd75780601f10611bac57610100808354040283529160200191611bd7565b820191906000526020600020905b815481529060010190602001808311611bba57829003601f168201915b50505050509050935093509350509193909250565b600082604901600083815260200190815260200160002054905092915050565b60008060008460480160008581526020019081526020016000209050600081600301805490501115611c7257611c66858583600301600185600301805490500381548110611c5657fe5b9060005260206000200154612087565b60019250925050611c7e565b60008081915092509250505b9250929050565b6000836048016000848152602001908152602001600020600701600083815260200190815260200160002060009054906101000a900460ff1690509392505050565b600082604801600083815260200190815260200160002060030180549050905092915050565b3373ffffffffffffffffffffffffffffffffffffffff1682603f01600060405180807f5f6465697479000000000000000000000000000000000000000000000000000081525060060190506040518091039020815260200190815260200160002060009054906101000a900473ffffffffffffffffffffffffffffffffffffffff1673ffffffffffffffffffffffffffffffffffffffff1614611d8f57600080fd5b8082603f01600060405180807f5f6465697479000000000000000000000000000000000000000000000000000081525060060190506040518091039020815260200190815260200160002060006101000a81548173ffffffffffffffffffffffffffffffffffffffff021916908373ffffffffffffffffffffffffffffffffffffffff1602179055505050565b600082604001600083815260200190815260200160002054905092915050565b60006032821115611e4c57600080fd5b82604301600083815260200190815260200160002054905092915050565b600083604101600084815260200190815260200160002060008373ffffffffffffffffffffffffffffffffffffffff1673ffffffffffffffffffffffffffffffffffffffff16815260200190815260200160002060009054906101000a900460ff1690509392505050565b611edd612e95565b8360480160008481526020019081526020016000206008016000838152602001908152602001600020600580602002604051908101604052809291908260058015611f73576020028201915b8160009054906101000a900473ffffffffffffffffffffffffffffffffffffffff1673ffffffffffffffffffffffffffffffffffffffff1681526020019060010190808311611f29575b505050505090509392505050565b6000808360470160008473ffffffffffffffffffffffffffffffffffffffff1673ffffffffffffffffffffffffffffffffffffffff168152602001908152602001600020600001548460470160008573ffffffffffffffffffffffffffffffffffffffff1673ffffffffffffffffffffffffffffffffffffffff16815260200190815260200160002060010154915091509250929050565b6000836048016000848152602001908152602001600020600301828154811061203e57fe5b906000526020600020015490509392505050565b600083604401600084815260200190815260200160002060050160008381526020019081526020016000205490509392505050565b600083604801600084815260200190815260200160002060060160008381526020019081526020016000205490509392505050565b60008060006060600080866000015487604001600060405180807f63757272656e74526571756573744964000000000000000000000000000000008152506010019050604051809103902081526020019081526020016000205488604001600060405180807f646966666963756c747900000000000000000000000000000000000000000000815250600a01905060405180910390208152602001908152602001600020548960480160008b604001600060405180807f63757272656e74526571756573744964000000000000000000000000000000008152506010019050604051809103902081526020019081526020016000205481526020019081526020016000206000018a60480160008c604001600060405180807f63757272656e7452657175657374496400000000000000000000000000000000815250601001905060405180910390208152602001908152602001600020548152602001908152602001600020600401600060405180807f6772616e756c6172697479000000000000000000000000000000000000000000815250600b01905060405180910390208152602001908152602001600020548b60480160008d604001600060405180807f63757272656e7452657175657374496400000000000000000000000000000000815250601001905060405180910390208152602001908152602001600020548152602001908152602001600020600401600060405180807f746f74616c54697000000000000000000000000000000000000000000000000081525060080190506040518091039020815260200190815260200160002054828054600181600116156101000203166002900480601f0160208091040260200160405190810160405280929190818152602001828054600181600116156101000203166002900480156123aa5780601f1061237f576101008083540402835291602001916123aa565b820191906000526020600020905b81548152906001019060200180831161238d57829003601f168201915b5050505050925095509550955095509550955091939550919395565b600083604401600084815260200190815260200160002060060160008373ffffffffffffffffffffffffffffffffffffffff1673ffffffffffffffffffffffffffffffffffffffff16815260200190815260200160002060009054906101000a900460ff1690509392505050565b3373ffffffffffffffffffffffffffffffffffffffff1682603f01600060405180807f5f6465697479000000000000000000000000000000000000000000000000000081525060060190506040518091039020815260200190815260200160002060009054906101000a900473ffffffffffffffffffffffffffffffffffffffff1673ffffffffffffffffffffffffffffffffffffffff16146124d657600080fd5b8082603f01600060405180807f74656c6c6f72436f6e7472616374000000000000000000000000000000000000815250600e0190506040518091039020815260200190815260200160002060006101000a81548173ffffffffffffffffffffffffffffffffffffffff021916908373ffffffffffffffffffffffffffffffffffffffff1602179055507fc2d1449eb0b6547aa426e09d9942a77fa4fc8cd3296305b3163e22452e0bcb8d81604051808273ffffffffffffffffffffffffffffffffffffffff1673ffffffffffffffffffffffffffffffffffffffff16815260200191505060405180910390a15050565b60008060008060008060006125d9612eb7565b6000808b60440160008c8152602001908152602001600020905080600001548160020160009054906101000a900460ff168260020160019054906101000a900460ff168360020160029054906101000a900460ff168460020160039054906101000a900473ffffffffffffffffffffffffffffffffffffffff168560030160009054906101000a900473ffffffffffffffffffffffffffffffffffffffff168660040160009054906101000a900473ffffffffffffffffffffffffffffffffffffffff1660405180610120016040528089600501600060405180807f726571756573744964000000000000000000000000000000000000000000000081525060090190506040518091039020815260200190815260200160002054815260200189600501600060405180807f74696d657374616d70000000000000000000000000000000000000000000000081525060090190506040518091039020815260200190815260200160002054815260200189600501600060405180807f76616c756500000000000000000000000000000000000000000000000000000081525060050190506040518091039020815260200190815260200160002054815260200189600501600060405180807f6d696e457865637574696f6e446174650000000000000000000000000000000081525060100190506040518091039020815260200190815260200160002054815260200189600501600060405180807f6e756d6265724f66566f74657300000000000000000000000000000000000000815250600d0190506040518091039020815260200190815260200160002054815260200189600501600060405180807f626c6f636b4e756d626572000000000000000000000000000000000000000000815250600b0190506040518091039020815260200190815260200160002054815260200189600501600060405180807f6d696e6572536c6f74000000000000000000000000000000000000000000000081525060090190506040518091039020815260200190815260200160002054815260200189600501600060405180807f71756f72756d000000000000000000000000000000000000000000000000000081525060060190506040518091039020815260200190815260200160002054815260200189600501600060405180807f6665650000000000000000000000000000000000000000000000000000000000815250600301905060405180910390208152602001908152602001600020548152508860010154995099509950995099509950995099509950509295985092959850929598565b6129a4612eda565b816001016033806020026040519081016040528092919082603380156129df576020028201915b8154815260200190600101908083116129cb575b50505050509050919050565b600083604801600084815260200190815260200160002060050160008381526020019081526020016000205490509392505050565b600082604a01600083815260200190815260200160002054905092915050565b600083604801600084815260200190815260200160002060040160008381526020019081526020016000205490509392505050565b606080600080600080600088604801600089815260200190815260200160002090508060000181600101826002015483600401600060405180807f6772616e756c6172697479000000000000000000000000000000000000000000815250600b019050604051809103902081526020019081526020016000205484600401600060405180807f7265717565737451506f736974696f6e000000000000000000000000000000008152506010019050604051809103902081526020019081526020016000205485600401600060405180807f746f74616c54697000000000000000000000000000000000000000000000000081525060080190506040518091039020815260200190815260200160002054858054600181600116156101000203166002900480601f016020809104026020016040519081016040528092919081815260200182805460018160011615610100020316600290048015612c1a5780601f10612bef57610100808354040283529160200191612c1a565b820191906000526020600020905b815481529060010190602001808311612bfd57829003601f168201915b50505050509550848054600181600116156101000203166002900480601f016020809104026020016040519081016040528092919081815260200182805460018160011615610100020316600290048015612cb65780601f10612c8b57610100808354040283529160200191612cb6565b820191906000526020600020905b815481529060010190602001808311612c9957829003601f168201915b50505050509450965096509650965096509650509295509295509295565b600080612d8b8384604201600086604001600060405180807f74696d654f664c6173744e657756616c756500000000000000000000000000008152506012019050604051809103902081526020019081526020016000205481526020019081526020016000205485604001600060405180807f74696d654f664c6173744e657756616c7565000000000000000000000000000081525060120190506040518091039020815260200190815260200160002054612087565b600191509150915091565b6000806000612de384600101603380602002604051908101604052809291908260338015612dd9576020028201915b815481526020019060010190808311612dc5575b5050505050612e0a565b80925081935050508360430160008281526020019081526020016000205492505050919050565b60008082600160338110612e1a57fe5b602002015191506000600190505b6033811015612e6d5782848260338110612e3e57fe5b60200201511115612e6057838160338110612e5557fe5b602002015192508091505b8080600101915050612e28565b50915091565b6040518060a00160405280600590602082028038833980820191505090505090565b6040518060a00160405280600590602082028038833980820191505090505090565b604051806101200160405280600990602082028038833980820191505090505090565b60405180610660016040528060339060208202803883398082019150509050509056fea165627a7a7230582044abd6d04a4c170db9b8b108d4e1de85ec327ec6eb5a01e94f2f8957de6553c30029",
  "source": "pragma solidity ^0.5.0;\r\n\r\nimport \"./TellorGetters.sol\";\r\n\r\n/**\r\n* @title Tellor Master\r\n* @dev This is the Master contract with all tellor getter functions and delegate call to Tellor. \r\n* The logic for the functions on this contract is saved on the TellorGettersLibrary, TellorTransfer, \r\n* TellorGettersLibrary, and TellorStake\r\n*/\r\ncontract TellorMaster is TellorGetters{\r\n    \r\n    event NewTellorAddress(address _newTellor);\r\n\r\n    /**\r\n    * @dev The constructor sets the original `tellorStorageOwner` of the contract to the sender\r\n    * account, the tellor contract to the Tellor master address and owner to the Tellor master owner address \r\n    * @param _tellorContract is the address for the tellor contract\r\n    */\r\n    constructor (address _tellorContract)  public{\r\n        tellor.init();\r\n        tellor.addressVars[keccak256(\"_owner\")] = msg.sender;\r\n        tellor.addressVars[keccak256(\"_deity\")] = msg.sender;\r\n        tellor.addressVars[keccak256(\"tellorContract\")]= _tellorContract;\r\n        emit NewTellorAddress(_tellorContract);\r\n    }\r\n    \r\n\r\n    /**\r\n    * @dev Gets the 5 miners who mined the value for the specified requestId/_timestamp \r\n    * @dev Only needs to be in library\r\n    * @param _newDeity the new Deity in the contract\r\n    */\r\n\r\n    function changeDeity(address _newDeity) external{\r\n        tellor.changeDeity(_newDeity);\r\n    }\r\n\r\n\r\n    /**\r\n    * @dev  allows for the deity to make fast upgrades.  Deity should be 0 address if decentralized\r\n    * @param _tellorContract the address of the new Tellor Contract\r\n    */\r\n    function changeTellorContract(address _tellorContract) external{\r\n        tellor.changeTellorContract(_tellorContract);\r\n    }\r\n  \r\n\r\n    /**\r\n    * @dev This is the fallback function that allows contracts to call the tellor contract at the address stored\r\n    */\r\n    function () external payable {\r\n        address addr = tellor.addressVars[keccak256(\"tellorContract\")];\r\n        bytes memory _calldata = msg.data;\r\n        assembly {\r\n            let result := delegatecall(not(0), addr, add(_calldata, 0x20), mload(_calldata), 0, 0)\r\n            let size := returndatasize\r\n            let ptr := mload(0x40)\r\n            returndatacopy(ptr, 0, size)\r\n            // revert instead of invalid() bc if the underlying call failed with invalid() it already wasted gas.\r\n            // if the call returned error data, forward it\r\n            switch result case 0 { revert(ptr, size) }\r\n            default { return(ptr, size) }\r\n        }\r\n    }\r\n}",
  "sourcePath": "C:\\company\\code\\open-oracle\\contracts\\Tellor\\TellorMaster.sol",
  "compiler": {
    "name": "solc",
    "version": "0.5.8+commit.23d335f2.Emscripten.clang"
  },
  "schemaVersion": "3.0.16",
  "updatedAt": "2019-09-23T01:07:00.358Z",
  "devdoc": {
    "details": "This is the Master contract with all tellor getter functions and delegate call to Tellor. \r The logic for the functions on this contract is saved on the TellorGettersLibrary, TellorTransfer, \r TellorGettersLibrary, and TellorStake\r",
    "methods": {
      "allowance(address,address)": {
        "params": {
          "_spender": "address\r",
          "_user": "address\r"
        },
        "return": "Returns the remaining allowance of tokens granted to the _spender from the _user\r"
      },
      "allowedToTrade(address,uint256)": {
        "details": "This function returns whether or not a given user is allowed to trade a given amount  \r",
        "params": {
          "_amount": "uint of amount\r",
          "_user": "address\r"
        },
        "return": "true if the user is alloed to trade the amount specified\r"
      },
      "balanceOf(address)": {
        "details": "Gets balance of owner specified\r",
        "params": {
          "_user": "is the owner address used to look up the balance\r"
        },
        "return": "Returns the balance associated with the passed in _user\r"
      },
      "balanceOfAt(address,uint256)": {
        "details": "Queries the balance of _user at a specific _blockNumber\r",
        "params": {
          "_blockNumber": "The block number when the balance is queried\r",
          "_user": "The address from which the balance will be retrieved\r"
        },
        "return": "The balance at _blockNumber\r"
      },
      "changeDeity(address)": {
        "details": "Gets the 5 miners who mined the value for the specified requestId/_timestamp \rOnly needs to be in library\r",
        "params": {
          "_newDeity": "the new Deity in the contract\r"
        }
      },
      "changeTellorContract(address)": {
        "details": "allows for the deity to make fast upgrades.  Deity should be 0 address if decentralized\r",
        "params": {
          "_tellorContract": "the address of the new Tellor Contract\r"
        }
      },
      "constructor": {
        "details": "The constructor sets the original `tellorStorageOwner` of the contract to the sender\r account, the tellor contract to the Tellor master address and owner to the Tellor master owner address \r",
        "params": {
          "_tellorContract": "is the address for the tellor contract\r"
        }
      },
      "didMine(bytes32,address)": {
        "details": "This function tells you if a given challenge has been completed by a given miner\r",
        "params": {
          "_challenge": "the challenge to search for\r",
          "_miner": "address that you want to know if they solved the challenge\r"
        },
        "return": "true if the _miner address provided solved the \r"
      },
      "didVote(uint256,address)": {
        "details": "Checks if an address voted in a given dispute\r",
        "params": {
          "_address": "to look up\r",
          "_disputeId": "to look up\r"
        },
        "return": "bool of whether or not party voted\r"
      },
      "getAddressVars(bytes32)": {
        "details": "allows Tellor to read data from the addressVars mapping\r",
        "params": {
          "_data": "is the keccak256(\"variable_name\") of the variable that is being accessed. \r These are examples of how the variables are saved within other functions:\r addressVars[keccak256(\"_owner\")]\r addressVars[keccak256(\"tellorContract\")]\r"
        }
      },
      "getAllDisputeVars(uint256)": {
        "details": "Gets all dispute variables\r",
        "params": {
          "_disputeId": "to look up\r"
        },
        "return": "bytes32 hash of dispute \rbool executed where true if it has been voted on\rbool disputeVotePassed\rbool isPropFork true if the dispute is a proposed fork\raddress of reportedMiner\raddress of reportingParty\raddress of proposedForkAddress\ruint of requestId\ruint of timestamp\ruint of value\ruint of minExecutionDate\ruint of numberOfVotes\ruint of blocknumber\ruint of minerSlot\ruint of quorum\ruint of fee\rint count of the current tally\r"
      },
      "getCurrentVariables()": {
        "details": "Getter function for variables for the requestId being currently mined(currentRequestId)\r",
        "return": "current challenge, curretnRequestId, level of difficulty, api/query string, and granularity(number of decimals requested), total tip for the request \r"
      },
      "getDisputeIdByDisputeHash(bytes32)": {
        "details": "Checks if a given hash of miner,requestId has been disputed\r",
        "params": {
          "_hash": "is the sha256(abi.encodePacked(_miners[2],_requestId));\r"
        },
        "return": "uint disputeId\r"
      },
      "getDisputeUintVars(uint256,bytes32)": {
        "details": "Checks for uint variables in the disputeUintVars mapping based on the disuputeId\r",
        "params": {
          "_data": "the variable to pull from the mapping. _data = keccak256(\"variable_name\") where variable_name is \r the variables/strings used to save the data in the mapping. The variables names are  \r commented out under the disputeUintVars under the Dispute struct\r",
          "_disputeId": "is the dispute id;\r"
        },
        "return": "uint value for the bytes32 data submitted\r"
      },
      "getLastNewValue()": {
        "details": "Gets the a value for the latest timestamp available\r",
        "return": "value for timestamp of last proof of work submited\rtrue if the is a timestamp for the lastNewValue\r"
      },
      "getLastNewValueById(uint256)": {
        "details": "Gets the a value for the latest timestamp available\r",
        "params": {
          "_requestId": "being requested\r"
        },
        "return": "value for timestamp of last proof of work submited and if true if it exist or 0 and false if it doesn't\r"
      },
      "getMinedBlockNum(uint256,uint256)": {
        "details": "Gets blocknumber for mined timestamp \r",
        "params": {
          "_requestId": "to look up\r",
          "_timestamp": "is the timestamp to look up blocknumber\r"
        },
        "return": "uint of the blocknumber which the dispute was mined\r"
      },
      "getMinersByRequestIdAndTimestamp(uint256,uint256)": {
        "details": "Gets the 5 miners who mined the value for the specified requestId/_timestamp \r",
        "params": {
          "_requestId": "to look up\r",
          "_timestamp": "is the timestamp to look up miners for\r"
        },
        "return": "the 5 miners' addresses\r"
      },
      "getName()": {
        "details": "Get the name of the token\r return string of the token name\r"
      },
      "getNewValueCountbyRequestId(uint256)": {
        "details": "Counts the number of values that have been submited for the request \r if called for the currentRequest being mined it can tell you how many miners have submitted a value for that\r request so far\r",
        "params": {
          "_requestId": "the requestId to look up\r"
        },
        "return": "uint count of the number of values received for the requestId\r"
      },
      "getRequestIdByQueryHash(bytes32)": {
        "details": "Getter function for requestId based on the queryHash\r",
        "params": {
          "_request": "is the hash(of string api and granularity) to check if a request already exists\r"
        },
        "return": "uint requestId\r"
      },
      "getRequestIdByRequestQIndex(uint256)": {
        "details": "Getter function for the specified requestQ index\r",
        "params": {
          "_index": "to look up in the requestQ array\r"
        },
        "return": "uint of reqeuestId\r"
      },
      "getRequestIdByTimestamp(uint256)": {
        "details": "Getter function for requestId based on timestamp \r",
        "params": {
          "_timestamp": "to check requestId\r"
        },
        "return": "uint of reqeuestId\r"
      },
      "getRequestQ()": {
        "details": "Getter function for the requestQ array\r",
        "return": "the requestQ arrray\r"
      },
      "getRequestUintVars(uint256,bytes32)": {
        "details": "Allowes access to the uint variables saved in the apiUintVars under the requestDetails struct\r for the requestId specified\r",
        "params": {
          "_data": "the variable to pull from the mapping. _data = keccak256(\"variable_name\") where variable_name is \r the variables/strings used to save the data in the mapping. The variables names are  \r commented out under the apiUintVars under the requestDetails struct\r",
          "_requestId": "to look up\r"
        },
        "return": "uint value of the apiUintVars specified in _data for the requestId specified\r"
      },
      "getRequestVars(uint256)": {
        "details": "Gets the API struct variables that are not mappings\r",
        "params": {
          "_requestId": "to look up\r"
        },
        "return": "string of api to query\rstring of symbol of api to query\rbytes32 hash of string\rbytes32 of the granularity(decimal places) requested\ruint of index in requestQ array\ruint of current payout/tip for this requestId\r"
      },
      "getStakerInfo(address)": {
        "details": "This function allows users to retireve all information about a staker\r",
        "params": {
          "_staker": "address of staker inquiring about\r"
        },
        "return": "uint current state of staker\ruint startDate of staking\r"
      },
      "getSubmissionsByTimestamp(uint256,uint256)": {
        "details": "Gets the 5 miners who mined the value for the specified requestId/_timestamp \r",
        "params": {
          "_requestId": "to look up\r",
          "_timestamp": "is the timestampt to look up miners for\r"
        },
        "return": "address[5] array of 5 addresses ofminers that mined the requestId\r"
      },
      "getSymbol()": {
        "details": "Get the symbol of the token\r return string of the token symbol\r"
      },
      "getTimestampbyRequestIDandIndex(uint256,uint256)": {
        "details": "Gets the timestamp for the value based on their index\r",
        "params": {
          "_index": "is the value index to look up\r",
          "_requestID": "is the requestId to look up\r"
        },
        "return": "uint timestamp\r"
      },
      "getUintVar(bytes32)": {
        "details": "Getter for the variables saved under the TellorStorageStruct uintVars variable\r",
        "params": {
          "_data": "the variable to pull from the mapping. _data = keccak256(\"variable_name\") where variable_name is \r the variables/strings used to save the data in the mapping. The variables names are  \r commented out under the uintVars under the TellorStorageStruct struct\r This is an example of how data is saved into the mapping within other functions: \r self.uintVars[keccak256(\"stakerCount\")]\r"
        },
        "return": "uint of specified variable  \r"
      },
      "getVariablesOnDeck()": {
        "details": "Getter function for next requestId on queue/request with highest payout at time the function is called\r",
        "return": "onDeck/info on request with highest payout-- RequestId, Totaltips, and API query string\r"
      },
      "isInDispute(uint256,uint256)": {
        "details": "Gets the 5 miners who mined the value for the specified requestId/_timestamp \r",
        "params": {
          "_requestId": "to look up\r",
          "_timestamp": "is the timestamp to look up miners for\r"
        },
        "return": "bool true if requestId/timestamp is under dispute\r"
      },
      "retrieveData(uint256,uint256)": {
        "details": "Retreive value from oracle based on timestamp\r",
        "params": {
          "_requestId": "being requested\r",
          "_timestamp": "to retreive data/value from\r"
        },
        "return": "value for timestamp submitted\r"
      },
      "totalSupply()": {
        "details": "Getter for the total_supply of oracle tokens\r",
        "return": "uint total supply\r"
      }
    },
    "title": "Tellor Master\r"
  },
  "userdoc": {
    "methods": {}
  }
}