{
  "contractName": "TestContract",
  "abi": [
    {
      "constant": true,
      "inputs": [],
      "name": "endValue",
      "outputs": [
        {
          "name": "",
          "type": "uint64"
        }
      ],
      "payable": false,
      "stateMutability": "view",
      "type": "function"
    },
    {
      "constant": true,
      "inputs": [],
      "name": "endDateTime",
      "outputs": [
        {
          "name": "",
          "type": "uint256"
        }
      ],
      "payable": false,
      "stateMutability": "view",
      "type": "function"
    },
    {
      "constant": true,
      "inputs": [],
      "name": "startValue",
      "outputs": [
        {
          "name": "",
          "type": "uint64"
        }
      ],
      "payable": false,
      "stateMutability": "view",
      "type": "function"
    },
    {
      "constant": true,
      "inputs": [],
      "name": "startDateTime",
      "outputs": [
        {
          "name": "",
          "type": "uint256"
        }
      ],
      "payable": false,
      "stateMutability": "view",
      "type": "function"
    },
    {
      "constant": true,
      "inputs": [],
      "name": "contractEnded",
      "outputs": [
        {
          "name": "",
          "type": "bool"
        }
      ],
      "payable": false,
      "stateMutability": "view",
      "type": "function"
    },
    {
      "constant": true,
      "inputs": [],
      "name": "symbol",
      "outputs": [
        {
          "name": "",
          "type": "string"
        }
      ],
      "payable": false,
      "stateMutability": "view",
      "type": "function"
    },
    {
      "constant": true,
      "inputs": [],
      "name": "longWins",
      "outputs": [
        {
          "name": "",
          "type": "bool"
        }
      ],
      "payable": false,
      "stateMutability": "view",
      "type": "function"
    },
    {
      "inputs": [
        {
          "name": "_symbol",
          "type": "string"
        }
      ],
      "payable": false,
      "stateMutability": "nonpayable",
      "type": "constructor"
    },
    {
      "anonymous": false,
      "inputs": [
        {
          "indexed": false,
          "name": "_svalue",
          "type": "uint64"
        },
        {
          "indexed": false,
          "name": "_evalue",
          "type": "uint64"
        }
      ],
      "name": "ContractSettled",
      "type": "event"
    },
    {
      "constant": false,
      "inputs": [
        {
          "name": "_viewContract",
          "type": "address"
        }
      ],
      "name": "setViewContract",
      "outputs": [],
      "payable": false,
      "stateMutability": "nonpayable",
      "type": "function"
    },
    {
      "constant": false,
      "inputs": [
        {
          "name": "_duration",
          "type": "uint256"
        }
      ],
      "name": "startContract",
      "outputs": [],
      "payable": false,
      "stateMutability": "nonpayable",
      "type": "function"
    },
    {
      "constant": false,
      "inputs": [],
      "name": "settleContracts",
      "outputs": [],
      "payable": false,
      "stateMutability": "nonpayable",
      "type": "function"
    }
  ],
  "bytecode": "0x608060405234801561001057600080fd5b5060405161093c38038061093c8339810180604052602081101561003357600080fd5b81019080805164010000000081111561004b57600080fd5b8281019050602081018481111561006157600080fd5b815185600182028301116401000000008211171561007e57600080fd5b5050929190505050806003908051906020019061009c9291906100a3565b5050610148565b828054600181600116156101000203166002900490600052602060002090601f016020900481019282601f106100e457805160ff1916838001178555610112565b82800160010185558215610112579182015b828111156101115782518255916020019190600101906100f6565b5b50905061011f9190610123565b5090565b61014591905b80821115610141576000816000905550600101610129565b5090565b90565b6107e5806101576000396000f3fe608060405234801561001057600080fd5b506004361061009e5760003560e01c806381a219de1161006657806381a219de1461018757806387105801146101b557806391bf116f146101bf57806395d89b41146101e1578063bad4d21e146102645761009e565b806316e72abb146100a35780633c9177cd146100d55780633f35ff32146100f3578063775f75df146101255780637f6330a114610143575b600080fd5b6100ab610286565b604051808267ffffffffffffffff1667ffffffffffffffff16815260200191505060405180910390f35b6100dd6102a0565b6040518082815260200191505060405180910390f35b6100fb6102a6565b604051808267ffffffffffffffff1667ffffffffffffffff16815260200191505060405180910390f35b61012d6102c0565b6040518082815260200191505060405180910390f35b6101856004803603602081101561015957600080fd5b81019080803573ffffffffffffffffffffffffffffffffffffffff1690602001909291905050506102c6565b005b6101b36004803603602081101561019d57600080fd5b810190808035906020019092919050505061030a565b005b6101bd610478565b005b6101c76106f5565b604051808215151515815260200191505060405180910390f35b6101e9610708565b6040518080602001828103825283818151815260200191508051906020019080838360005b8381101561022957808201518184015260208101905061020e565b50505050905090810190601f1680156102565780820380516001836020036101000a031916815260200191505b509250505060405180910390f35b61026c6107a6565b604051808215151515815260200191505060405180910390f35b600260089054906101000a900467ffffffffffffffff1681565b60015481565b600260009054906101000a900467ffffffffffffffff1681565b60005481565b80600460006101000a81548173ffffffffffffffffffffffffffffffffffffffff021916908373ffffffffffffffffffffffffffffffffffffffff16021790555050565b42600081905550804201600181905550600460009054906101000a900473ffffffffffffffffffffffffffffffffffffffff1673ffffffffffffffffffffffffffffffffffffffff1663524f388960036040518263ffffffff1660e01b815260040180806020018281038252838181546001816001161561010002031660029004815260200191508054600181600116156101000203166002900480156103f25780601f106103c7576101008083540402835291602001916103f2565b820191906000526020600020905b8154815290600101906020018083116103d557829003601f168201915b505092505050602060405180830381600087803b15801561041257600080fd5b505af1158015610426573d6000803e3d6000fd5b505050506040513d602081101561043c57600080fd5b8101908080519060200190929190505050600260006101000a81548167ffffffffffffffff021916908367ffffffffffffffff16021790555050565b600154421161048657600080fd5b600460009054906101000a900473ffffffffffffffffffffffffffffffffffffffff1673ffffffffffffffffffffffffffffffffffffffff1663524f388960036040518263ffffffff1660e01b8152600401808060200182810382528381815460018160011615610100020316600290048152602001915080546001816001161561010002031660029004801561055e5780601f106105335761010080835404028352916020019161055e565b820191906000526020600020905b81548152906001019060200180831161054157829003601f168201915b505092505050602060405180830381600087803b15801561057e57600080fd5b505af1158015610592573d6000803e3d6000fd5b505050506040513d60208110156105a857600080fd5b8101908080519060200190929190505050600260086101000a81548167ffffffffffffffff021916908367ffffffffffffffff160217905550600260009054906101000a900467ffffffffffffffff1667ffffffffffffffff16600260089054906101000a900467ffffffffffffffff1667ffffffffffffffff161115610645576001600260106101000a81548160ff0219169083151502179055505b6001600260116101000a81548160ff0219169083151502179055507fdea89f8a21e059f0317e2227974455a9a09ef6378e0dc01c280343cf7675f073600260009054906101000a900467ffffffffffffffff16600260089054906101000a900467ffffffffffffffff16604051808367ffffffffffffffff1667ffffffffffffffff1681526020018267ffffffffffffffff1667ffffffffffffffff1681526020019250505060405180910390a1565b600260119054906101000a900460ff1681565b60038054600181600116156101000203166002900480601f01602080910402602001604051908101604052809291908181526020018280546001816001161561010002031660029004801561079e5780601f106107735761010080835404028352916020019161079e565b820191906000526020600020905b81548152906001019060200180831161078157829003601f168201915b505050505081565b600260109054906101000a900460ff168156fea165627a7a723058201202e3e51f4e68f3198496b389bc888f4c3de30d3ca668858a62859f9305cdb00029",
  "source": "pragma solidity ^0.5.0;\r\n\r\nimport './DelFiPriceWithOnchainData.sol';\r\n/**\r\n* @title Reader\r\n* This contracts is a pretend contract using Tellor that compares two time values\r\n*/\r\ncontract TestContract{\r\n\r\n\tuint public startDateTime;\r\n\tuint public endDateTime;\r\n\tuint64 public startValue;\r\n\tuint64 public endValue;\r\n\tbool public longWins;\r\n\tbool public contractEnded;\r\n\tstring public symbol;\r\n\tevent ContractSettled(uint64 _svalue, uint64 _evalue);\r\n\tDelFiPriceWithOnchainData viewContract;\r\n\r\n\tconstructor(string memory _symbol) public {\r\n\t\tsymbol = _symbol;\r\n\t}\r\n\r\n\tfunction setViewContract(address _viewContract) public {\r\n\t\tviewContract = DelFiPriceWithOnchainData(_viewContract);\r\n\t}\r\n\r\n\r\n    /**\r\n    * @dev creates a start(now) and end time(now + duration specified) for testing a contract start and end period\r\n    * @param _duration in seconds\r\n    */\r\n\tfunction startContract(uint _duration) external {\r\n\t\tstartDateTime = now;\r\n\t\tendDateTime = now + _duration;\r\n\t\tstartValue = viewContract.getPrice(symbol);\r\n\t}\r\n\r\n\r\n\t/**\r\n    * @dev testing fucntion that settles the contract by getting the first undisputed value after the startDateTime\r\n    * and the first undisputed value after the end time of the contract and settleling(payin off) it.\r\n\t*/\r\n\tfunction settleContracts() external{\r\n\t\trequire(now > endDateTime);\r\n\t\tendValue = viewContract.getPrice(symbol);\r\n\t\tif(endValue > startValue){\r\n\t\t\tlongWins = true;\r\n\t\t}\r\n\t\tcontractEnded = true;\r\n\t\temit ContractSettled(startValue, endValue);\r\n\t}\r\n}",
  "sourcePath": "C:/company/code/open-oracle/contracts/TestContract.sol",
  "compiler": {
    "name": "solc",
    "version": "0.5.8+commit.23d335f2.Emscripten.clang"
  },
  "schemaVersion": "3.0.16",
  "updatedAt": "2019-10-03T17:39:31.629Z",
  "devdoc": {
    "methods": {
      "settleContracts()": {
        "details": "testing fucntion that settles the contract by getting the first undisputed value after the startDateTime\r and the first undisputed value after the end time of the contract and settleling(payin off) it.\r"
      },
      "startContract(uint256)": {
        "details": "creates a start(now) and end time(now + duration specified) for testing a contract start and end period\r",
        "params": {
          "_duration": "in seconds\r"
        }
      }
    },
    "title": "Reader\r This contracts is a pretend contract using Tellor that compares two time values\r"
  },
  "userdoc": {
    "methods": {}
  }
}