{
  "contractName": "UserContract",
  "abi": [
    {
      "constant": true,
      "inputs": [],
      "name": "tributePrice",
      "outputs": [
        {
          "name": "",
          "type": "uint256"
        }
      ],
      "payable": false,
      "stateMutability": "view",
      "type": "function"
    },
    {
      "constant": true,
      "inputs": [],
      "name": "owner",
      "outputs": [
        {
          "name": "",
          "type": "address"
        }
      ],
      "payable": false,
      "stateMutability": "view",
      "type": "function"
    },
    {
      "constant": true,
      "inputs": [],
      "name": "tellorStorageAddress",
      "outputs": [
        {
          "name": "",
          "type": "address"
        }
      ],
      "payable": false,
      "stateMutability": "view",
      "type": "function"
    },
    {
      "inputs": [
        {
          "name": "_storage",
          "type": "address"
        }
      ],
      "payable": false,
      "stateMutability": "nonpayable",
      "type": "constructor"
    },
    {
      "anonymous": false,
      "inputs": [
        {
          "indexed": false,
          "name": "_previousOwner",
          "type": "address"
        },
        {
          "indexed": false,
          "name": "_newOwner",
          "type": "address"
        }
      ],
      "name": "OwnershipTransferred",
      "type": "event"
    },
    {
      "anonymous": false,
      "inputs": [
        {
          "indexed": false,
          "name": "_newPrice",
          "type": "uint256"
        }
      ],
      "name": "NewPriceSet",
      "type": "event"
    },
    {
      "constant": false,
      "inputs": [
        {
          "name": "newOwner",
          "type": "address"
        }
      ],
      "name": "transferOwnership",
      "outputs": [],
      "payable": false,
      "stateMutability": "nonpayable",
      "type": "function"
    },
    {
      "constant": false,
      "inputs": [],
      "name": "withdrawEther",
      "outputs": [],
      "payable": false,
      "stateMutability": "nonpayable",
      "type": "function"
    },
    {
      "constant": false,
      "inputs": [],
      "name": "withdrawTokens",
      "outputs": [],
      "payable": false,
      "stateMutability": "nonpayable",
      "type": "function"
    },
    {
      "constant": false,
      "inputs": [
        {
          "name": "c_sapi",
          "type": "string"
        },
        {
          "name": "_c_symbol",
          "type": "string"
        },
        {
          "name": "_granularity",
          "type": "uint256"
        },
        {
          "name": "_tip",
          "type": "uint256"
        }
      ],
      "name": "requestDataWithEther",
      "outputs": [],
      "payable": true,
      "stateMutability": "payable",
      "type": "function"
    },
    {
      "constant": false,
      "inputs": [
        {
          "name": "_apiId",
          "type": "uint256"
        },
        {
          "name": "_tip",
          "type": "uint256"
        }
      ],
      "name": "addTipWithEther",
      "outputs": [],
      "payable": true,
      "stateMutability": "payable",
      "type": "function"
    },
    {
      "constant": false,
      "inputs": [
        {
          "name": "_price",
          "type": "uint256"
        }
      ],
      "name": "setPrice",
      "outputs": [],
      "payable": false,
      "stateMutability": "nonpayable",
      "type": "function"
    },
    {
      "constant": true,
      "inputs": [
        {
          "name": "_requestId",
          "type": "uint256"
        }
      ],
      "name": "getCurrentValue",
      "outputs": [
        {
          "name": "ifRetrieve",
          "type": "bool"
        },
        {
          "name": "value",
          "type": "uint256"
        },
        {
          "name": "_timestampRetrieved",
          "type": "uint256"
        }
      ],
      "payable": false,
      "stateMutability": "view",
      "type": "function"
    },
    {
      "constant": true,
      "inputs": [
        {
          "name": "_requestId",
          "type": "uint256"
        },
        {
          "name": "_timestamp",
          "type": "uint256"
        }
      ],
      "name": "getFirstVerifiedDataAfter",
      "outputs": [
        {
          "name": "",
          "type": "bool"
        },
        {
          "name": "",
          "type": "uint256"
        },
        {
          "name": "_timestampRetrieved",
          "type": "uint256"
        }
      ],
      "payable": false,
      "stateMutability": "view",
      "type": "function"
    },
    {
      "constant": true,
      "inputs": [
        {
          "name": "_requestId",
          "type": "uint256"
        },
        {
          "name": "_timestamp",
          "type": "uint256"
        }
      ],
      "name": "getAnyDataAfter",
      "outputs": [
        {
          "name": "_ifRetrieve",
          "type": "bool"
        },
        {
          "name": "_value",
          "type": "uint256"
        },
        {
          "name": "_timestampRetrieved",
          "type": "uint256"
        }
      ],
      "payable": false,
      "stateMutability": "view",
      "type": "function"
    }
  ],
  "bytecode": "0x608060405234801561001057600080fd5b506040516020806119038339810180604052602081101561003057600080fd5b810190808051906020019092919050505080600260006101000a81548173ffffffffffffffffffffffffffffffffffffffff021916908373ffffffffffffffffffffffffffffffffffffffff160217905550600260009054906101000a900473ffffffffffffffffffffffffffffffffffffffff16600360006101000a81548173ffffffffffffffffffffffffffffffffffffffff021916908373ffffffffffffffffffffffffffffffffffffffff160217905550600260009054906101000a900473ffffffffffffffffffffffffffffffffffffffff16600460006101000a81548173ffffffffffffffffffffffffffffffffffffffff021916908373ffffffffffffffffffffffffffffffffffffffff16021790555033600160006101000a81548173ffffffffffffffffffffffffffffffffffffffff021916908373ffffffffffffffffffffffffffffffffffffffff1602179055505061176a806101996000396000f3fe6080604052600436106100a75760003560e01c80638da5cb5b116100645780638da5cb5b146102b357806391b7f5ed1461030a578063a802097314610345578063d269a83c1461039c578063e723e3b514610407578063f2fde38b1461043f576100a7565b80633fcad964146100ac5780634482e6f31461010d5780635f059f3e146101ef57806362fb62b51461025a5780637362377b146102855780638d8f2adb1461029c575b600080fd5b3480156100b857600080fd5b506100e5600480360360208110156100cf57600080fd5b8101908080359060200190929190505050610490565b6040518084151515158152602001838152602001828152602001935050505060405180910390f35b6101ed6004803603608081101561012357600080fd5b810190808035906020019064010000000081111561014057600080fd5b82018360208201111561015257600080fd5b8035906020019184600183028401116401000000008311171561017457600080fd5b90919293919293908035906020019064010000000081111561019557600080fd5b8201836020820111156101a757600080fd5b803590602001918460018302840111640100000000831117156101c957600080fd5b909192939192939080359060200190929190803590602001909291905050506106e9565b005b3480156101fb57600080fd5b506102326004803603604081101561021257600080fd5b8101908080359060200190929190803590602001909291905050506108f6565b6040518084151515158152602001838152602001828152602001935050505060405180910390f35b34801561026657600080fd5b5061026f610d00565b6040518082815260200191505060405180910390f35b34801561029157600080fd5b5061029a610d06565b005b3480156102a857600080fd5b506102b1610de2565b005b3480156102bf57600080fd5b506102c861101e565b604051808273ffffffffffffffffffffffffffffffffffffffff1673ffffffffffffffffffffffffffffffffffffffff16815260200191505060405180910390f35b34801561031657600080fd5b506103436004803603602081101561032d57600080fd5b8101908080359060200190929190505050611044565b005b34801561035157600080fd5b5061035a6110df565b604051808273ffffffffffffffffffffffffffffffffffffffff1673ffffffffffffffffffffffffffffffffffffffff16815260200191505060405180910390f35b3480156103a857600080fd5b506103df600480360360408110156103bf57600080fd5b810190808035906020019092919080359060200190929190505050611105565b6040518084151515158152602001838152602001828152602001935050505060405180910390f35b61043d6004803603604081101561041d57600080fd5b810190808035906020019092919080359060200190929190505050611446565b005b34801561044b57600080fd5b5061048e6004803603602081101561046257600080fd5b81019080803573ffffffffffffffffffffffffffffffffffffffff1690602001909291905050506115e7565b005b600080600080600460009054906101000a900473ffffffffffffffffffffffffffffffffffffffff1673ffffffffffffffffffffffffffffffffffffffff166346eee1c4866040518263ffffffff1660e01b81526004018082815260200191505060206040518083038186803b15801561050957600080fd5b505afa15801561051d573d6000803e3d6000fd5b505050506040513d602081101561053357600080fd5b8101908080519060200190929190505050905060008111156106cf57600460009054906101000a900473ffffffffffffffffffffffffffffffffffffffff1673ffffffffffffffffffffffffffffffffffffffff166377fbb66386600184036040518363ffffffff1660e01b8152600401808381526020018281526020019250505060206040518083038186803b1580156105cd57600080fd5b505afa1580156105e1573d6000803e3d6000fd5b505050506040513d60208110156105f757600080fd5b810190808051906020019092919050505091506001600460009054906101000a900473ffffffffffffffffffffffffffffffffffffffff1673ffffffffffffffffffffffffffffffffffffffff166393fa491587856040518363ffffffff1660e01b8152600401808381526020018281526020019250505060206040518083038186803b15801561068757600080fd5b505afa15801561069b573d6000803e3d6000fd5b505050506040513d60208110156106b157600080fd5b810190808051906020019092919050505083935093509350506106e2565b6000806000819150809050935093509350505b9193909250565b80600460009054906101000a900473ffffffffffffffffffffffffffffffffffffffff1673ffffffffffffffffffffffffffffffffffffffff166370a08231306040518263ffffffff1660e01b8152600401808273ffffffffffffffffffffffffffffffffffffffff1673ffffffffffffffffffffffffffffffffffffffff16815260200191505060206040518083038186803b15801561078957600080fd5b505afa15801561079d573d6000803e3d6000fd5b505050506040513d60208110156107b357600080fd5b810190808051906020019092919050505010156107cf57600080fd5b670de0b6b3a76400006000548202816107e457fe5b043410156107f157600080fd5b600360009054906101000a900473ffffffffffffffffffffffffffffffffffffffff1673ffffffffffffffffffffffffffffffffffffffff16633fff28168787878787876040518763ffffffff1660e01b81526004018080602001806020018581526020018481526020018381038352898982818152602001925080828437600081840152601f19601f8201169050808301925050508381038252878782818152602001925080828437600081840152601f19601f82011690508083019250505098505050505050505050600060405180830381600087803b1580156108d657600080fd5b505af11580156108ea573d6000803e3d6000fd5b50505050505050505050565b600080600080600460009054906101000a900473ffffffffffffffffffffffffffffffffffffffff1673ffffffffffffffffffffffffffffffffffffffff166346eee1c4876040518263ffffffff1660e01b81526004018082815260200191505060206040518083038186803b15801561096f57600080fd5b505afa158015610983573d6000803e3d6000fd5b505050506040513d602081101561099957600080fd5b810190808051906020019092919050505090506000811115610ce65760008190505b6000811115610c165785600460009054906101000a900473ffffffffffffffffffffffffffffffffffffffff1673ffffffffffffffffffffffffffffffffffffffff166377fbb66389600185036040518363ffffffff1660e01b8152600401808381526020018281526020019250505060206040518083038186803b158015610a4357600080fd5b505afa158015610a57573d6000803e3d6000fd5b505050506040513d6020811015610a6d57600080fd5b8101908080519060200190929190505050118015610b475750620151804203600460009054906101000a900473ffffffffffffffffffffffffffffffffffffffff1673ffffffffffffffffffffffffffffffffffffffff166377fbb66389600185036040518363ffffffff1660e01b8152600401808381526020018281526020019250505060206040518083038186803b158015610b0a57600080fd5b505afa158015610b1e573d6000803e3d6000fd5b505050506040513d6020811015610b3457600080fd5b8101908080519060200190929190505050105b15610c0857600460009054906101000a900473ffffffffffffffffffffffffffffffffffffffff1673ffffffffffffffffffffffffffffffffffffffff166377fbb66388600184036040518363ffffffff1660e01b8152600401808381526020018281526020019250505060206040518083038186803b158015610bca57600080fd5b505afa158015610bde573d6000803e3d6000fd5b505050506040513d6020811015610bf457600080fd5b810190808051906020019092919050505092505b8080600190039150506109bb565b506000821115610ce5576001600460009054906101000a900473ffffffffffffffffffffffffffffffffffffffff1673ffffffffffffffffffffffffffffffffffffffff166393fa491588856040518363ffffffff1660e01b8152600401808381526020018281526020019250505060206040518083038186803b158015610c9d57600080fd5b505afa158015610cb1573d6000803e3d6000fd5b505050506040513d6020811015610cc757600080fd5b81019080805190602001909291905050508393509350935050610cf9565b5b6000806000819150809050935093509350505b9250925092565b60005481565b600160009054906101000a900473ffffffffffffffffffffffffffffffffffffffff1673ffffffffffffffffffffffffffffffffffffffff163373ffffffffffffffffffffffffffffffffffffffff1614610d6057600080fd5b600160009054906101000a900473ffffffffffffffffffffffffffffffffffffffff1673ffffffffffffffffffffffffffffffffffffffff166108fc3073ffffffffffffffffffffffffffffffffffffffff16319081150290604051600060405180830381858888f19350505050158015610ddf573d6000803e3d6000fd5b50565b600160009054906101000a900473ffffffffffffffffffffffffffffffffffffffff1673ffffffffffffffffffffffffffffffffffffffff163373ffffffffffffffffffffffffffffffffffffffff1614610e3c57600080fd5b600360009054906101000a900473ffffffffffffffffffffffffffffffffffffffff1673ffffffffffffffffffffffffffffffffffffffff1663a9059cbb600160009054906101000a900473ffffffffffffffffffffffffffffffffffffffff16600460009054906101000a900473ffffffffffffffffffffffffffffffffffffffff1673ffffffffffffffffffffffffffffffffffffffff166370a08231306040518263ffffffff1660e01b8152600401808273ffffffffffffffffffffffffffffffffffffffff1673ffffffffffffffffffffffffffffffffffffffff16815260200191505060206040518083038186803b158015610f3c57600080fd5b505afa158015610f50573d6000803e3d6000fd5b505050506040513d6020811015610f6657600080fd5b81019080805190602001909291905050506040518363ffffffff1660e01b8152600401808373ffffffffffffffffffffffffffffffffffffffff1673ffffffffffffffffffffffffffffffffffffffff16815260200182815260200192505050602060405180830381600087803b158015610fe057600080fd5b505af1158015610ff4573d6000803e3d6000fd5b505050506040513d602081101561100a57600080fd5b810190808051906020019092919050505050565b600160009054906101000a900473ffffffffffffffffffffffffffffffffffffffff1681565b600160009054906101000a900473ffffffffffffffffffffffffffffffffffffffff1673ffffffffffffffffffffffffffffffffffffffff163373ffffffffffffffffffffffffffffffffffffffff161461109e57600080fd5b806000819055507f4e8ad04c3fba0cbea0ab1df84b92a72a289ddf64da15f4c1c396891d37c39b01816040518082815260200191505060405180910390a150565b600260009054906101000a900473ffffffffffffffffffffffffffffffffffffffff1681565b600080600080600460009054906101000a900473ffffffffffffffffffffffffffffffffffffffff1673ffffffffffffffffffffffffffffffffffffffff166346eee1c4876040518263ffffffff1660e01b81526004018082815260200191505060206040518083038186803b15801561117e57600080fd5b505afa158015611192573d6000803e3d6000fd5b505050506040513d60208110156111a857600080fd5b81019080805190602001909291905050509050600081111561142c5760008190505b600081111561135c5785600460009054906101000a900473ffffffffffffffffffffffffffffffffffffffff1673ffffffffffffffffffffffffffffffffffffffff166377fbb66389600185036040518363ffffffff1660e01b8152600401808381526020018281526020019250505060206040518083038186803b15801561125257600080fd5b505afa158015611266573d6000803e3d6000fd5b505050506040513d602081101561127c57600080fd5b81019080805190602001909291905050501061134e57600460009054906101000a900473ffffffffffffffffffffffffffffffffffffffff1673ffffffffffffffffffffffffffffffffffffffff166377fbb66388600184036040518363ffffffff1660e01b8152600401808381526020018281526020019250505060206040518083038186803b15801561131057600080fd5b505afa158015611324573d6000803e3d6000fd5b505050506040513d602081101561133a57600080fd5b810190808051906020019092919050505092505b8080600190039150506111ca565b50600082111561142b576001600460009054906101000a900473ffffffffffffffffffffffffffffffffffffffff1673ffffffffffffffffffffffffffffffffffffffff166393fa491588856040518363ffffffff1660e01b8152600401808381526020018281526020019250505060206040518083038186803b1580156113e357600080fd5b505afa1580156113f7573d6000803e3d6000fd5b505050506040513d602081101561140d57600080fd5b8101908080519060200190929190505050839350935093505061143f565b5b6000806000819150809050935093509350505b9250925092565b80600460009054906101000a900473ffffffffffffffffffffffffffffffffffffffff1673ffffffffffffffffffffffffffffffffffffffff166370a08231306040518263ffffffff1660e01b8152600401808273ffffffffffffffffffffffffffffffffffffffff1673ffffffffffffffffffffffffffffffffffffffff16815260200191505060206040518083038186803b1580156114e657600080fd5b505afa1580156114fa573d6000803e3d6000fd5b505050506040513d602081101561151057600080fd5b8101908080519060200190929190505050101561152c57600080fd5b670de0b6b3a764000060005482028161154157fe5b0434101561154e57600080fd5b600360009054906101000a900473ffffffffffffffffffffffffffffffffffffffff1673ffffffffffffffffffffffffffffffffffffffff1663752d49a183836040518363ffffffff1660e01b81526004018083815260200182815260200192505050600060405180830381600087803b1580156115cb57600080fd5b505af11580156115df573d6000803e3d6000fd5b505050505050565b600160009054906101000a900473ffffffffffffffffffffffffffffffffffffffff1673ffffffffffffffffffffffffffffffffffffffff163373ffffffffffffffffffffffffffffffffffffffff161461164157600080fd5b7f8be0079c531659141344cd1fd0a4f28419497f9722a3daafe3b4186f6b6457e0600160009054906101000a900473ffffffffffffffffffffffffffffffffffffffff1682604051808373ffffffffffffffffffffffffffffffffffffffff1673ffffffffffffffffffffffffffffffffffffffff1681526020018273ffffffffffffffffffffffffffffffffffffffff1673ffffffffffffffffffffffffffffffffffffffff1681526020019250505060405180910390a180600160006101000a81548173ffffffffffffffffffffffffffffffffffffffff021916908373ffffffffffffffffffffffffffffffffffffffff1602179055505056fea165627a7a72305820227b7571d711c05fef0f2465236c4af43c8e036fdd160ddd9ff26ca268f47e5d0029",
  "source": "pragma solidity ^0.5.0;\r\n\r\nimport '../TellorMaster.sol';\r\nimport '../Tellor.sol';\r\n\r\n/**\r\n* @title UserContract\r\n* This contracts creates for easy integration to the Tellor Tellor System\r\n* This contract holds the Ether and Tributes for interacting with the system\r\n* Note it is centralized (we can set the price of Tellor Tributes)\r\n* Once the tellor system is running, this can be set properly.  \r\n* Note deploy through centralized 'Tellor Master contract'\r\n*/\r\ncontract UserContract{\r\n\r\n    //in Loyas per ETH.  so at 200$ ETH price and 3$ Trib price -- (3/200 * 1e18)\r\n    uint public tributePrice;\r\n\taddress payable public owner;\r\n\taddress payable public tellorStorageAddress;\r\n    Tellor _tellor;\r\n    TellorMaster _tellorm;\r\n\r\n\tevent OwnershipTransferred(address _previousOwner,address _newOwner);\r\n\tevent NewPriceSet(uint _newPrice);\r\n\r\n    /*Constructor*/\r\n    /**\r\n    * @dev the constructor sets the storage address and owner\r\n    * @param _storage is the TellorMaster address ???\r\n    */\r\n    constructor(address payable _storage) public{\r\n    \ttellorStorageAddress = _storage;\r\n        _tellor = Tellor(tellorStorageAddress); //we should delcall here\r\n        _tellorm = TellorMaster(tellorStorageAddress);\r\n    \towner = msg.sender;\r\n    }\r\n\r\n\r\n    /*Functions*/\r\n    /**\r\n    * @dev Allows the current owner to transfer control of the contract to a newOwner.\r\n    * @param newOwner The address to transfer ownership to.\r\n    */\r\n    function transferOwnership(address payable newOwner) external {\r\n            require(msg.sender == owner);\r\n            emit OwnershipTransferred(owner, newOwner);\r\n            owner = newOwner;\r\n    }\r\n\r\n\r\n    /**\r\n    * @dev This function allows the owner to withdraw the ETH paid for requests\r\n    */\r\n\tfunction withdrawEther() external {\r\n\t\trequire(msg.sender == owner);\r\n\t\towner.transfer(address(this).balance);\r\n\r\n\t}\r\n\r\n    \r\n    /**\r\n    * @dev Allows the contract owner(Tellor) to withdraw any Tributes left on this contract\r\n    */\r\n    function withdrawTokens() external{\r\n        require(msg.sender == owner);\r\n        _tellor.transfer(owner,_tellorm.balanceOf(address(this)));\r\n    }\r\n\r\n\r\n\t/**\r\n    * @dev Allows the user to submit a request for data to the oracle using ETH\r\n    * @param c_sapi string API being requested to be mined\r\n    * @param _c_symbol is the short string symbol for the api request\r\n    * @param _granularity is the number of decimals miners should include on the submitted value\r\n    * @param _tip amount the requester is willing to pay to be get on queue. Miners\r\n    * mine the onDeckQueryHash, or the api with the highest payout pool\r\n    */\r\n\tfunction requestDataWithEther(string calldata c_sapi, string calldata _c_symbol,uint _granularity, uint _tip) external payable{\r\n\t\trequire(_tellorm.balanceOf(address(this)) >= _tip);\r\n\t\trequire(msg.value >= (_tip * tributePrice)/1e18);\r\n\t\t_tellor.requestData(c_sapi,_c_symbol,_granularity,_tip);\r\n\t}\r\n\r\n\r\n    /**\r\n    * @dev Allows the user to tip miners using ether\r\n    * @param _apiId to tip\r\n    * @param _tip amount\r\n    */\r\n\tfunction addTipWithEther(uint _apiId, uint _tip) external payable {\r\n\t\trequire(_tellorm.balanceOf(address(this)) >= _tip);\r\n\t\trequire(msg.value >= (_tip * tributePrice)/1e18);\r\n\t\t_tellor.addTip(_apiId,_tip);\r\n\t}\r\n\r\n\r\n    /**\r\n    * @dev Allows the owner to set the Tribute token price.\r\n    * @param _price to set for Tellor Tribute token\r\n    */\r\n\tfunction setPrice(uint _price) public {\r\n\t\trequire(msg.sender == owner);\r\n\t\ttributePrice = _price;\r\n\t\temit NewPriceSet(_price);\r\n\t}\r\n\r\n    /**\r\n    * @dev Allows the user to get the latest value for the requestId specified\r\n    * @param _requestId is the requestId to look up the value for\r\n    * @return bool true if it is able to retreive a value, the value, and the value's timestamp\r\n    */\r\n    function getCurrentValue(uint _requestId) public view returns(bool ifRetrieve, uint value, uint _timestampRetrieved) {\r\n        uint _count = _tellorm.getNewValueCountbyRequestId(_requestId) ;\r\n        if(_count > 0){\r\n                _timestampRetrieved = _tellorm.getTimestampbyRequestIDandIndex(_requestId,_count -1);//will this work with a zero index? (or insta hit?)\r\n                return(true,_tellorm.retrieveData(_requestId,_timestampRetrieved),_timestampRetrieved);\r\n        }\r\n        return(false,0,0);\r\n    }\r\n\r\n    \r\n    /**\r\n    * @dev Allows the user to get the first verified value for the requestId after the specified timestamp\r\n    * @param _requestId is the requestId to look up the value for\r\n    * @param _timestamp after which to search for first verified value\r\n    * @return bool true if it is able to retreive a value, the value, and the value's timestamp, the timestamp after\r\n    * which it searched for the first verified value\r\n    */\r\n    function getFirstVerifiedDataAfter(uint _requestId, uint _timestamp) public view returns(bool,uint,uint _timestampRetrieved) {\r\n        uint _count = _tellorm.getNewValueCountbyRequestId(_requestId);\r\n        if(_count > 0){\r\n                for(uint i = _count;i > 0;i--){\r\n                    if(_tellorm.getTimestampbyRequestIDandIndex(_requestId,i-1) > _timestamp && _tellorm.getTimestampbyRequestIDandIndex(_requestId,i-1) < block.timestamp - 86400){\r\n                        _timestampRetrieved = _tellorm.getTimestampbyRequestIDandIndex(_requestId,i-1);//will this work with a zero index? (or insta hit?)\r\n                    }\r\n                }\r\n                if(_timestampRetrieved > 0){\r\n                    return(true,_tellorm.retrieveData(_requestId,_timestampRetrieved),_timestampRetrieved);\r\n                }\r\n        }\r\n        return(false,0,0);\r\n    }\r\n    \r\n\r\n    /**\r\n    * @dev Allows the user to get the first value for the requestId after the specified timestamp\r\n    * @param _requestId is the requestId to look up the value for\r\n    * @param _timestamp after which to search for first verified value\r\n    * @return bool true if it is able to retreive a value, the value, and the value's timestamp\r\n    */\r\n    function getAnyDataAfter(uint _requestId, uint _timestamp) public  view returns(bool _ifRetrieve, uint _value, uint _timestampRetrieved){\r\n        uint _count = _tellorm.getNewValueCountbyRequestId(_requestId) ;\r\n        if(_count > 0){\r\n                for(uint i = _count;i > 0;i--){\r\n                    if(_tellorm.getTimestampbyRequestIDandIndex(_requestId,i-1) >= _timestamp){\r\n                        _timestampRetrieved = _tellorm.getTimestampbyRequestIDandIndex(_requestId,i-1);//will this work with a zero index? (or insta hit?)\r\n                    }\r\n                }\r\n                if(_timestampRetrieved > 0){\r\n                    return(true,_tellorm.retrieveData(_requestId,_timestampRetrieved),_timestampRetrieved);\r\n                }\r\n        }\r\n        return(false,0,0);\r\n    }\r\n\r\n}",
  "sourcePath": "C:\\company\\code\\open-oracle\\contracts\\Tellor\\userFiles\\UserContract.sol",
  "compiler": {
    "name": "solc",
    "version": "0.5.8+commit.23d335f2.Emscripten.clang"
  },
  "schemaVersion": "3.0.16",
  "updatedAt": "2019-10-01T15:15:39.536Z",
  "devdoc": {
    "methods": {
      "addTipWithEther(uint256,uint256)": {
        "details": "Allows the user to tip miners using ether\r",
        "params": {
          "_apiId": "to tip\r",
          "_tip": "amount\r"
        }
      },
      "constructor": {
        "details": "the constructor sets the storage address and owner\r",
        "params": {
          "_storage": "is the TellorMaster address ???\r"
        }
      },
      "getAnyDataAfter(uint256,uint256)": {
        "details": "Allows the user to get the first value for the requestId after the specified timestamp\r",
        "params": {
          "_requestId": "is the requestId to look up the value for\r",
          "_timestamp": "after which to search for first verified value\r"
        },
        "return": "bool true if it is able to retreive a value, the value, and the value's timestamp\r"
      },
      "getCurrentValue(uint256)": {
        "details": "Allows the user to get the latest value for the requestId specified\r",
        "params": {
          "_requestId": "is the requestId to look up the value for\r"
        },
        "return": "bool true if it is able to retreive a value, the value, and the value's timestamp\r"
      },
      "getFirstVerifiedDataAfter(uint256,uint256)": {
        "details": "Allows the user to get the first verified value for the requestId after the specified timestamp\r",
        "params": {
          "_requestId": "is the requestId to look up the value for\r",
          "_timestamp": "after which to search for first verified value\r"
        },
        "return": "bool true if it is able to retreive a value, the value, and the value's timestamp, the timestamp after\r which it searched for the first verified value\r"
      },
      "requestDataWithEther(string,string,uint256,uint256)": {
        "details": "Allows the user to submit a request for data to the oracle using ETH\r",
        "params": {
          "_c_symbol": "is the short string symbol for the api request\r",
          "_granularity": "is the number of decimals miners should include on the submitted value\r",
          "_tip": "amount the requester is willing to pay to be get on queue. Miners\r mine the onDeckQueryHash, or the api with the highest payout pool\r",
          "c_sapi": "string API being requested to be mined\r"
        }
      },
      "setPrice(uint256)": {
        "details": "Allows the owner to set the Tribute token price.\r",
        "params": {
          "_price": "to set for Tellor Tribute token\r"
        }
      },
      "transferOwnership(address)": {
        "details": "Allows the current owner to transfer control of the contract to a newOwner.\r",
        "params": {
          "newOwner": "The address to transfer ownership to.\r"
        }
      },
      "withdrawEther()": {
        "details": "This function allows the owner to withdraw the ETH paid for requests\r"
      },
      "withdrawTokens()": {
        "details": "Allows the contract owner(Tellor) to withdraw any Tributes left on this contract\r"
      }
    },
    "title": "UserContract\r This contracts creates for easy integration to the Tellor Tellor System\r This contract holds the Ether and Tributes for interacting with the system\r Note it is centralized (we can set the price of Tellor Tributes)\r Once the tellor system is running, this can be set properly.  \r Note deploy through centralized 'Tellor Master contract'\r"
  },
  "userdoc": {
    "methods": {}
  }
}